{
  "contractName": "Exchange",
  "abi": [
    {
      "anonymous": false,
      "inputs": [
        {
          "indexed": true,
          "internalType": "address",
          "name": "user",
          "type": "address"
        },
        {
          "indexed": true,
          "internalType": "address",
          "name": "assetAddress",
          "type": "address"
        },
        {
          "indexed": false,
          "internalType": "uint256",
          "name": "amount",
          "type": "uint256"
        }
      ],
      "name": "NewAssetDeposit",
      "type": "event",
      "signature": "0x87e95ee7cdd8ce169873b1be6add255c13ec04051d493c3346c1e705a849e620"
    },
    {
      "anonymous": false,
      "inputs": [
        {
          "indexed": true,
          "internalType": "address",
          "name": "user",
          "type": "address"
        },
        {
          "indexed": true,
          "internalType": "address",
          "name": "assetAddress",
          "type": "address"
        },
        {
          "indexed": false,
          "internalType": "uint256",
          "name": "amount",
          "type": "uint256"
        }
      ],
      "name": "NewAssetWithdrawl",
      "type": "event",
      "signature": "0x29f9103583c97b319d05287c41c024d7219f7217e16ca5f4066a7c2019cd2fd8"
    },
    {
      "anonymous": false,
      "inputs": [
        {
          "indexed": false,
          "internalType": "bytes32",
          "name": "buyOrderHash",
          "type": "bytes32"
        },
        {
          "indexed": false,
          "internalType": "bytes32",
          "name": "sellOrderHash",
          "type": "bytes32"
        },
        {
          "indexed": false,
          "internalType": "uint256",
          "name": "filledPrice",
          "type": "uint256"
        },
        {
          "indexed": false,
          "internalType": "uint256",
          "name": "filledAmount",
          "type": "uint256"
        },
        {
          "indexed": false,
          "internalType": "uint256",
          "name": "amountToTake",
          "type": "uint256"
        }
      ],
      "name": "NewTrade",
      "type": "event",
      "signature": "0xb6cd6c67a54af9431b22579bc0ca8767337fe44be7dfa5107eda536a1e5edb24"
    },
    {
      "anonymous": false,
      "inputs": [
        {
          "indexed": true,
          "internalType": "bytes32",
          "name": "orderHash",
          "type": "bytes32"
        }
      ],
      "name": "OrderCancelled",
      "type": "event",
      "signature": "0x5152abf959f6564662358c2e52b702259b78bac5ee7842a0f01937e670efcc7d"
    },
    {
      "anonymous": false,
      "inputs": [
        {
          "indexed": true,
          "internalType": "address",
          "name": "previousOwner",
          "type": "address"
        },
        {
          "indexed": true,
          "internalType": "address",
          "name": "newOwner",
          "type": "address"
        }
      ],
      "name": "OwnershipTransferred",
      "type": "event",
      "signature": "0x8be0079c531659141344cd1fd0a4f28419497f9722a3daafe3b4186f6b6457e0"
    },
    {
      "constant": true,
      "inputs": [
        {
          "internalType": "address",
          "name": "",
          "type": "address"
        },
        {
          "internalType": "address",
          "name": "",
          "type": "address"
        }
      ],
      "name": "assetBalances",
      "outputs": [
        {
          "internalType": "uint256",
          "name": "",
          "type": "uint256"
        }
      ],
      "payable": false,
      "stateMutability": "view",
      "type": "function",
      "signature": "0xbdfce5bf"
    },
    {
      "constant": true,
      "inputs": [
        {
          "internalType": "address",
          "name": "assetAddress",
          "type": "address"
        },
        {
          "internalType": "uint256",
          "name": "amount",
          "type": "uint256"
        }
      ],
      "name": "baseUnitToDecimal",
      "outputs": [
        {
          "internalType": "uint64",
          "name": "",
          "type": "uint64"
        }
      ],
      "payable": false,
      "stateMutability": "view",
      "type": "function",
      "signature": "0x43249606"
    },
    {
      "constant": true,
      "inputs": [
        {
          "internalType": "bytes32",
          "name": "",
          "type": "bytes32"
        }
      ],
      "name": "cancelledOrders",
      "outputs": [
        {
          "internalType": "bool",
          "name": "",
          "type": "bool"
        }
      ],
      "payable": false,
      "stateMutability": "view",
      "type": "function",
      "signature": "0x8f13f48e"
    },
    {
      "constant": true,
      "inputs": [
        {
          "internalType": "address",
          "name": "assetAddress",
          "type": "address"
        },
        {
          "internalType": "uint64",
          "name": "_amount",
          "type": "uint64"
        }
      ],
      "name": "decimalToBaseUnit",
      "outputs": [
        {
          "internalType": "uint256",
          "name": "",
          "type": "uint256"
        }
      ],
      "payable": false,
      "stateMutability": "view",
      "type": "function",
      "signature": "0xc7bc8b20"
    },
    {
      "constant": true,
      "inputs": [],
      "name": "isOwner",
      "outputs": [
        {
          "internalType": "bool",
          "name": "",
          "type": "bool"
        }
      ],
      "payable": false,
      "stateMutability": "view",
      "type": "function",
      "signature": "0x8f32d59b"
    },
    {
      "constant": true,
      "inputs": [],
      "name": "orion",
      "outputs": [
        {
          "internalType": "contract IERC20",
          "name": "",
          "type": "address"
        }
      ],
      "payable": false,
      "stateMutability": "view",
      "type": "function",
      "signature": "0xcdfd441e"
    },
    {
      "constant": true,
      "inputs": [],
      "name": "owner",
      "outputs": [
        {
          "internalType": "address",
          "name": "",
          "type": "address"
        }
      ],
      "payable": false,
      "stateMutability": "view",
      "type": "function",
      "signature": "0x8da5cb5b"
    },
    {
      "constant": false,
      "inputs": [],
      "name": "renounceOwnership",
      "outputs": [],
      "payable": false,
      "stateMutability": "nonpayable",
      "type": "function",
      "signature": "0x715018a6"
    },
    {
      "constant": true,
      "inputs": [],
      "name": "totalOrders",
      "outputs": [
        {
          "internalType": "uint256",
          "name": "",
          "type": "uint256"
        }
      ],
      "payable": false,
      "stateMutability": "view",
      "type": "function",
      "signature": "0x1d834409"
    },
    {
      "constant": true,
      "inputs": [],
      "name": "totalTrades",
      "outputs": [
        {
          "internalType": "uint256",
          "name": "",
          "type": "uint256"
        }
      ],
      "payable": false,
      "stateMutability": "view",
      "type": "function",
      "signature": "0xe275c997"
    },
    {
      "constant": true,
      "inputs": [
        {
          "internalType": "bytes32",
          "name": "",
          "type": "bytes32"
        },
        {
          "internalType": "uint256",
          "name": "",
          "type": "uint256"
        }
      ],
      "name": "trades",
      "outputs": [
        {
          "internalType": "bytes32",
          "name": "orderHash",
          "type": "bytes32"
        },
        {
          "internalType": "enum Exchange.Status",
          "name": "orderStatus",
          "type": "uint8"
        },
        {
          "internalType": "uint256",
          "name": "filledAmount",
          "type": "uint256"
        }
      ],
      "payable": false,
      "stateMutability": "view",
      "type": "function",
      "signature": "0x50ef1f5d"
    },
    {
      "constant": false,
      "inputs": [
        {
          "internalType": "address",
          "name": "newOwner",
          "type": "address"
        }
      ],
      "name": "transferOwnership",
      "outputs": [],
      "payable": false,
      "stateMutability": "nonpayable",
      "type": "function",
      "signature": "0xf2fde38b"
    },
    {
      "constant": false,
      "inputs": [
        {
          "internalType": "address",
          "name": "assetAddress",
          "type": "address"
        },
        {
          "internalType": "uint256",
          "name": "amount",
          "type": "uint256"
        }
      ],
      "name": "depositAsset",
      "outputs": [],
      "payable": true,
      "stateMutability": "payable",
      "type": "function",
      "signature": "0x46a5d043"
    },
    {
      "constant": false,
      "inputs": [],
      "name": "depositWan",
      "outputs": [],
      "payable": true,
      "stateMutability": "payable",
      "type": "function",
      "signature": "0x76a207b8"
    },
    {
      "constant": false,
      "inputs": [
        {
          "internalType": "address",
          "name": "assetAddress",
          "type": "address"
        },
        {
          "internalType": "uint256",
          "name": "amount",
          "type": "uint256"
        }
      ],
      "name": "withdraw",
      "outputs": [],
      "payable": false,
      "stateMutability": "nonpayable",
      "type": "function",
      "signature": "0xf3fef3a3"
    },
    {
      "constant": true,
      "inputs": [
        {
          "internalType": "address",
          "name": "assetAddress",
          "type": "address"
        },
        {
          "internalType": "address",
          "name": "user",
          "type": "address"
        }
      ],
      "name": "getBalance",
      "outputs": [
        {
          "internalType": "uint256",
          "name": "assetBalance",
          "type": "uint256"
        }
      ],
      "payable": false,
      "stateMutability": "view",
      "type": "function",
      "signature": "0xd4fac45d"
    },
    {
      "constant": true,
      "inputs": [
        {
          "internalType": "address[]",
          "name": "assetsAddresses",
          "type": "address[]"
        },
        {
          "internalType": "address",
          "name": "user",
          "type": "address"
        }
      ],
      "name": "getBalances",
      "outputs": [
        {
          "internalType": "uint256[]",
          "name": "",
          "type": "uint256[]"
        }
      ],
      "payable": false,
      "stateMutability": "view",
      "type": "function",
      "signature": "0xd1c07028"
    },
    {
      "constant": false,
      "inputs": [
        {
          "components": [
            {
              "internalType": "address",
              "name": "senderAddress",
              "type": "address"
            },
            {
              "internalType": "address",
              "name": "matcherAddress",
              "type": "address"
            },
            {
              "internalType": "address",
              "name": "baseAsset",
              "type": "address"
            },
            {
              "internalType": "address",
              "name": "quoteAsset",
              "type": "address"
            },
            {
              "internalType": "address",
              "name": "matcherFeeAsset",
              "type": "address"
            },
            {
              "internalType": "uint64",
              "name": "amount",
              "type": "uint64"
            },
            {
              "internalType": "uint64",
              "name": "price",
              "type": "uint64"
            },
            {
              "internalType": "uint64",
              "name": "matcherFee",
              "type": "uint64"
            },
            {
              "internalType": "uint64",
              "name": "nonce",
              "type": "uint64"
            },
            {
              "internalType": "uint64",
              "name": "expiration",
              "type": "uint64"
            },
            {
              "internalType": "string",
              "name": "side",
              "type": "string"
            }
          ],
          "internalType": "struct Exchange.Order",
          "name": "buyOrder",
          "type": "tuple"
        },
        {
          "components": [
            {
              "internalType": "address",
              "name": "senderAddress",
              "type": "address"
            },
            {
              "internalType": "address",
              "name": "matcherAddress",
              "type": "address"
            },
            {
              "internalType": "address",
              "name": "baseAsset",
              "type": "address"
            },
            {
              "internalType": "address",
              "name": "quoteAsset",
              "type": "address"
            },
            {
              "internalType": "address",
              "name": "matcherFeeAsset",
              "type": "address"
            },
            {
              "internalType": "uint64",
              "name": "amount",
              "type": "uint64"
            },
            {
              "internalType": "uint64",
              "name": "price",
              "type": "uint64"
            },
            {
              "internalType": "uint64",
              "name": "matcherFee",
              "type": "uint64"
            },
            {
              "internalType": "uint64",
              "name": "nonce",
              "type": "uint64"
            },
            {
              "internalType": "uint64",
              "name": "expiration",
              "type": "uint64"
            },
            {
              "internalType": "string",
              "name": "side",
              "type": "string"
            }
          ],
          "internalType": "struct Exchange.Order",
          "name": "sellOrder",
          "type": "tuple"
        },
        {
          "components": [
            {
              "internalType": "bytes32",
              "name": "r",
              "type": "bytes32"
            },
            {
              "internalType": "bytes32",
              "name": "s",
              "type": "bytes32"
            },
            {
              "internalType": "uint8",
              "name": "v",
              "type": "uint8"
            }
          ],
          "internalType": "struct Exchange.Signature",
          "name": "buySig",
          "type": "tuple"
        },
        {
          "components": [
            {
              "internalType": "bytes32",
              "name": "r",
              "type": "bytes32"
            },
            {
              "internalType": "bytes32",
              "name": "s",
              "type": "bytes32"
            },
            {
              "internalType": "uint8",
              "name": "v",
              "type": "uint8"
            }
          ],
          "internalType": "struct Exchange.Signature",
          "name": "sellSig",
          "type": "tuple"
        },
        {
          "internalType": "uint256",
          "name": "filledPrice",
          "type": "uint256"
        },
        {
          "internalType": "uint256",
          "name": "filledAmount",
          "type": "uint256"
        }
      ],
      "name": "fillOrders",
      "outputs": [],
      "payable": false,
      "stateMutability": "nonpayable",
      "type": "function",
      "signature": "0x98020631"
    },
    {
      "constant": false,
      "inputs": [
        {
          "components": [
            {
              "internalType": "address",
              "name": "senderAddress",
              "type": "address"
            },
            {
              "internalType": "address",
              "name": "matcherAddress",
              "type": "address"
            },
            {
              "internalType": "address",
              "name": "baseAsset",
              "type": "address"
            },
            {
              "internalType": "address",
              "name": "quoteAsset",
              "type": "address"
            },
            {
              "internalType": "address",
              "name": "matcherFeeAsset",
              "type": "address"
            },
            {
              "internalType": "uint64",
              "name": "amount",
              "type": "uint64"
            },
            {
              "internalType": "uint64",
              "name": "price",
              "type": "uint64"
            },
            {
              "internalType": "uint64",
              "name": "matcherFee",
              "type": "uint64"
            },
            {
              "internalType": "uint64",
              "name": "nonce",
              "type": "uint64"
            },
            {
              "internalType": "uint64",
              "name": "expiration",
              "type": "uint64"
            },
            {
              "internalType": "string",
              "name": "side",
              "type": "string"
            }
          ],
          "internalType": "struct Exchange.Order",
          "name": "order",
          "type": "tuple"
        },
        {
          "components": [
            {
              "internalType": "bytes32",
              "name": "r",
              "type": "bytes32"
            },
            {
              "internalType": "bytes32",
              "name": "s",
              "type": "bytes32"
            },
            {
              "internalType": "uint8",
              "name": "v",
              "type": "uint8"
            }
          ],
          "internalType": "struct Exchange.Signature",
          "name": "sig",
          "type": "tuple"
        }
      ],
      "name": "isValidSignature",
      "outputs": [
        {
          "internalType": "bool",
          "name": "",
          "type": "bool"
        }
      ],
      "payable": false,
      "stateMutability": "nonpayable",
      "type": "function",
      "signature": "0xcbd43204"
    },
    {
      "constant": false,
      "inputs": [
        {
          "components": [
            {
              "internalType": "address",
              "name": "senderAddress",
              "type": "address"
            },
            {
              "internalType": "address",
              "name": "matcherAddress",
              "type": "address"
            },
            {
              "internalType": "address",
              "name": "baseAsset",
              "type": "address"
            },
            {
              "internalType": "address",
              "name": "quoteAsset",
              "type": "address"
            },
            {
              "internalType": "address",
              "name": "matcherFeeAsset",
              "type": "address"
            },
            {
              "internalType": "uint64",
              "name": "amount",
              "type": "uint64"
            },
            {
              "internalType": "uint64",
              "name": "price",
              "type": "uint64"
            },
            {
              "internalType": "uint64",
              "name": "matcherFee",
              "type": "uint64"
            },
            {
              "internalType": "uint64",
              "name": "nonce",
              "type": "uint64"
            },
            {
              "internalType": "uint64",
              "name": "expiration",
              "type": "uint64"
            },
            {
              "internalType": "string",
              "name": "side",
              "type": "string"
            }
          ],
          "internalType": "struct Exchange.Order",
          "name": "order",
          "type": "tuple"
        }
      ],
      "name": "cancelOrder",
      "outputs": [],
      "payable": false,
      "stateMutability": "nonpayable",
      "type": "function",
      "signature": "0x34d9aa56"
    },
    {
      "constant": false,
      "inputs": [
        {
          "internalType": "bool",
          "name": "newState",
          "type": "bool"
        }
      ],
      "name": "updateContractState",
      "outputs": [],
      "payable": false,
      "stateMutability": "nonpayable",
      "type": "function",
      "signature": "0x2fa68b32"
    }
  ],
  "bytecode": "0x60806040526001600760006101000a81548160ff021916908315150217905550336000806101000a81548173ffffffffffffffffffffffffffffffffffffffff021916908373ffffffffffffffffffffffffffffffffffffffff1602179055506000809054906101000a900473ffffffffffffffffffffffffffffffffffffffff1673ffffffffffffffffffffffffffffffffffffffff16600073ffffffffffffffffffffffffffffffffffffffff167f8be0079c531659141344cd1fd0a4f28419497f9722a3daafe3b4186f6b6457e060405160405180910390a361407c806100ea6000396000f3fe608060405260043610610147576000357c0100000000000000000000000000000000000000000000000000000000900480638f32d59b116100c8578063cdfd441e1161008c578063cdfd441e146103f5578063d1c0702814610420578063d4fac45d1461045d578063e275c9971461049a578063f2fde38b146104c5578063f3fef3a3146104ee57610147565b80638f32d59b146102ea5780639802063114610315578063bdfce5bf1461033e578063c7bc8b201461037b578063cbd43204146103b857610147565b806350ef1f5d1161010f57806350ef1f5d14610222578063715018a61461026157806376a207b8146102785780638da5cb5b146102825780638f13f48e146102ad57610147565b80631d8344091461014c5780632fa68b321461017757806334d9aa56146101a057806343249606146101c957806346a5d04314610206575b600080fd5b34801561015857600080fd5b50610161610517565b60405161016e9190613c8e565b60405180910390f35b34801561018357600080fd5b5061019e60048036036101999190810190612c29565b61051d565b005b3480156101ac57600080fd5b506101c760048036036101c29190810190612ce0565b6105d7565b005b3480156101d557600080fd5b506101f060048036036101eb9190810190612b5d565b610641565b6040516101fd9190613ca9565b60405180910390f35b610220600480360361021b9190810190612b5d565b61078c565b005b34801561022e57600080fd5b5061024960048036036102449190810190612ca4565b610a5c565b60405161025893929190613917565b60405180910390f35b34801561026d57600080fd5b50610276610aad565b005b610280610bb3565b005b34801561028e57600080fd5b50610297610dd6565b6040516102a4919061380c565b60405180910390f35b3480156102b957600080fd5b506102d460048036036102cf9190810190612c7b565b610dff565b6040516102e191906138a9565b60405180910390f35b3480156102f657600080fd5b506102ff610e1f565b60405161030c91906138a9565b60405180910390f35b34801561032157600080fd5b5061033c60048036036103379190810190612d21565b610e76565b005b34801561034a57600080fd5b5061036560048036036103609190810190612b21565b6116a8565b6040516103729190613c8e565b60405180910390f35b34801561038757600080fd5b506103a2600480360361039d9190810190612b99565b6116cd565b6040516103af9190613c8e565b60405180910390f35b3480156103c457600080fd5b506103df60048036036103da9190810190612ddd565b611829565b6040516103ec91906138a9565b60405180910390f35b34801561040157600080fd5b5061040a611890565b6040516104179190613993565b60405180910390f35b34801561042c57600080fd5b5061044760048036036104429190810190612bd5565b6118b6565b6040516104549190613887565b60405180910390f35b34801561046957600080fd5b50610484600480360361047f9190810190612b21565b6119bb565b6040516104919190613c8e565b60405180910390f35b3480156104a657600080fd5b506104af611a42565b6040516104bc9190613c8e565b60405180910390f35b3480156104d157600080fd5b506104ec60048036036104e79190810190612af8565b611a48565b005b3480156104fa57600080fd5b5061051560048036036105109190810190612b5d565b611a9b565b005b60055481565b610525610e1f565b610564576040517f08c379a000000000000000000000000000000000000000000000000000000000815260040161055b90613b8e565b60405180910390fd5b801515600760009054906101000a900460ff16151514156105ba576040517f08c379a00000000000000000000000000000000000000000000000000000000081526004016105b190613b2e565b60405180910390fd5b80600760006101000a81548160ff02191690831515021790555050565b60006105e282611e5b565b905060016004600083815260200190815260200160002060006101000a81548160ff021916908315150217905550807f5152abf959f6564662358c2e52b702259b78bac5ee7842a0f01937e670efcc7d60405160405180910390a25050565b60008073ffffffffffffffffffffffffffffffffffffffff168373ffffffffffffffffffffffffffffffffffffffff1614156106af576106a8670de0b6b3a764000061069a6305f5e1008561201d90919063ffffffff16565b61208d90919063ffffffff16565b9050610786565b600083905060008173ffffffffffffffffffffffffffffffffffffffff1663313ce5676040518163ffffffff167c010000000000000000000000000000000000000000000000000000000002815260040160206040518083038186803b15801561071857600080fd5b505afa15801561072c573d6000803e3d6000fd5b505050506040513d601f19601f820116820180604052506107509190810190612e31565b60ff16905061078181600a0a6107736305f5e1008761201d90919063ffffffff16565b61208d90919063ffffffff16565b925050505b92915050565b600760009054906101000a900460ff166107db576040517f08c379a00000000000000000000000000000000000000000000000000000000081526004016107d290613a2e565b60405180910390fd5b60008290508073ffffffffffffffffffffffffffffffffffffffff166323b872dd3330856040518463ffffffff167c010000000000000000000000000000000000000000000000000000000002815260040161083993929190613827565b602060405180830381600087803b15801561085357600080fd5b505af1158015610867573d6000803e3d6000fd5b505050506040513d601f19601f8201168201806040525061088b9190810190612c52565b6108ca576040517f08c379a00000000000000000000000000000000000000000000000000000000081526004016108c190613bce565b60405180910390fd5b60006108d68484610641565b67ffffffffffffffff16905061097181600360003373ffffffffffffffffffffffffffffffffffffffff1673ffffffffffffffffffffffffffffffffffffffff16815260200190815260200160002060008773ffffffffffffffffffffffffffffffffffffffff1673ffffffffffffffffffffffffffffffffffffffff168152602001908152602001600020546120e990919063ffffffff16565b600360003373ffffffffffffffffffffffffffffffffffffffff1673ffffffffffffffffffffffffffffffffffffffff16815260200190815260200160002060008673ffffffffffffffffffffffffffffffffffffffff1673ffffffffffffffffffffffffffffffffffffffff168152602001908152602001600020819055508373ffffffffffffffffffffffffffffffffffffffff163373ffffffffffffffffffffffffffffffffffffffff167f87e95ee7cdd8ce169873b1be6add255c13ec04051d493c3346c1e705a849e62083604051610a4e9190613c8e565b60405180910390a350505050565b60026020528160005260406000208181548110610a7557fe5b9060005260206000209060030201600091509150508060000154908060010160009054906101000a900460ff16908060020154905083565b610ab5610e1f565b610af4576040517f08c379a0000000000000000000000000000000000000000000000000000000008152600401610aeb90613b8e565b60405180910390fd5b600073ffffffffffffffffffffffffffffffffffffffff166000809054906101000a900473ffffffffffffffffffffffffffffffffffffffff1673ffffffffffffffffffffffffffffffffffffffff167f8be0079c531659141344cd1fd0a4f28419497f9722a3daafe3b4186f6b6457e060405160405180910390a360008060006101000a81548173ffffffffffffffffffffffffffffffffffffffff021916908373ffffffffffffffffffffffffffffffffffffffff160217905550565b600760009054906101000a900460ff16610c02576040517f08c379a0000000000000000000000000000000000000000000000000000000008152600401610bf990613a2e565b60405180910390fd5b60003411610c45576040517f08c379a0000000000000000000000000000000000000000000000000000000008152600401610c3c90613c6e565b60405180910390fd5b6000610c52600034610641565b67ffffffffffffffff169050610ced81600360003373ffffffffffffffffffffffffffffffffffffffff1673ffffffffffffffffffffffffffffffffffffffff16815260200190815260200160002060008073ffffffffffffffffffffffffffffffffffffffff1673ffffffffffffffffffffffffffffffffffffffff168152602001908152602001600020546120e990919063ffffffff16565b600360003373ffffffffffffffffffffffffffffffffffffffff1673ffffffffffffffffffffffffffffffffffffffff16815260200190815260200160002060008073ffffffffffffffffffffffffffffffffffffffff1673ffffffffffffffffffffffffffffffffffffffff16815260200190815260200160002081905550600073ffffffffffffffffffffffffffffffffffffffff163373ffffffffffffffffffffffffffffffffffffffff167f87e95ee7cdd8ce169873b1be6add255c13ec04051d493c3346c1e705a849e62083604051610dcb9190613c8e565b60405180910390a350565b60008060009054906101000a900473ffffffffffffffffffffffffffffffffffffffff16905090565b60046020528060005260406000206000915054906101000a900460ff1681565b60008060009054906101000a900473ffffffffffffffffffffffffffffffffffffffff1673ffffffffffffffffffffffffffffffffffffffff163373ffffffffffffffffffffffffffffffffffffffff1614905090565b600760009054906101000a900460ff16610ec5576040517f08c379a0000000000000000000000000000000000000000000000000000000008152600401610ebc90613a2e565b60405180910390fd5b610ecf8685611829565b610f0e576040517f08c379a0000000000000000000000000000000000000000000000000000000008152600401610f0590613c4e565b60405180910390fd5b610f188584611829565b610f57576040517f08c379a0000000000000000000000000000000000000000000000000000000008152600401610f4e90613c2e565b60405180910390fd5b3373ffffffffffffffffffffffffffffffffffffffff16866020015173ffffffffffffffffffffffffffffffffffffffff16148015610fc557503373ffffffffffffffffffffffffffffffffffffffff16856020015173ffffffffffffffffffffffffffffffffffffffff16145b611004576040517f08c379a0000000000000000000000000000000000000000000000000000000008152600401610ffb90613bae565b60405180910390fd5b846040015173ffffffffffffffffffffffffffffffffffffffff16866040015173ffffffffffffffffffffffffffffffffffffffff1614801561107a5750846060015173ffffffffffffffffffffffffffffffffffffffff16866060015173ffffffffffffffffffffffffffffffffffffffff16145b6110b9576040517f08c379a00000000000000000000000000000000000000000000000000000000081526004016110b090613aae565b60405180910390fd5b8560c0015167ffffffffffffffff1682111561110a576040517f08c379a000000000000000000000000000000000000000000000000000000000815260040161110190613a6e565b60405180910390fd5b8460c0015167ffffffffffffffff1682101561115b576040517f08c379a000000000000000000000000000000000000000000000000000000000815260040161115290613c0e565b60405180910390fd5b426111806103e888610120015167ffffffffffffffff1661208d90919063ffffffff16565b10156111c1576040517f08c379a00000000000000000000000000000000000000000000000000000000081526004016111b890613b6e565b60405180910390fd5b426111e66103e887610120015167ffffffffffffffff1661208d90919063ffffffff16565b1015611227576040517f08c379a000000000000000000000000000000000000000000000000000000000815260040161121e90613b0e565b60405180910390fd5b60006112526305f5e100611244858561201d90919063ffffffff16565b61208d90919063ffffffff16565b905060008760000151905060008760000151905082600360008473ffffffffffffffffffffffffffffffffffffffff1673ffffffffffffffffffffffffffffffffffffffff16815260200190815260200160002060008b6060015173ffffffffffffffffffffffffffffffffffffffff1673ffffffffffffffffffffffffffffffffffffffff168152602001908152602001600020541015611329576040517f08c379a000000000000000000000000000000000000000000000000000000000815260040161132090613aee565b60405180910390fd5b60006113348a611e5b565b90506004600082815260200190815260200160002060009054906101000a900460ff1615611397576040517f08c379a000000000000000000000000000000000000000000000000000000000815260040161138e90613a4e565b60405180910390fd5b84600360008473ffffffffffffffffffffffffffffffffffffffff1673ffffffffffffffffffffffffffffffffffffffff16815260200190815260200160002060008b6040015173ffffffffffffffffffffffffffffffffffffffff1673ffffffffffffffffffffffffffffffffffffffff16815260200190815260200160002054101561145a576040517f08c379a0000000000000000000000000000000000000000000000000000000008152600401611451906139ae565b60405180910390fd5b60006114658a611e5b565b90506004600082815260200190815260200160002060009054906101000a900460ff16156114c8576040517f08c379a00000000000000000000000000000000000000000000000000000000081526004016114bf90613a4e565b60405180910390fd5b6114de84848d604001518e606001518a8a61213e565b6114f460016006546120e990919063ffffffff16565b6006819055506115026127ca565b60405180606001604052808481526020016000600481111561152057fe5b81526020018881525090506002600084815260200190815260200160002081908060018154018082558091505090600182039060005260206000209060030201600090919290919091506000820151816000015560208201518160010160006101000a81548160ff0219169083600481111561159857fe5b0217905550604082015181600201555050506115b26127ca565b6040518060600160405280848152602001600060048111156115d057fe5b81526020018981525090506002600084815260200190815260200160002081908060018154018082558091505090600182039060005260206000209060030201600090919290919091506000820151816000015560208201518160010160006101000a81548160ff0219169083600481111561164857fe5b0217905550604082015181600201555050507fb6cd6c67a54af9431b22579bc0ca8767337fe44be7dfa5107eda536a1e5edb2484848b8b8b6040516116919594939291906138c4565b60405180910390a150505050505050505050505050565b6003602052816000526040600020602052806000526040600020600091509150505481565b6000808267ffffffffffffffff169050600073ffffffffffffffffffffffffffffffffffffffff168473ffffffffffffffffffffffffffffffffffffffff16141561174b576117436305f5e100611735670de0b6b3a76400008461201d90919063ffffffff16565b61208d90919063ffffffff16565b915050611823565b600084905060008173ffffffffffffffffffffffffffffffffffffffff1663313ce5676040518163ffffffff167c010000000000000000000000000000000000000000000000000000000002815260040160206040518083038186803b1580156117b457600080fd5b505afa1580156117c8573d6000803e3d6000fd5b505050506040513d601f19601f820116820180604052506117ec9190810190612e31565b60ff16905061181d6305f5e10061180f83600a0a8661201d90919063ffffffff16565b61208d90919063ffffffff16565b93505050505b92915050565b60008061183584611e5b565b9050600061185182856040015186600001518760200151612582565b9050846000015173ffffffffffffffffffffffffffffffffffffffff168173ffffffffffffffffffffffffffffffffffffffff16149250505092915050565b600160009054906101000a900473ffffffffffffffffffffffffffffffffffffffff1681565b60608083516040519080825280602002602001820160405280156118e95781602001602082028038833980820191505090505b50905060008090505b84518110156119b057600360008573ffffffffffffffffffffffffffffffffffffffff1673ffffffffffffffffffffffffffffffffffffffff168152602001908152602001600020600086838151811061194857fe5b602002602001015173ffffffffffffffffffffffffffffffffffffffff1673ffffffffffffffffffffffffffffffffffffffff1681526020019081526020016000205482828151811061199757fe5b60200260200101818152505080806001019150506118f2565b508091505092915050565b6000600360008373ffffffffffffffffffffffffffffffffffffffff1673ffffffffffffffffffffffffffffffffffffffff16815260200190815260200160002060008473ffffffffffffffffffffffffffffffffffffffff1673ffffffffffffffffffffffffffffffffffffffff16815260200190815260200160002054905092915050565b60065481565b611a50610e1f565b611a8f576040517f08c379a0000000000000000000000000000000000000000000000000000000008152600401611a8690613b8e565b60405180910390fd5b611a9881612646565b50565b6000611aa78383610641565b67ffffffffffffffff16905080600360003373ffffffffffffffffffffffffffffffffffffffff1673ffffffffffffffffffffffffffffffffffffffff16815260200190815260200160002060008573ffffffffffffffffffffffffffffffffffffffff1673ffffffffffffffffffffffffffffffffffffffff168152602001908152602001600020541015611b72576040517f08c379a0000000000000000000000000000000000000000000000000000000008152600401611b6990613bee565b60405180910390fd5b611c0181600360003373ffffffffffffffffffffffffffffffffffffffff1673ffffffffffffffffffffffffffffffffffffffff16815260200190815260200160002060008673ffffffffffffffffffffffffffffffffffffffff1673ffffffffffffffffffffffffffffffffffffffff1681526020019081526020016000205461277490919063ffffffff16565b600360003373ffffffffffffffffffffffffffffffffffffffff1673ffffffffffffffffffffffffffffffffffffffff16815260200190815260200160002060008573ffffffffffffffffffffffffffffffffffffffff1673ffffffffffffffffffffffffffffffffffffffff16815260200190815260200160002081905550600073ffffffffffffffffffffffffffffffffffffffff168373ffffffffffffffffffffffffffffffffffffffff161415611d02573373ffffffffffffffffffffffffffffffffffffffff166108fc839081150290604051600060405180830381858888f19350505050158015611cfc573d6000803e3d6000fd5b50611df1565b60008390508073ffffffffffffffffffffffffffffffffffffffff1663a9059cbb33856040518363ffffffff167c0100000000000000000000000000000000000000000000000000000000028152600401611d5e92919061385e565b602060405180830381600087803b158015611d7857600080fd5b505af1158015611d8c573d6000803e3d6000fd5b505050506040513d601f19601f82011682018060405250611db09190810190612c52565b611def576040517f08c379a0000000000000000000000000000000000000000000000000000000008152600401611de6906139ce565b60405180910390fd5b505b8273ffffffffffffffffffffffffffffffffffffffff163373ffffffffffffffffffffffffffffffffffffffff167f29f9103583c97b319d05287c41c024d7219f7217e16ca5f4066a7c2019cd2fd883604051611e4e9190613c8e565b60405180910390a3505050565b600080604051602001611e6d906137f7565b60405160208183030381529060405280519060200120905060037f010000000000000000000000000000000000000000000000000000000000000002836000015184602001518560400151866060015187608001518860a001517801000000000000000000000000000000000000000000000000028960c001517801000000000000000000000000000000000000000000000000028a60e001517801000000000000000000000000000000000000000000000000028b61010001517801000000000000000000000000000000000000000000000000028c61012001517801000000000000000000000000000000000000000000000000028b8e6101400151604051602001611f7b91906137e0565b6040516020818303038152906040528051906020012014611fbf5760017f010000000000000000000000000000000000000000000000000000000000000002611fe4565b60007f0100000000000000000000000000000000000000000000000000000000000000025b604051602001611fff9c9b9a999897969594939291906136e2565b60405160208183030381529060405280519060200120915050919050565b6000808314156120305760009050612087565b600082840290508284828161204157fe5b0414612082576040517f08c379a000000000000000000000000000000000000000000000000000000000815260040161207990613b4e565b60405180910390fd5b809150505b92915050565b60008082116120d1576040517f08c379a00000000000000000000000000000000000000000000000000000000081526004016120c890613ace565b60405180910390fd5b60008284816120dc57fe5b0490508091505092915050565b600080828401905083811015612134576040517f08c379a000000000000000000000000000000000000000000000000000000000815260040161212b90613a0e565b60405180910390fd5b8091505092915050565b6121cd81600360008973ffffffffffffffffffffffffffffffffffffffff1673ffffffffffffffffffffffffffffffffffffffff16815260200190815260200160002060008673ffffffffffffffffffffffffffffffffffffffff1673ffffffffffffffffffffffffffffffffffffffff1681526020019081526020016000205461277490919063ffffffff16565b600360008873ffffffffffffffffffffffffffffffffffffffff1673ffffffffffffffffffffffffffffffffffffffff16815260200190815260200160002060008573ffffffffffffffffffffffffffffffffffffffff1673ffffffffffffffffffffffffffffffffffffffff168152602001908152602001600020819055506122dc82600360008973ffffffffffffffffffffffffffffffffffffffff1673ffffffffffffffffffffffffffffffffffffffff16815260200190815260200160002060008773ffffffffffffffffffffffffffffffffffffffff1673ffffffffffffffffffffffffffffffffffffffff168152602001908152602001600020546120e990919063ffffffff16565b600360008873ffffffffffffffffffffffffffffffffffffffff1673ffffffffffffffffffffffffffffffffffffffff16815260200190815260200160002060008673ffffffffffffffffffffffffffffffffffffffff1673ffffffffffffffffffffffffffffffffffffffff168152602001908152602001600020819055506123eb81600360008873ffffffffffffffffffffffffffffffffffffffff1673ffffffffffffffffffffffffffffffffffffffff16815260200190815260200160002060008673ffffffffffffffffffffffffffffffffffffffff1673ffffffffffffffffffffffffffffffffffffffff168152602001908152602001600020546120e990919063ffffffff16565b600360008773ffffffffffffffffffffffffffffffffffffffff1673ffffffffffffffffffffffffffffffffffffffff16815260200190815260200160002060008573ffffffffffffffffffffffffffffffffffffffff1673ffffffffffffffffffffffffffffffffffffffff168152602001908152602001600020819055506124fa82600360008873ffffffffffffffffffffffffffffffffffffffff1673ffffffffffffffffffffffffffffffffffffffff16815260200190815260200160002060008773ffffffffffffffffffffffffffffffffffffffff1673ffffffffffffffffffffffffffffffffffffffff1681526020019081526020016000205461277490919063ffffffff16565b600360008773ffffffffffffffffffffffffffffffffffffffff1673ffffffffffffffffffffffffffffffffffffffff16815260200190815260200160002060008673ffffffffffffffffffffffffffffffffffffffff1673ffffffffffffffffffffffffffffffffffffffff16815260200190815260200160002081905550505050505050565b600060606040518060400160405280601c81526020017f19457468657265756d205369676e6564204d6573736167653a0a3332000000008152509050600081876040516020016125d39291906137b8565b6040516020818303038152906040528051906020012090506001818787876040516000815260200160405260405161260e949392919061394e565b6020604051602081039080840390855afa158015612630573d6000803e3d6000fd5b5050506020604051035192505050949350505050565b600073ffffffffffffffffffffffffffffffffffffffff168173ffffffffffffffffffffffffffffffffffffffff1614156126b6576040517f08c379a00000000000000000000000000000000000000000000000000000000081526004016126ad906139ee565b60405180910390fd5b8073ffffffffffffffffffffffffffffffffffffffff166000809054906101000a900473ffffffffffffffffffffffffffffffffffffffff1673ffffffffffffffffffffffffffffffffffffffff167f8be0079c531659141344cd1fd0a4f28419497f9722a3daafe3b4186f6b6457e060405160405180910390a3806000806101000a81548173ffffffffffffffffffffffffffffffffffffffff021916908373ffffffffffffffffffffffffffffffffffffffff16021790555050565b6000828211156127b9576040517f08c379a00000000000000000000000000000000000000000000000000000000081526004016127b090613a8e565b60405180910390fd5b600082840390508091505092915050565b604051806060016040528060008019168152602001600060048111156127ec57fe5b8152602001600081525090565b60008135905061280881613faf565b92915050565b600082601f83011261281f57600080fd5b813561283261282d82613cf1565b613cc4565b9150818183526020840193506020810190508385602084028201111561285757600080fd5b60005b83811015612887578161286d88826127f9565b84526020840193506020830192505060018101905061285a565b5050505092915050565b6000813590506128a081613fc6565b92915050565b6000815190506128b581613fc6565b92915050565b6000813590506128ca81613fdd565b92915050565b600082601f8301126128e157600080fd5b81356128f46128ef82613d19565b613cc4565b9150808252602083016020830185838301111561291057600080fd5b61291b838284613f05565b50505092915050565b6000610160828403121561293757600080fd5b612942610160613cc4565b90506000612952848285016127f9565b6000830152506020612966848285016127f9565b602083015250604061297a848285016127f9565b604083015250606061298e848285016127f9565b60608301525060806129a2848285016127f9565b60808301525060a06129b684828501612ab9565b60a08301525060c06129ca84828501612ab9565b60c08301525060e06129de84828501612ab9565b60e0830152506101006129f384828501612ab9565b61010083015250610120612a0984828501612ab9565b6101208301525061014082013567ffffffffffffffff811115612a2b57600080fd5b612a37848285016128d0565b6101408301525092915050565b600060608284031215612a5657600080fd5b612a606060613cc4565b90506000612a70848285016128bb565b6000830152506020612a84848285016128bb565b6020830152506040612a9884828501612ace565b60408301525092915050565b600081359050612ab381613ff4565b92915050565b600081359050612ac88161400b565b92915050565b600081359050612add81614022565b92915050565b600081519050612af281614022565b92915050565b600060208284031215612b0a57600080fd5b6000612b18848285016127f9565b91505092915050565b60008060408385031215612b3457600080fd5b6000612b42858286016127f9565b9250506020612b53858286016127f9565b9150509250929050565b60008060408385031215612b7057600080fd5b6000612b7e858286016127f9565b9250506020612b8f85828601612aa4565b9150509250929050565b60008060408385031215612bac57600080fd5b6000612bba858286016127f9565b9250506020612bcb85828601612ab9565b9150509250929050565b60008060408385031215612be857600080fd5b600083013567ffffffffffffffff811115612c0257600080fd5b612c0e8582860161280e565b9250506020612c1f858286016127f9565b9150509250929050565b600060208284031215612c3b57600080fd5b6000612c4984828501612891565b91505092915050565b600060208284031215612c6457600080fd5b6000612c72848285016128a6565b91505092915050565b600060208284031215612c8d57600080fd5b6000612c9b848285016128bb565b91505092915050565b60008060408385031215612cb757600080fd5b6000612cc5858286016128bb565b9250506020612cd685828601612aa4565b9150509250929050565b600060208284031215612cf257600080fd5b600082013567ffffffffffffffff811115612d0c57600080fd5b612d1884828501612924565b91505092915050565b6000806000806000806101408789031215612d3b57600080fd5b600087013567ffffffffffffffff811115612d5557600080fd5b612d6189828a01612924565b965050602087013567ffffffffffffffff811115612d7e57600080fd5b612d8a89828a01612924565b9550506040612d9b89828a01612a44565b94505060a0612dac89828a01612a44565b935050610100612dbe89828a01612aa4565b925050610120612dd089828a01612aa4565b9150509295509295509295565b60008060808385031215612df057600080fd5b600083013567ffffffffffffffff811115612e0a57600080fd5b612e1685828601612924565b9250506020612e2785828601612a44565b9150509250929050565b600060208284031215612e4357600080fd5b6000612e5184828501612ae3565b91505092915050565b6000612e6683836136a6565b60208301905092915050565b612e7b81613e99565b82525050565b612e8a81613dbb565b82525050565b612ea1612e9c82613dbb565b613f47565b82525050565b6000612eb282613d55565b612ebc8185613d83565b9350612ec783613d45565b8060005b83811015612ef8578151612edf8882612e5a565b9750612eea83613d76565b925050600181019050612ecb565b5085935050505092915050565b612f0e81613dcd565b82525050565b612f25612f2082613dd9565b613f59565b82525050565b612f3481613e05565b82525050565b612f4b612f4682613e05565b613f63565b82525050565b612f62612f5d82613e0f565b613f6d565b82525050565b6000612f7382613d60565b612f7d8185613d94565b9350612f8d818560208601613f14565b80840191505092915050565b612fa281613eab565b82525050565b612fb181613ecf565b82525050565b6000612fc282613d6b565b612fcc8185613db0565b9350612fdc818560208601613f14565b80840191505092915050565b6000612ff5601d83613d9f565b91507f696e73756666696369656e742073656c6c657227732062616c616e63650000006000830152602082019050919050565b6000613035601f83613d9f565b91507f6572726f72207472616e73666572696e672066756e647320746f2075736572006000830152602082019050919050565b6000613075602683613d9f565b91507f4f776e61626c653a206e6577206f776e657220697320746865207a65726f206160008301527f64647265737300000000000000000000000000000000000000000000000000006020830152604082019050919050565b60006130db601b83613d9f565b91507f536166654d6174683a206164646974696f6e206f766572666c6f7700000000006000830152602082019050919050565b600061311b601683613d9f565b91507f636f6e7472616374206973206e6f7420616374697665000000000000000000006000830152602082019050919050565b600061315b601783613d9f565b91507f627579206f72646572207761732063616e63656c6c65640000000000000000006000830152602082019050919050565b600061319b602483613d9f565b91507f696e636f72726563742066696c6c656420707269636520666f7220627579206f60008301527f72646572000000000000000000000000000000000000000000000000000000006020830152604082019050919050565b6000613201601e83613d9f565b91507f536166654d6174683a207375627472616374696f6e206f766572666c6f7700006000830152602082019050919050565b6000613241601383613d9f565b91507f61737365747320646f206e6f74206d61746368000000000000000000000000006000830152602082019050919050565b6000613281601a83613d9f565b91507f536166654d6174683a206469766973696f6e206279207a65726f0000000000006000830152602082019050919050565b60006132c1600383613db0565b91507f62757900000000000000000000000000000000000000000000000000000000006000830152600382019050919050565b6000613301601c83613d9f565b91507f696e73756666696369656e7420627579657227732062616c616e6365000000006000830152602082019050919050565b6000613341601283613d9f565b91507f73656c6c206f72646572206578706972656400000000000000000000000000006000830152602082019050919050565b6000613381601583613d9f565b91507f73616d652061732063757272656e7420737461746500000000000000000000006000830152602082019050919050565b60006133c1602183613d9f565b91507f536166654d6174683a206d756c7469706c69636174696f6e206f766572666c6f60008301527f77000000000000000000000000000000000000000000000000000000000000006020830152604082019050919050565b6000613427601183613d9f565b91507f627579206f7264657220657870697265640000000000000000000000000000006000830152602082019050919050565b6000613467602083613d9f565b91507f4f776e61626c653a2063616c6c6572206973206e6f7420746865206f776e65726000830152602082019050919050565b60006134a7601983613d9f565b91507f696e636f7272656374206d6174636865722061646472657373000000000000006000830152602082019050919050565b60006134e7602383613d9f565b91507f6572726f72207472616e73666572696e6720617373657420746f20657863686160008301527f6e676500000000000000000000000000000000000000000000000000000000006020830152604082019050919050565b600061354d601c83613d9f565b91507f6e6f7420656e6f7567682066756e647320746f207769746864726177000000006000830152602082019050919050565b600061358d602583613d9f565b91507f696e636f72726563742066696c6c656420707269636520666f722073656c6c2060008301527f6f726465720000000000000000000000000000000000000000000000000000006020830152604082019050919050565b60006135f3602083613d9f565b91507f496e76616c6964207369676e617475726520666f722053656c6c206f726465726000830152602082019050919050565b6000613633601f83613d9f565b91507f496e76616c6964207369676e617475726520666f7220427579206f72646572006000830152602082019050919050565b6000613673601383613d9f565b91507f696e76616c696420616d6f756e742073656e74000000000000000000000000006000830152602082019050919050565b6136af81613e6e565b82525050565b6136be81613e6e565b82525050565b6136cd81613e78565b82525050565b6136dc81613e8c565b82525050565b60006136ee828f612f14565b6001820191506136fe828e612e90565b60148201915061370e828d612e90565b60148201915061371e828c612e90565b60148201915061372e828b612e90565b60148201915061373e828a612e90565b60148201915061374e8289612f51565b60088201915061375e8288612f51565b60088201915061376e8287612f51565b60088201915061377e8286612f51565b60088201915061378e8285612f51565b60088201915061379e8284612f14565b6001820191508190509d9c50505050505050505050505050565b60006137c48285612f68565b91506137d08284612f3a565b6020820191508190509392505050565b60006137ec8284612fb7565b915081905092915050565b6000613802826132b4565b9150819050919050565b60006020820190506138216000830184612e81565b92915050565b600060608201905061383c6000830186612e72565b6138496020830185612e81565b61385660408301846136b5565b949350505050565b60006040820190506138736000830185612e72565b61388060208301846136b5565b9392505050565b600060208201905081810360008301526138a18184612ea7565b905092915050565b60006020820190506138be6000830184612f05565b92915050565b600060a0820190506138d96000830188612f2b565b6138e66020830187612f2b565b6138f360408301866136b5565b61390060608301856136b5565b61390d60808301846136b5565b9695505050505050565b600060608201905061392c6000830186612f2b565b6139396020830185612fa8565b61394660408301846136b5565b949350505050565b60006080820190506139636000830187612f2b565b61397060208301866136d3565b61397d6040830185612f2b565b61398a6060830184612f2b565b95945050505050565b60006020820190506139a86000830184612f99565b92915050565b600060208201905081810360008301526139c781612fe8565b9050919050565b600060208201905081810360008301526139e781613028565b9050919050565b60006020820190508181036000830152613a0781613068565b9050919050565b60006020820190508181036000830152613a27816130ce565b9050919050565b60006020820190508181036000830152613a478161310e565b9050919050565b60006020820190508181036000830152613a678161314e565b9050919050565b60006020820190508181036000830152613a878161318e565b9050919050565b60006020820190508181036000830152613aa7816131f4565b9050919050565b60006020820190508181036000830152613ac781613234565b9050919050565b60006020820190508181036000830152613ae781613274565b9050919050565b60006020820190508181036000830152613b07816132f4565b9050919050565b60006020820190508181036000830152613b2781613334565b9050919050565b60006020820190508181036000830152613b4781613374565b9050919050565b60006020820190508181036000830152613b67816133b4565b9050919050565b60006020820190508181036000830152613b878161341a565b9050919050565b60006020820190508181036000830152613ba78161345a565b9050919050565b60006020820190508181036000830152613bc78161349a565b9050919050565b60006020820190508181036000830152613be7816134da565b9050919050565b60006020820190508181036000830152613c0781613540565b9050919050565b60006020820190508181036000830152613c2781613580565b9050919050565b60006020820190508181036000830152613c47816135e6565b9050919050565b60006020820190508181036000830152613c6781613626565b9050919050565b60006020820190508181036000830152613c8781613666565b9050919050565b6000602082019050613ca360008301846136b5565b92915050565b6000602082019050613cbe60008301846136c4565b92915050565b6000604051905081810181811067ffffffffffffffff82111715613ce757600080fd5b8060405250919050565b600067ffffffffffffffff821115613d0857600080fd5b602082029050602081019050919050565b600067ffffffffffffffff821115613d3057600080fd5b601f19601f8301169050602081019050919050565b6000819050602082019050919050565b600081519050919050565b600081519050919050565b600081519050919050565b6000602082019050919050565b600082825260208201905092915050565b600081905092915050565b600082825260208201905092915050565b600081905092915050565b6000613dc682613e4e565b9050919050565b60008115159050919050565b60007fff0000000000000000000000000000000000000000000000000000000000000082169050919050565b6000819050919050565b60007fffffffffffffffff00000000000000000000000000000000000000000000000082169050919050565b6000819050613e4982613fa2565b919050565b600073ffffffffffffffffffffffffffffffffffffffff82169050919050565b6000819050919050565b600067ffffffffffffffff82169050919050565b600060ff82169050919050565b6000613ea482613ee1565b9050919050565b6000613eb682613ebd565b9050919050565b6000613ec882613e4e565b9050919050565b6000613eda82613e3b565b9050919050565b6000613eec82613ef3565b9050919050565b6000613efe82613e4e565b9050919050565b82818337600083830152505050565b60005b83811015613f32578082015181840152602081019050613f17565b83811115613f41576000848401525b50505050565b6000613f5282613f77565b9050919050565b6000819050919050565b6000819050919050565b6000819050919050565b6000613f8282613f89565b9050919050565b60006c0100000000000000000000000082029050919050565b60058110613fac57fe5b50565b613fb881613dbb565b8114613fc357600080fd5b50565b613fcf81613dcd565b8114613fda57600080fd5b50565b613fe681613e05565b8114613ff157600080fd5b50565b613ffd81613e6e565b811461400857600080fd5b50565b61401481613e78565b811461401f57600080fd5b50565b61402b81613e8c565b811461403657600080fd5b5056fea365627a7a7231582047f017ec8c41aae4b537f07f54d82341cca22c943dd2ea507ec3d14ae8c47a766c6578706572696d656e74616cf564736f6c634300050c0040",
  "source": "pragma solidity ^0.5.10;\npragma experimental ABIEncoderV2;\n\nimport '@openzeppelin/contracts/math/SafeMath.sol';\nimport '@openzeppelin/contracts/ownership/Ownable.sol';\nimport '@openzeppelin/contracts/token/ERC20/IERC20.sol';\nimport './Utils.sol';\n\n\n/**\n * @title Exchange\n * @dev Exchange contract for the Orion Protocol\n * @author @wafflemakr\n */\ncontract Exchange is Ownable, Utils{\n\n    using SafeMath for uint;\n    using SafeMath for uint64;\n\n    // EVENTS\n    event NewAssetDeposit(address indexed user, address indexed assetAddress, uint amount);\n    event NewAssetWithdrawl(address indexed user, address indexed assetAddress, uint amount);\n    event NewTrade(bytes32 buyOrderHash, bytes32 sellOrderHash, uint filledPrice, uint filledAmount, uint amountToTake);\n    event OrderCancelled(bytes32 indexed orderHash);\n\n\n    // GLOBAL VARIABLES\n\n    IERC20 public orion;\n\n    enum Status {NEW, PARTIALLY_FILLED, FILLED, PARTIALLY_CANCELLED, CANCELLED}\n\n    struct Order{\n        address senderAddress;\n        address matcherAddress;\n        address baseAsset;\n        address quoteAsset;\n        address matcherFeeAsset;\n        uint64 amount;\n        uint64 price;\n        uint64 matcherFee;\n        uint64 nonce;\n        uint64 expiration;\n        string side; // true = buy false = sell\n    }\n\n    struct Trade{\n        bytes32 orderHash;\n        Status orderStatus;\n        uint filledAmount;\n    }\n\n    struct Signature{\n        bytes32 r;\n        bytes32 s;\n        uint8 v ;\n    }\n\n    // Get trades by orderHash\n    mapping(bytes32 => Trade[]) public trades;\n\n    // Get user balance by address and asset address\n    mapping(address => mapping(address => uint)) public assetBalances;\n\n    // Check if an order was cancelled\n    mapping(bytes32 => bool) public cancelledOrders;\n\n    uint public totalOrders;\n    uint public totalTrades;\n    // Pause or unpause exchangebuyOrderHash\n    bool isActive = true;\n\n\n    // MODIFIERS\n\n    /**\n     * @dev prevents people from using the exchange if not active\n     */\n    modifier onlyActive() {\n        require(isActive, \"contract is not active\");\n        _;\n    }\n\n\n    // MAIN FUNCTIONS\n    /**\n     * @dev Deposit WAN or ERC20 tokens to the exchange contract\n     * @dev User needs to approve token contract first\n     * @param amount asset amount to deposit in its base unit\n     */\n    function depositAsset(address assetAddress, uint amount) public payable onlyActive{\n        IERC20 asset = IERC20(assetAddress);\n        require(asset.transferFrom(msg.sender, address(this), amount), \"error transfering asset to exchange\");\n\n        uint amountDecimal = baseUnitToDecimal(assetAddress, amount);\n\n        assetBalances[msg.sender][assetAddress] = assetBalances[msg.sender][assetAddress].add(amountDecimal);\n\n        emit NewAssetDeposit(msg.sender, assetAddress, amountDecimal);\n    }\n\n    /**\n     * @dev Deposit WAN to the exchange contract\n     */\n    function depositWan() public payable onlyActive{\n        require(msg.value > 0, \"invalid amount sent\");\n\n        uint amountDecimal = baseUnitToDecimal(address(0), msg.value);\n\n        assetBalances[msg.sender][address(0)] = assetBalances[msg.sender][address(0)].add(amountDecimal);\n\n        emit NewAssetDeposit(msg.sender, address(0), amountDecimal);\n    }\n\n    /**\n     * @dev Withdrawal of remaining funds from the contract back to the address\n     * @param amount asset amount to withdraw in its base unit\n     */\n    function withdraw(address assetAddress, uint amount) public{\n        uint amountDecimal = baseUnitToDecimal(assetAddress, amount);\n\n        require(assetBalances[msg.sender][assetAddress] >= amountDecimal, \"not enough funds to withdraw\");\n\n        assetBalances[msg.sender][assetAddress] = assetBalances[msg.sender][assetAddress].sub(amountDecimal);\n\n        if(assetAddress == address(0))\n            msg.sender.transfer(amount);\n        else{\n            IERC20 asset = IERC20(assetAddress);\n            require(asset.transfer(msg.sender, amount), \"error transfering funds to user\");\n        }\n\n        emit NewAssetWithdrawl(msg.sender, assetAddress, amountDecimal);\n    }\n\n\n    /**\n     * @dev Asset balance for a specific address\n     */\n    function getBalance(address assetAddress, address user) public view returns(uint assetBalance){\n        return assetBalances[user][assetAddress];\n    }\n\n    /**\n     * @dev Batch request of asset balances\n     */\n    function getBalances(address[] memory assetsAddresses, address user) public view returns(uint[] memory){\n        uint[] memory balances = new uint[](assetsAddresses.length);\n        for(uint i = 0; i < assetsAddresses.length; i++){\n            balances[i] = assetBalances[user][assetsAddresses[i]];\n        }\n        return balances;\n    }\n\n    /**\n     * @notice Settle a trade with two orders, filled price and amount\n     * @dev 2 orders are submitted, it is necessary to match them:\n        check conditions in orders for compliance filledPrice, filledAmountbuyOrderHash\n        change balances on the contract respectively with buyer, seller, matcbuyOrderHashher\n     * @param buyOrder structure of buy side orderbuyOrderHash\n     * @param sellOrder structure of sell side order\n     * @param filledPrice price at which the order was settled\n     * @param filledAmount amount settled between orders\n     */\n    function fillOrders(\n        Order memory buyOrder, Order memory sellOrder,\n        Signature memory buySig, Signature memory sellSig,\n        uint filledPrice, uint filledAmount\n    )\n        public onlyActive\n    {\n\n        // VALIDATE SIGNATURES\n        require(isValidSignature(buyOrder, buySig), \"Invalid signature for Buy order\");\n        require(isValidSignature(sellOrder, sellSig), \"Invalid signature for Sell order\");\n\n        // VERIFICATIONS\n\n        // Check matching assets\n        require(buyOrder.matcherAddress == msg.sender && sellOrder.matcherAddress == msg.sender, \"incorrect matcher address\");\n        require(buyOrder.baseAsset == sellOrder.baseAsset && buyOrder.quoteAsset == sellOrder.quoteAsset, \"assets do not match\");\n\n        // Check Price\n        require(filledPrice <= buyOrder.price, \"incorrect filled price for buy order\");\n        require(filledPrice >= sellOrder.price, \"incorrect filled price for sell order\");\n\n        // Check Expiration Time\n        require(buyOrder.expiration.div(1000) >= now, \"buy order expired\");\n        require(sellOrder.expiration.div(1000) >= now, \"sell order expired\");\n\n        // Amount of quote asset\n        uint amountToTake = filledAmount.mul(filledPrice).div(10**8);\n        address buyer = buyOrder.senderAddress;\n        address seller = sellOrder.senderAddress;\n\n        // BUY SIDE CHECK\n\n        require(assetBalances[buyer][buyOrder.quoteAsset] >= amountToTake, \"insufficient buyer's balance\");\n        bytes32 buyOrderHash = _getOrderhash(buyOrder);\n        require(!cancelledOrders[buyOrderHash], \"buy order was cancelled\");\n        // require(_checkAmount(buyOrderHash, buyOrder.amount, filledAmount), \"incorrect filled amount\");\n\n        // SELL SIDE CHECK\n        require(assetBalances[seller][sellOrder.baseAsset] >= filledAmount, \"insufficient seller's balance\");\n        bytes32 sellOrderHash = _getOrderhash(sellOrder);\n        require(!cancelledOrders[sellOrderHash], \"buy order was cancelled\");\n        // require(_checkAmount(sellOrderHash, sellOrder.amount, filledAmount), \"incorrect filled amount\");\n\n        // === VERIFICATIONS DONE ===\n\n        _updateBalances(buyer, seller, buyOrder.baseAsset, buyOrder.quoteAsset, filledAmount, amountToTake);\n\n        totalTrades = totalTrades.add(1);\n\n        // Store trades\n        Trade memory buyTrade = Trade(buyOrderHash, Status.NEW, filledAmount); //temporary set 0 for orderStatus until logic implemented\n        trades[buyOrderHash].push(buyTrade);\n        Trade memory sellTrade = Trade(sellOrderHash, Status.NEW, filledAmount); //temporary set 0 for orderStatus until logic implemented\n        trades[sellOrderHash].push(sellTrade);\n\n        emit NewTrade(buyOrderHash, sellOrderHash, filledPrice, filledAmount, amountToTake);\n\n    }\n\n    function _updateBalances(\n        address buyer, address seller, address baseAsset,\n        address quoteAsset, uint filledAmount, uint amountToTake\n    ) internal{\n        // Update Buyer's Balance (- quoteAsset + baseAsset - matcherFeeAsset)\n        assetBalances[buyer][quoteAsset] = assetBalances[buyer][quoteAsset].sub(amountToTake);\n        assetBalances[buyer][baseAsset] = assetBalances[buyer][baseAsset].add(filledAmount);\n\n        // Update Seller's Balance  (+ quoteAsset - baseAsset - matcherFeeAsset)\n        assetBalances[seller][quoteAsset] = assetBalances[seller][quoteAsset].add(amountToTake);\n        assetBalances[seller][baseAsset] = assetBalances[seller][baseAsset].sub(filledAmount);\n\n    }\n\n    function _checkAmount(bytes32 orderHash, uint orderAmount, uint newTradeAmount) internal view returns(bool){\n        uint totalTradeAmount;\n        for(uint i = 0; i < trades[orderHash].length; i++){\n            totalTradeAmount = totalTradeAmount.add(trades[orderHash][i].filledAmount);\n        }\n        return (totalTradeAmount.add(newTradeAmount) <= orderAmount);\n    }\n\n    function _getOrderhash(Order memory _order) internal pure returns(bytes32){\n        bytes32 buySide = keccak256(abi.encodePacked(\"buy\"));\n\n        return keccak256(abi.encodePacked(\n            bytes1(0x03),\n            _order.senderAddress,\n            _order.matcherAddress,\n            _order.baseAsset,\n            _order.quoteAsset,\n            _order.matcherFeeAsset,\n            bytes8(_order.amount),\n            bytes8(_order.price),\n            bytes8(_order.matcherFee),\n            bytes8(_order.nonce),\n            bytes8(_order.expiration),\n            keccak256(abi.encodePacked(_order.side)) == buySide ? bytes1(0x00):bytes1(0x01)\n        ));\n    }\n\n    /**\n     *  @dev Performs an `ecrecover` operation for signed message hashes\n     */\n    function _recoverAddress(bytes32 _hash, uint8 _v, bytes32 _r, bytes32 _s)\n        internal\n        pure\n        returns (address)\n    {\n        bytes memory prefix = \"\\x19Ethereum Signed Message:\\n32\";\n        bytes32 prefixedHash = keccak256(abi.encodePacked(prefix, _hash));\n        return ecrecover(prefixedHash, _v, _r, _s);\n    }\n\n    function isValidSignature(Order memory order, Signature memory sig) public returns(bool) {\n        bytes32 orderHash = _getOrderhash(order);\n        address recovered = _recoverAddress(orderHash, sig.v, sig.r, sig.s);\n        return recovered == order.senderAddress;\n    }\n\n\n    /**\n     * @dev write an orderHash in the contract so that such an order cannot be filled (executed)\n     */\n    function cancelOrder(Order memory order) public{\n        //TODO: check if order can be cancelled\n\n        bytes32 orderHash = _getOrderhash(order);\n\n        cancelledOrders[orderHash] = true;\n        emit OrderCancelled(orderHash);\n    }\n\n    // OWNER FUNCTIONS\n\n    /**\n     * @dev change state of contracts\n     */\n    function updateContractState(bool newState) public onlyOwner{\n        require(isActive != newState, \"same as current state\");\n        isActive = newState;\n    }\n    \n}",
  "sourcePath": "/home/wafflemakr/Desktop/PROYECTOS/orionex/orion-exchange/contracts/Exchange.sol",
  "compiler": {
    "name": "solc",
    "version": "0.5.12+commit.7709ece9.Emscripten.clang"
  },
  "schemaVersion": "3.0.2",
  "updatedAt": "2019-10-30T19:19:31.742Z",
  "devdoc": {
    "author": "@wafflemakr",
    "details": "Exchange contract for the Orion Protocol",
    "methods": {
      "cancelOrder((address,address,address,address,address,uint64,uint64,uint64,uint64,uint64,string))": {
        "details": "write an orderHash in the contract so that such an order cannot be filled (executed)"
      },
      "depositAsset(address,uint256)": {
        "details": "Deposit WAN or ERC20 tokens to the exchange contractUser needs to approve token contract first",
        "params": {
          "amount": "asset amount to deposit in its base unit"
        }
      },
      "depositWan()": {
        "details": "Deposit WAN to the exchange contract"
      },
      "fillOrders((address,address,address,address,address,uint64,uint64,uint64,uint64,uint64,string),(address,address,address,address,address,uint64,uint64,uint64,uint64,uint64,string),(bytes32,bytes32,uint8),(bytes32,bytes32,uint8),uint256,uint256)": {
        "details": "2 orders are submitted, it is necessary to match them: check conditions in orders for compliance filledPrice, filledAmountbuyOrderHash change balances on the contract respectively with buyer, seller, matcbuyOrderHashher",
        "params": {
          "buyOrder": "structure of buy side orderbuyOrderHash",
          "filledAmount": "amount settled between orders",
          "filledPrice": "price at which the order was settled",
          "sellOrder": "structure of sell side order"
        }
      },
      "getBalance(address,address)": {
        "details": "Asset balance for a specific address"
      },
      "getBalances(address[],address)": {
        "details": "Batch request of asset balances"
      },
      "isOwner()": {
        "details": "Returns true if the caller is the current owner."
      },
      "owner()": {
        "details": "Returns the address of the current owner."
      },
      "renounceOwnership()": {
        "details": "Leaves the contract without owner. It will not be possible to call `onlyOwner` functions anymore. Can only be called by the current owner.     * > Note: Renouncing ownership will leave the contract without an owner, thereby removing any functionality that is only available to the owner."
      },
      "transferOwnership(address)": {
        "details": "Transfers ownership of the contract to a new account (`newOwner`). Can only be called by the current owner."
      },
      "updateContractState(bool)": {
        "details": "change state of contracts"
      },
      "withdraw(address,uint256)": {
        "details": "Withdrawal of remaining funds from the contract back to the address",
        "params": {
          "amount": "asset amount to withdraw in its base unit"
        }
      }
    },
    "title": "Exchange"
  },
  "userdoc": {
    "methods": {
      "fillOrders((address,address,address,address,address,uint64,uint64,uint64,uint64,uint64,string),(address,address,address,address,address,uint64,uint64,uint64,uint64,uint64,string),(bytes32,bytes32,uint8),(bytes32,bytes32,uint8),uint256,uint256)": {
        "notice": "Settle a trade with two orders, filled price and amount"
      }
    }
  }
}