{
  "contractName": "Exchange",
  "abi": [
    {
      "anonymous": false,
      "inputs": [
        {
          "indexed": true,
          "internalType": "address",
          "name": "user",
          "type": "address"
        },
        {
          "indexed": true,
          "internalType": "address",
          "name": "assetAddress",
          "type": "address"
        },
        {
          "indexed": false,
          "internalType": "uint256",
          "name": "amount",
          "type": "uint256"
        }
      ],
      "name": "NewAssetDeposit",
      "type": "event",
      "signature": "0x87e95ee7cdd8ce169873b1be6add255c13ec04051d493c3346c1e705a849e620"
    },
    {
      "anonymous": false,
      "inputs": [
        {
          "indexed": true,
          "internalType": "address",
          "name": "user",
          "type": "address"
        },
        {
          "indexed": true,
          "internalType": "address",
          "name": "assetAddress",
          "type": "address"
        },
        {
          "indexed": false,
          "internalType": "uint256",
          "name": "amount",
          "type": "uint256"
        }
      ],
      "name": "NewAssetWithdrawl",
      "type": "event",
      "signature": "0x29f9103583c97b319d05287c41c024d7219f7217e16ca5f4066a7c2019cd2fd8"
    },
    {
      "anonymous": false,
      "inputs": [
        {
          "indexed": false,
          "internalType": "bytes32",
          "name": "buyOrderHash",
          "type": "bytes32"
        },
        {
          "indexed": false,
          "internalType": "bytes32",
          "name": "sellOrderHash",
          "type": "bytes32"
        },
        {
          "indexed": false,
          "internalType": "uint256",
          "name": "filledPrice",
          "type": "uint256"
        },
        {
          "indexed": false,
          "internalType": "uint256",
          "name": "filledAmount",
          "type": "uint256"
        },
        {
          "indexed": false,
          "internalType": "uint256",
          "name": "amountToTake",
          "type": "uint256"
        }
      ],
      "name": "NewTrade",
      "type": "event",
      "signature": "0xb6cd6c67a54af9431b22579bc0ca8767337fe44be7dfa5107eda536a1e5edb24"
    },
    {
      "anonymous": false,
      "inputs": [
        {
          "indexed": true,
          "internalType": "address",
          "name": "user",
          "type": "address"
        },
        {
          "indexed": false,
          "internalType": "uint256",
          "name": "amount",
          "type": "uint256"
        }
      ],
      "name": "NewWanDeposit",
      "type": "event",
      "signature": "0x4a7f5eaa2cdbbe305da6857f94bf48614feaf16c54d33bc2428295d983ea05a1"
    },
    {
      "anonymous": false,
      "inputs": [
        {
          "indexed": true,
          "internalType": "address",
          "name": "user",
          "type": "address"
        },
        {
          "indexed": false,
          "internalType": "uint256",
          "name": "amount",
          "type": "uint256"
        }
      ],
      "name": "NewWanWithdrawl",
      "type": "event",
      "signature": "0x72cefc3e92d19b874e1138a2561c656203f609574421d13c3e4993370be1019b"
    },
    {
      "anonymous": false,
      "inputs": [
        {
          "indexed": true,
          "internalType": "bytes32",
          "name": "orderHash",
          "type": "bytes32"
        }
      ],
      "name": "OrderCancelled",
      "type": "event",
      "signature": "0x5152abf959f6564662358c2e52b702259b78bac5ee7842a0f01937e670efcc7d"
    },
    {
      "anonymous": false,
      "inputs": [
        {
          "indexed": true,
          "internalType": "address",
          "name": "previousOwner",
          "type": "address"
        },
        {
          "indexed": true,
          "internalType": "address",
          "name": "newOwner",
          "type": "address"
        }
      ],
      "name": "OwnershipTransferred",
      "type": "event",
      "signature": "0x8be0079c531659141344cd1fd0a4f28419497f9722a3daafe3b4186f6b6457e0"
    },
    {
      "anonymous": false,
      "inputs": [
        {
          "indexed": false,
          "internalType": "address",
          "name": "sender",
          "type": "address"
        }
      ],
      "name": "RecoveredAddress",
      "type": "event",
      "signature": "0x391f5edd7209ba797e8055bce97cab2d1a480a2849b0c7fe965c370457166dc4"
    },
    {
      "constant": true,
      "inputs": [
        {
          "internalType": "address",
          "name": "",
          "type": "address"
        },
        {
          "internalType": "address",
          "name": "",
          "type": "address"
        }
      ],
      "name": "assetBalances",
      "outputs": [
        {
          "internalType": "uint256",
          "name": "",
          "type": "uint256"
        }
      ],
      "payable": false,
      "stateMutability": "view",
      "type": "function",
      "signature": "0xbdfce5bf"
    },
    {
      "constant": true,
      "inputs": [
        {
          "internalType": "bytes32",
          "name": "",
          "type": "bytes32"
        }
      ],
      "name": "cancelledOrders",
      "outputs": [
        {
          "internalType": "bool",
          "name": "",
          "type": "bool"
        }
      ],
      "payable": false,
      "stateMutability": "view",
      "type": "function",
      "signature": "0x8f13f48e"
    },
    {
      "constant": true,
      "inputs": [],
      "name": "isOwner",
      "outputs": [
        {
          "internalType": "bool",
          "name": "",
          "type": "bool"
        }
      ],
      "payable": false,
      "stateMutability": "view",
      "type": "function",
      "signature": "0x8f32d59b"
    },
    {
      "constant": true,
      "inputs": [],
      "name": "orion",
      "outputs": [
        {
          "internalType": "contract IERC20",
          "name": "",
          "type": "address"
        }
      ],
      "payable": false,
      "stateMutability": "view",
      "type": "function",
      "signature": "0xcdfd441e"
    },
    {
      "constant": true,
      "inputs": [],
      "name": "owner",
      "outputs": [
        {
          "internalType": "address",
          "name": "",
          "type": "address"
        }
      ],
      "payable": false,
      "stateMutability": "view",
      "type": "function",
      "signature": "0x8da5cb5b"
    },
    {
      "constant": false,
      "inputs": [],
      "name": "renounceOwnership",
      "outputs": [],
      "payable": false,
      "stateMutability": "nonpayable",
      "type": "function",
      "signature": "0x715018a6"
    },
    {
      "constant": true,
      "inputs": [],
      "name": "totalOrders",
      "outputs": [
        {
          "internalType": "uint256",
          "name": "",
          "type": "uint256"
        }
      ],
      "payable": false,
      "stateMutability": "view",
      "type": "function",
      "signature": "0x1d834409"
    },
    {
      "constant": true,
      "inputs": [],
      "name": "totalTrades",
      "outputs": [
        {
          "internalType": "uint256",
          "name": "",
          "type": "uint256"
        }
      ],
      "payable": false,
      "stateMutability": "view",
      "type": "function",
      "signature": "0xe275c997"
    },
    {
      "constant": true,
      "inputs": [
        {
          "internalType": "bytes32",
          "name": "",
          "type": "bytes32"
        },
        {
          "internalType": "uint256",
          "name": "",
          "type": "uint256"
        }
      ],
      "name": "trades",
      "outputs": [
        {
          "internalType": "bytes32",
          "name": "orderHash",
          "type": "bytes32"
        },
        {
          "internalType": "enum Exchange.Status",
          "name": "orderStatus",
          "type": "uint8"
        },
        {
          "internalType": "uint256",
          "name": "filledAmount",
          "type": "uint256"
        }
      ],
      "payable": false,
      "stateMutability": "view",
      "type": "function",
      "signature": "0x50ef1f5d"
    },
    {
      "constant": false,
      "inputs": [
        {
          "internalType": "address",
          "name": "newOwner",
          "type": "address"
        }
      ],
      "name": "transferOwnership",
      "outputs": [],
      "payable": false,
      "stateMutability": "nonpayable",
      "type": "function",
      "signature": "0xf2fde38b"
    },
    {
      "constant": false,
      "inputs": [
        {
          "internalType": "address",
          "name": "assetAddress",
          "type": "address"
        },
        {
          "internalType": "uint256",
          "name": "amount",
          "type": "uint256"
        }
      ],
      "name": "depositAsset",
      "outputs": [],
      "payable": true,
      "stateMutability": "payable",
      "type": "function",
      "signature": "0x46a5d043"
    },
    {
      "constant": false,
      "inputs": [],
      "name": "depositWan",
      "outputs": [],
      "payable": true,
      "stateMutability": "payable",
      "type": "function",
      "signature": "0x76a207b8"
    },
    {
      "constant": false,
      "inputs": [
        {
          "internalType": "address",
          "name": "assetAddress",
          "type": "address"
        },
        {
          "internalType": "uint256",
          "name": "amount",
          "type": "uint256"
        }
      ],
      "name": "withdraw",
      "outputs": [],
      "payable": false,
      "stateMutability": "nonpayable",
      "type": "function",
      "signature": "0xf3fef3a3"
    },
    {
      "constant": true,
      "inputs": [
        {
          "internalType": "address",
          "name": "assetAddress",
          "type": "address"
        },
        {
          "internalType": "address",
          "name": "user",
          "type": "address"
        }
      ],
      "name": "getBalance",
      "outputs": [
        {
          "internalType": "uint256",
          "name": "assetBalance",
          "type": "uint256"
        }
      ],
      "payable": false,
      "stateMutability": "view",
      "type": "function",
      "signature": "0xd4fac45d"
    },
    {
      "constant": true,
      "inputs": [
        {
          "internalType": "address[]",
          "name": "assetsAddresses",
          "type": "address[]"
        },
        {
          "internalType": "address",
          "name": "user",
          "type": "address"
        }
      ],
      "name": "getBalances",
      "outputs": [
        {
          "internalType": "uint256[]",
          "name": "",
          "type": "uint256[]"
        }
      ],
      "payable": false,
      "stateMutability": "view",
      "type": "function",
      "signature": "0xd1c07028"
    },
    {
      "constant": false,
      "inputs": [
        {
          "components": [
            {
              "internalType": "address",
              "name": "senderAddress",
              "type": "address"
            },
            {
              "internalType": "address",
              "name": "matcherAddress",
              "type": "address"
            },
            {
              "internalType": "address",
              "name": "baseAsset",
              "type": "address"
            },
            {
              "internalType": "address",
              "name": "quotetAsset",
              "type": "address"
            },
            {
              "internalType": "address",
              "name": "matcherFeeAsset",
              "type": "address"
            },
            {
              "internalType": "uint256",
              "name": "amount",
              "type": "uint256"
            },
            {
              "internalType": "uint256",
              "name": "price",
              "type": "uint256"
            },
            {
              "internalType": "uint256",
              "name": "matcherFee",
              "type": "uint256"
            },
            {
              "internalType": "uint256",
              "name": "nonce",
              "type": "uint256"
            },
            {
              "internalType": "uint256",
              "name": "expiration",
              "type": "uint256"
            },
            {
              "internalType": "bool",
              "name": "side",
              "type": "bool"
            }
          ],
          "internalType": "struct Exchange.Order",
          "name": "buyOrder",
          "type": "tuple"
        },
        {
          "components": [
            {
              "internalType": "address",
              "name": "senderAddress",
              "type": "address"
            },
            {
              "internalType": "address",
              "name": "matcherAddress",
              "type": "address"
            },
            {
              "internalType": "address",
              "name": "baseAsset",
              "type": "address"
            },
            {
              "internalType": "address",
              "name": "quotetAsset",
              "type": "address"
            },
            {
              "internalType": "address",
              "name": "matcherFeeAsset",
              "type": "address"
            },
            {
              "internalType": "uint256",
              "name": "amount",
              "type": "uint256"
            },
            {
              "internalType": "uint256",
              "name": "price",
              "type": "uint256"
            },
            {
              "internalType": "uint256",
              "name": "matcherFee",
              "type": "uint256"
            },
            {
              "internalType": "uint256",
              "name": "nonce",
              "type": "uint256"
            },
            {
              "internalType": "uint256",
              "name": "expiration",
              "type": "uint256"
            },
            {
              "internalType": "bool",
              "name": "side",
              "type": "bool"
            }
          ],
          "internalType": "struct Exchange.Order",
          "name": "sellOrder",
          "type": "tuple"
        },
        {
          "internalType": "uint256",
          "name": "filledPrice",
          "type": "uint256"
        },
        {
          "internalType": "uint256",
          "name": "filledAmount",
          "type": "uint256"
        }
      ],
      "name": "fillOrders",
      "outputs": [],
      "payable": false,
      "stateMutability": "nonpayable",
      "type": "function",
      "signature": "0xb84fa47b"
    },
    {
      "constant": false,
      "inputs": [
        {
          "components": [
            {
              "internalType": "address",
              "name": "senderAddress",
              "type": "address"
            },
            {
              "internalType": "address",
              "name": "matcherAddress",
              "type": "address"
            },
            {
              "internalType": "address",
              "name": "baseAsset",
              "type": "address"
            },
            {
              "internalType": "address",
              "name": "quotetAsset",
              "type": "address"
            },
            {
              "internalType": "address",
              "name": "matcherFeeAsset",
              "type": "address"
            },
            {
              "internalType": "uint256",
              "name": "amount",
              "type": "uint256"
            },
            {
              "internalType": "uint256",
              "name": "price",
              "type": "uint256"
            },
            {
              "internalType": "uint256",
              "name": "matcherFee",
              "type": "uint256"
            },
            {
              "internalType": "uint256",
              "name": "nonce",
              "type": "uint256"
            },
            {
              "internalType": "uint256",
              "name": "expiration",
              "type": "uint256"
            },
            {
              "internalType": "bool",
              "name": "side",
              "type": "bool"
            }
          ],
          "internalType": "struct Exchange.Order",
          "name": "order",
          "type": "tuple"
        },
        {
          "internalType": "uint8",
          "name": "v",
          "type": "uint8"
        },
        {
          "internalType": "bytes32",
          "name": "r",
          "type": "bytes32"
        },
        {
          "internalType": "bytes32",
          "name": "s",
          "type": "bytes32"
        }
      ],
      "name": "validateOrder",
      "outputs": [],
      "payable": false,
      "stateMutability": "nonpayable",
      "type": "function",
      "signature": "0xe3538cb5"
    },
    {
      "constant": false,
      "inputs": [
        {
          "components": [
            {
              "internalType": "address",
              "name": "senderAddress",
              "type": "address"
            },
            {
              "internalType": "address",
              "name": "matcherAddress",
              "type": "address"
            },
            {
              "internalType": "address",
              "name": "baseAsset",
              "type": "address"
            },
            {
              "internalType": "address",
              "name": "quotetAsset",
              "type": "address"
            },
            {
              "internalType": "address",
              "name": "matcherFeeAsset",
              "type": "address"
            },
            {
              "internalType": "uint256",
              "name": "amount",
              "type": "uint256"
            },
            {
              "internalType": "uint256",
              "name": "price",
              "type": "uint256"
            },
            {
              "internalType": "uint256",
              "name": "matcherFee",
              "type": "uint256"
            },
            {
              "internalType": "uint256",
              "name": "nonce",
              "type": "uint256"
            },
            {
              "internalType": "uint256",
              "name": "expiration",
              "type": "uint256"
            },
            {
              "internalType": "bool",
              "name": "side",
              "type": "bool"
            }
          ],
          "internalType": "struct Exchange.Order",
          "name": "order",
          "type": "tuple"
        }
      ],
      "name": "cancelOrder",
      "outputs": [],
      "payable": false,
      "stateMutability": "nonpayable",
      "type": "function",
      "signature": "0x8ba8f500"
    },
    {
      "constant": false,
      "inputs": [
        {
          "internalType": "bool",
          "name": "newState",
          "type": "bool"
        }
      ],
      "name": "updateContractState",
      "outputs": [],
      "payable": false,
      "stateMutability": "nonpayable",
      "type": "function",
      "signature": "0x2fa68b32"
    }
  ],
  "bytecode": "0x60806040526001600760006101000a81548160ff021916908315150217905550336000806101000a81548173ffffffffffffffffffffffffffffffffffffffff021916908373ffffffffffffffffffffffffffffffffffffffff1602179055506000809054906101000a900473ffffffffffffffffffffffffffffffffffffffff1673ffffffffffffffffffffffffffffffffffffffff16600073ffffffffffffffffffffffffffffffffffffffff167f8be0079c531659141344cd1fd0a4f28419497f9722a3daafe3b4186f6b6457e060405160405180910390a3613578806100ea6000396000f3fe608060405260043610610131576000357c0100000000000000000000000000000000000000000000000000000000900480638f32d59b116100bd578063d4fac45d11610081578063d4fac45d14610390578063e275c997146103cd578063e3538cb5146103f8578063f2fde38b14610421578063f3fef3a31461044a57610131565b80638f32d59b14610297578063b84fa47b146102c2578063bdfce5bf146102eb578063cdfd441e14610328578063d1c070281461035357610131565b8063715018a611610104578063715018a6146101e557806376a207b8146101fc5780638ba8f500146102065780638da5cb5b1461022f5780638f13f48e1461025a57610131565b80631d834409146101365780632fa68b321461016157806346a5d0431461018a57806350ef1f5d146101a6575b600080fd5b34801561014257600080fd5b5061014b610473565b6040516101589190613233565b60405180910390f35b34801561016d57600080fd5b506101886004803603610183919081019061247c565b610479565b005b6101a4600480360361019f91908101906123ec565b610533565b005b3480156101b257600080fd5b506101cd60048036036101c891908101906124f7565b6107ea565b6040516101dc93929190612f3c565b60405180910390f35b3480156101f157600080fd5b506101fa61083b565b005b610204610941565b005b34801561021257600080fd5b5061022d60048036036102289190810190612533565b610b4a565b005b34801561023b57600080fd5b50610244610bb4565b6040516102519190612e31565b60405180910390f35b34801561026657600080fd5b50610281600480360361027c91908101906124ce565b610bdd565b60405161028e9190612ece565b60405180910390f35b3480156102a357600080fd5b506102ac610bfd565b6040516102b99190612ece565b60405180910390f35b3480156102ce57600080fd5b506102e960048036036102e4919081019061255d565b610c54565b005b3480156102f757600080fd5b50610312600480360361030d91908101906123b0565b611355565b60405161031f9190613233565b60405180910390f35b34801561033457600080fd5b5061033d61137a565b60405161034a9190612fb8565b60405180910390f35b34801561035f57600080fd5b5061037a60048036036103759190810190612428565b6113a0565b6040516103879190612eac565b60405180910390f35b34801561039c57600080fd5b506103b760048036036103b291908101906123b0565b6114a5565b6040516103c49190613233565b60405180910390f35b3480156103d957600080fd5b506103e261152c565b6040516103ef9190613233565b60405180910390f35b34801561040457600080fd5b5061041f600480360361041a91908101906125c4565b611532565b005b34801561042d57600080fd5b5061044860048036036104439190810190612387565b61158e565b005b34801561045657600080fd5b50610471600480360361046c91908101906123ec565b6115e1565b005b60055481565b610481610bfd565b6104c0576040517f08c379a00000000000000000000000000000000000000000000000000000000081526004016104b790613153565b60405180910390fd5b801515600760009054906101000a900460ff1615151415610516576040517f08c379a000000000000000000000000000000000000000000000000000000000815260040161050d90613113565b60405180910390fd5b80600760006101000a81548160ff02191690831515021790555050565b600760009054906101000a900460ff16610582576040517f08c379a000000000000000000000000000000000000000000000000000000000815260040161057990613053565b60405180910390fd5b60008290508073ffffffffffffffffffffffffffffffffffffffff166323b872dd3330856040518463ffffffff167c01000000000000000000000000000000000000000000000000000000000281526004016105e093929190612e4c565b602060405180830381600087803b1580156105fa57600080fd5b505af115801561060e573d6000803e3d6000fd5b505050506040513d601f19601f8201168201806040525061063291908101906124a5565b610671576040517f08c379a000000000000000000000000000000000000000000000000000000000815260040161066890613193565b60405180910390fd5b61070082600360003373ffffffffffffffffffffffffffffffffffffffff1673ffffffffffffffffffffffffffffffffffffffff16815260200190815260200160002060008673ffffffffffffffffffffffffffffffffffffffff1673ffffffffffffffffffffffffffffffffffffffff1681526020019081526020016000205461198890919063ffffffff16565b600360003373ffffffffffffffffffffffffffffffffffffffff1673ffffffffffffffffffffffffffffffffffffffff16815260200190815260200160002060008573ffffffffffffffffffffffffffffffffffffffff1673ffffffffffffffffffffffffffffffffffffffff168152602001908152602001600020819055508273ffffffffffffffffffffffffffffffffffffffff163373ffffffffffffffffffffffffffffffffffffffff167f87e95ee7cdd8ce169873b1be6add255c13ec04051d493c3346c1e705a849e620846040516107dd9190613233565b60405180910390a3505050565b6002602052816000526040600020818154811061080357fe5b9060005260206000209060030201600091509150508060000154908060010160009054906101000a900460ff16908060020154905083565b610843610bfd565b610882576040517f08c379a000000000000000000000000000000000000000000000000000000000815260040161087990613153565b60405180910390fd5b600073ffffffffffffffffffffffffffffffffffffffff166000809054906101000a900473ffffffffffffffffffffffffffffffffffffffff1673ffffffffffffffffffffffffffffffffffffffff167f8be0079c531659141344cd1fd0a4f28419497f9722a3daafe3b4186f6b6457e060405160405180910390a360008060006101000a81548173ffffffffffffffffffffffffffffffffffffffff021916908373ffffffffffffffffffffffffffffffffffffffff160217905550565b600760009054906101000a900460ff16610990576040517f08c379a000000000000000000000000000000000000000000000000000000000815260040161098790613053565b60405180910390fd5b600034116109d3576040517f08c379a00000000000000000000000000000000000000000000000000000000081526004016109ca90613213565b60405180910390fd5b610a6234600360003373ffffffffffffffffffffffffffffffffffffffff1673ffffffffffffffffffffffffffffffffffffffff16815260200190815260200160002060008073ffffffffffffffffffffffffffffffffffffffff1673ffffffffffffffffffffffffffffffffffffffff1681526020019081526020016000205461198890919063ffffffff16565b600360003373ffffffffffffffffffffffffffffffffffffffff1673ffffffffffffffffffffffffffffffffffffffff16815260200190815260200160002060008073ffffffffffffffffffffffffffffffffffffffff1673ffffffffffffffffffffffffffffffffffffffff16815260200190815260200160002081905550600073ffffffffffffffffffffffffffffffffffffffff163373ffffffffffffffffffffffffffffffffffffffff167f87e95ee7cdd8ce169873b1be6add255c13ec04051d493c3346c1e705a849e62034604051610b409190613233565b60405180910390a3565b6000610b55826119dd565b905060016004600083815260200190815260200160002060006101000a81548160ff021916908315150217905550807f5152abf959f6564662358c2e52b702259b78bac5ee7842a0f01937e670efcc7d60405160405180910390a25050565b60008060009054906101000a900473ffffffffffffffffffffffffffffffffffffffff16905090565b60046020528060005260406000206000915054906101000a900460ff1681565b60008060009054906101000a900473ffffffffffffffffffffffffffffffffffffffff1673ffffffffffffffffffffffffffffffffffffffff163373ffffffffffffffffffffffffffffffffffffffff1614905090565b600760009054906101000a900460ff16610ca3576040517f08c379a0000000000000000000000000000000000000000000000000000000008152600401610c9a90613053565b60405180910390fd5b3373ffffffffffffffffffffffffffffffffffffffff16846020015173ffffffffffffffffffffffffffffffffffffffff16148015610d1157503373ffffffffffffffffffffffffffffffffffffffff16836020015173ffffffffffffffffffffffffffffffffffffffff16145b610d50576040517f08c379a0000000000000000000000000000000000000000000000000000000008152600401610d4790613173565b60405180910390fd5b826040015173ffffffffffffffffffffffffffffffffffffffff16846040015173ffffffffffffffffffffffffffffffffffffffff16148015610dc65750826060015173ffffffffffffffffffffffffffffffffffffffff16846060015173ffffffffffffffffffffffffffffffffffffffff16145b610e05576040517f08c379a0000000000000000000000000000000000000000000000000000000008152600401610dfc906130d3565b60405180910390fd5b8360c00151821115610e4c576040517f08c379a0000000000000000000000000000000000000000000000000000000008152600401610e4390613093565b60405180910390fd5b8260c00151821015610e93576040517f08c379a0000000000000000000000000000000000000000000000000000000008152600401610e8a906131f3565b60405180910390fd5b4284610120015110158015610ead57504283610120015110155b610eec576040517f08c379a0000000000000000000000000000000000000000000000000000000008152600401610ee3906131b3565b60405180910390fd5b6000610f018383611a5390919063ffffffff16565b905060008560000151905060008560000151905082600360008473ffffffffffffffffffffffffffffffffffffffff1673ffffffffffffffffffffffffffffffffffffffff1681526020019081526020016000206000896060015173ffffffffffffffffffffffffffffffffffffffff1673ffffffffffffffffffffffffffffffffffffffff168152602001908152602001600020541015610fd8576040517f08c379a0000000000000000000000000000000000000000000000000000000008152600401610fcf906130f3565b60405180910390fd5b6000610fe3886119dd565b90506004600082815260200190815260200160002060009054906101000a900460ff1615611046576040517f08c379a000000000000000000000000000000000000000000000000000000000815260040161103d90613073565b60405180910390fd5b84600360008473ffffffffffffffffffffffffffffffffffffffff1673ffffffffffffffffffffffffffffffffffffffff1681526020019081526020016000206000896040015173ffffffffffffffffffffffffffffffffffffffff1673ffffffffffffffffffffffffffffffffffffffff168152602001908152602001600020541015611109576040517f08c379a000000000000000000000000000000000000000000000000000000000815260040161110090612fd3565b60405180910390fd5b6000611114886119dd565b90506004600082815260200190815260200160002060009054906101000a900460ff1615611177576040517f08c379a000000000000000000000000000000000000000000000000000000000815260040161116e90613073565b60405180910390fd5b61118d84848b604001518c606001518a8a611ac3565b6111a3600160065461198890919063ffffffff16565b6006819055506111b161214f565b6040518060600160405280848152602001600060048111156111cf57fe5b81526020018881525090506002600084815260200190815260200160002081908060018154018082558091505090600182039060005260206000209060030201600090919290919091506000820151816000015560208201518160010160006101000a81548160ff0219169083600481111561124757fe5b02179055506040820151816002015550505061126161214f565b60405180606001604052808481526020016000600481111561127f57fe5b81526020018981525090506002600084815260200190815260200160002081908060018154018082558091505090600182039060005260206000209060030201600090919290919091506000820151816000015560208201518160010160006101000a81548160ff021916908360048111156112f757fe5b0217905550604082015181600201555050507fb6cd6c67a54af9431b22579bc0ca8767337fe44be7dfa5107eda536a1e5edb2484848b8b8b604051611340959493929190612ee9565b60405180910390a15050505050505050505050565b6003602052816000526040600020602052806000526040600020600091509150505481565b600160009054906101000a900473ffffffffffffffffffffffffffffffffffffffff1681565b60608083516040519080825280602002602001820160405280156113d35781602001602082028038833980820191505090505b50905060008090505b845181101561149a57600360008573ffffffffffffffffffffffffffffffffffffffff1673ffffffffffffffffffffffffffffffffffffffff168152602001908152602001600020600086838151811061143257fe5b602002602001015173ffffffffffffffffffffffffffffffffffffffff1673ffffffffffffffffffffffffffffffffffffffff1681526020019081526020016000205482828151811061148157fe5b60200260200101818152505080806001019150506113dc565b508091505092915050565b6000600360008373ffffffffffffffffffffffffffffffffffffffff1673ffffffffffffffffffffffffffffffffffffffff16815260200190815260200160002060008473ffffffffffffffffffffffffffffffffffffffff1673ffffffffffffffffffffffffffffffffffffffff16815260200190815260200160002054905092915050565b60065481565b600061153d856119dd565b9050600061154d82868686611f07565b90507f391f5edd7209ba797e8055bce97cab2d1a480a2849b0c7fe965c370457166dc48160405161157e9190612e31565b60405180910390a1505050505050565b611596610bfd565b6115d5576040517f08c379a00000000000000000000000000000000000000000000000000000000081526004016115cc90613153565b60405180910390fd5b6115de81611fcb565b50565b80600360003373ffffffffffffffffffffffffffffffffffffffff1673ffffffffffffffffffffffffffffffffffffffff16815260200190815260200160002060008473ffffffffffffffffffffffffffffffffffffffff1673ffffffffffffffffffffffffffffffffffffffff1681526020019081526020016000205410156116a0576040517f08c379a0000000000000000000000000000000000000000000000000000000008152600401611697906131d3565b60405180910390fd5b61172f81600360003373ffffffffffffffffffffffffffffffffffffffff1673ffffffffffffffffffffffffffffffffffffffff16815260200190815260200160002060008573ffffffffffffffffffffffffffffffffffffffff1673ffffffffffffffffffffffffffffffffffffffff168152602001908152602001600020546120f990919063ffffffff16565b600360003373ffffffffffffffffffffffffffffffffffffffff1673ffffffffffffffffffffffffffffffffffffffff16815260200190815260200160002060008473ffffffffffffffffffffffffffffffffffffffff1673ffffffffffffffffffffffffffffffffffffffff16815260200190815260200160002081905550600073ffffffffffffffffffffffffffffffffffffffff168273ffffffffffffffffffffffffffffffffffffffff161415611830573373ffffffffffffffffffffffffffffffffffffffff166108fc829081150290604051600060405180830381858888f1935050505015801561182a573d6000803e3d6000fd5b5061191f565b60008290508073ffffffffffffffffffffffffffffffffffffffff1663a9059cbb33846040518363ffffffff167c010000000000000000000000000000000000000000000000000000000002815260040161188c929190612e83565b602060405180830381600087803b1580156118a657600080fd5b505af11580156118ba573d6000803e3d6000fd5b505050506040513d601f19601f820116820180604052506118de91908101906124a5565b61191d576040517f08c379a000000000000000000000000000000000000000000000000000000000815260040161191490612ff3565b60405180910390fd5b505b8173ffffffffffffffffffffffffffffffffffffffff163373ffffffffffffffffffffffffffffffffffffffff167f29f9103583c97b319d05287c41c024d7219f7217e16ca5f4066a7c2019cd2fd88360405161197c9190613233565b60405180910390a35050565b6000808284019050838110156119d3576040517f08c379a00000000000000000000000000000000000000000000000000000000081526004016119ca90613033565b60405180910390fd5b8091505092915050565b60006003826000015183602001518460400151856060015186608001518760a001518860c001518960e001518a61010001518b61012001518c6101400151604051602001611a369c9b9a99989796959493929190612d5b565b604051602081830303815290604052805190602001209050919050565b600080831415611a665760009050611abd565b6000828402905082848281611a7757fe5b0414611ab8576040517f08c379a0000000000000000000000000000000000000000000000000000000008152600401611aaf90613133565b60405180910390fd5b809150505b92915050565b611b5281600360008973ffffffffffffffffffffffffffffffffffffffff1673ffffffffffffffffffffffffffffffffffffffff16815260200190815260200160002060008673ffffffffffffffffffffffffffffffffffffffff1673ffffffffffffffffffffffffffffffffffffffff168152602001908152602001600020546120f990919063ffffffff16565b600360008873ffffffffffffffffffffffffffffffffffffffff1673ffffffffffffffffffffffffffffffffffffffff16815260200190815260200160002060008573ffffffffffffffffffffffffffffffffffffffff1673ffffffffffffffffffffffffffffffffffffffff16815260200190815260200160002081905550611c6182600360008973ffffffffffffffffffffffffffffffffffffffff1673ffffffffffffffffffffffffffffffffffffffff16815260200190815260200160002060008773ffffffffffffffffffffffffffffffffffffffff1673ffffffffffffffffffffffffffffffffffffffff1681526020019081526020016000205461198890919063ffffffff16565b600360008873ffffffffffffffffffffffffffffffffffffffff1673ffffffffffffffffffffffffffffffffffffffff16815260200190815260200160002060008673ffffffffffffffffffffffffffffffffffffffff1673ffffffffffffffffffffffffffffffffffffffff16815260200190815260200160002081905550611d7081600360008873ffffffffffffffffffffffffffffffffffffffff1673ffffffffffffffffffffffffffffffffffffffff16815260200190815260200160002060008673ffffffffffffffffffffffffffffffffffffffff1673ffffffffffffffffffffffffffffffffffffffff1681526020019081526020016000205461198890919063ffffffff16565b600360008773ffffffffffffffffffffffffffffffffffffffff1673ffffffffffffffffffffffffffffffffffffffff16815260200190815260200160002060008573ffffffffffffffffffffffffffffffffffffffff1673ffffffffffffffffffffffffffffffffffffffff16815260200190815260200160002081905550611e7f82600360008873ffffffffffffffffffffffffffffffffffffffff1673ffffffffffffffffffffffffffffffffffffffff16815260200190815260200160002060008773ffffffffffffffffffffffffffffffffffffffff1673ffffffffffffffffffffffffffffffffffffffff168152602001908152602001600020546120f990919063ffffffff16565b600360008773ffffffffffffffffffffffffffffffffffffffff1673ffffffffffffffffffffffffffffffffffffffff16815260200190815260200160002060008673ffffffffffffffffffffffffffffffffffffffff1673ffffffffffffffffffffffffffffffffffffffff16815260200190815260200160002081905550505050505050565b600060606040518060400160405280601c81526020017f19457468657265756d205369676e6564204d6573736167653a0a333200000000815250905060008187604051602001611f58929190612d33565b60405160208183030381529060405280519060200120905060018187878760405160008152602001604052604051611f939493929190612f73565b6020604051602081039080840390855afa158015611fb5573d6000803e3d6000fd5b5050506020604051035192505050949350505050565b600073ffffffffffffffffffffffffffffffffffffffff168173ffffffffffffffffffffffffffffffffffffffff16141561203b576040517f08c379a000000000000000000000000000000000000000000000000000000000815260040161203290613013565b60405180910390fd5b8073ffffffffffffffffffffffffffffffffffffffff166000809054906101000a900473ffffffffffffffffffffffffffffffffffffffff1673ffffffffffffffffffffffffffffffffffffffff167f8be0079c531659141344cd1fd0a4f28419497f9722a3daafe3b4186f6b6457e060405160405180910390a3806000806101000a81548173ffffffffffffffffffffffffffffffffffffffff021916908373ffffffffffffffffffffffffffffffffffffffff16021790555050565b60008282111561213e576040517f08c379a0000000000000000000000000000000000000000000000000000000008152600401612135906130b3565b60405180910390fd5b600082840390508091505092915050565b6040518060600160405280600080191681526020016000600481111561217157fe5b8152602001600081525090565b60008135905061218d816134c2565b92915050565b600082601f8301126121a457600080fd5b81356121b76121b28261327b565b61324e565b915081818352602084019350602081019050838560208402820111156121dc57600080fd5b60005b8381101561220c57816121f2888261217e565b8452602084019350602083019250506001810190506121df565b5050505092915050565b600081359050612225816134d9565b92915050565b60008151905061223a816134d9565b92915050565b60008135905061224f816134f0565b92915050565b6000610160828403121561226857600080fd5b61227361016061324e565b905060006122838482850161217e565b60008301525060206122978482850161217e565b60208301525060406122ab8482850161217e565b60408301525060606122bf8482850161217e565b60608301525060806122d38482850161217e565b60808301525060a06122e78482850161235d565b60a08301525060c06122fb8482850161235d565b60c08301525060e061230f8482850161235d565b60e0830152506101006123248482850161235d565b6101008301525061012061233a8482850161235d565b6101208301525061014061235084828501612216565b6101408301525092915050565b60008135905061236c81613507565b92915050565b6000813590506123818161351e565b92915050565b60006020828403121561239957600080fd5b60006123a78482850161217e565b91505092915050565b600080604083850312156123c357600080fd5b60006123d18582860161217e565b92505060206123e28582860161217e565b9150509250929050565b600080604083850312156123ff57600080fd5b600061240d8582860161217e565b925050602061241e8582860161235d565b9150509250929050565b6000806040838503121561243b57600080fd5b600083013567ffffffffffffffff81111561245557600080fd5b61246185828601612193565b92505060206124728582860161217e565b9150509250929050565b60006020828403121561248e57600080fd5b600061249c84828501612216565b91505092915050565b6000602082840312156124b757600080fd5b60006124c58482850161222b565b91505092915050565b6000602082840312156124e057600080fd5b60006124ee84828501612240565b91505092915050565b6000806040838503121561250a57600080fd5b600061251885828601612240565b92505060206125298582860161235d565b9150509250929050565b6000610160828403121561254657600080fd5b600061255484828501612255565b91505092915050565b600080600080610300858703121561257457600080fd5b600061258287828801612255565b94505061016061259487828801612255565b9350506102c06125a68782880161235d565b9250506102e06125b88782880161235d565b91505092959194509250565b6000806000806101c085870312156125db57600080fd5b60006125e987828801612255565b9450506101606125fb87828801612372565b93505061018061260d87828801612240565b9250506101a061261f87828801612240565b91505092959194509250565b60006126378383612cef565b60208301905092915050565b61264c81613375565b82525050565b61265b81613303565b82525050565b61267261266d82613303565b613414565b82525050565b6000612683826132b3565b61268d81856132d6565b9350612698836132a3565b8060005b838110156126c95781516126b0888261262b565b97506126bb836132c9565b92505060018101905061269c565b5085935050505092915050565b6126df81613315565b82525050565b6126f66126f182613315565b613426565b82525050565b61270581613321565b82525050565b61271c61271782613321565b613438565b82525050565b600061272d826132be565b61273781856132e7565b93506127478185602086016133e1565b80840191505092915050565b61275c81613387565b82525050565b61276b816133ab565b82525050565b600061277e601d836132f2565b91507f696e73756666696369656e742073656c6c657227732062616c616e63650000006000830152602082019050919050565b60006127be601f836132f2565b91507f6572726f72207472616e73666572696e672066756e647320746f2075736572006000830152602082019050919050565b60006127fe6026836132f2565b91507f4f776e61626c653a206e6577206f776e657220697320746865207a65726f206160008301527f64647265737300000000000000000000000000000000000000000000000000006020830152604082019050919050565b6000612864601b836132f2565b91507f536166654d6174683a206164646974696f6e206f766572666c6f7700000000006000830152602082019050919050565b60006128a46016836132f2565b91507f636f6e7472616374206973206e6f7420616374697665000000000000000000006000830152602082019050919050565b60006128e46017836132f2565b91507f627579206f72646572207761732063616e63656c6c65640000000000000000006000830152602082019050919050565b60006129246024836132f2565b91507f696e636f72726563742066696c6c656420707269636520666f7220627579206f60008301527f72646572000000000000000000000000000000000000000000000000000000006020830152604082019050919050565b600061298a601e836132f2565b91507f536166654d6174683a207375627472616374696f6e206f766572666c6f7700006000830152602082019050919050565b60006129ca6013836132f2565b91507f61737365747320646f206e6f74206d61746368000000000000000000000000006000830152602082019050919050565b6000612a0a601c836132f2565b91507f696e73756666696369656e7420627579657227732062616c616e6365000000006000830152602082019050919050565b6000612a4a6015836132f2565b91507f73616d652061732063757272656e7420737461746500000000000000000000006000830152602082019050919050565b6000612a8a6021836132f2565b91507f536166654d6174683a206d756c7469706c69636174696f6e206f766572666c6f60008301527f77000000000000000000000000000000000000000000000000000000000000006020830152604082019050919050565b6000612af06020836132f2565b91507f4f776e61626c653a2063616c6c6572206973206e6f7420746865206f776e65726000830152602082019050919050565b6000612b306019836132f2565b91507f696e636f7272656374206d6174636865722061646472657373000000000000006000830152602082019050919050565b6000612b706023836132f2565b91507f6572726f72207472616e73666572696e6720617373657420746f20657863686160008301527f6e676500000000000000000000000000000000000000000000000000000000006020830152604082019050919050565b6000612bd66010836132f2565b91507f6f726465722065787069726174696f6e000000000000000000000000000000006000830152602082019050919050565b6000612c16601c836132f2565b91507f6e6f7420656e6f7567682066756e647320746f207769746864726177000000006000830152602082019050919050565b6000612c566025836132f2565b91507f696e636f72726563742066696c6c656420707269636520666f722073656c6c2060008301527f6f726465720000000000000000000000000000000000000000000000000000006020830152604082019050919050565b6000612cbc6013836132f2565b91507f696e76616c696420616d6f756e742073656e74000000000000000000000000006000830152602082019050919050565b612cf88161335e565b82525050565b612d078161335e565b82525050565b612d1e612d198261335e565b613454565b82525050565b612d2d81613368565b82525050565b6000612d3f8285612722565b9150612d4b828461270b565b6020820191508190509392505050565b6000612d67828f612d0d565b602082019150612d77828e612661565b601482019150612d87828d612661565b601482019150612d97828c612661565b601482019150612da7828b612661565b601482019150612db7828a612661565b601482019150612dc78289612d0d565b602082019150612dd78288612d0d565b602082019150612de78287612d0d565b602082019150612df78286612d0d565b602082019150612e078285612d0d565b602082019150612e1782846126e5565b6001820191508190509d9c50505050505050505050505050565b6000602082019050612e466000830184612652565b92915050565b6000606082019050612e616000830186612643565b612e6e6020830185612652565b612e7b6040830184612cfe565b949350505050565b6000604082019050612e986000830185612643565b612ea56020830184612cfe565b9392505050565b60006020820190508181036000830152612ec68184612678565b905092915050565b6000602082019050612ee360008301846126d6565b92915050565b600060a082019050612efe60008301886126fc565b612f0b60208301876126fc565b612f186040830186612cfe565b612f256060830185612cfe565b612f326080830184612cfe565b9695505050505050565b6000606082019050612f5160008301866126fc565b612f5e6020830185612762565b612f6b6040830184612cfe565b949350505050565b6000608082019050612f8860008301876126fc565b612f956020830186612d24565b612fa260408301856126fc565b612faf60608301846126fc565b95945050505050565b6000602082019050612fcd6000830184612753565b92915050565b60006020820190508181036000830152612fec81612771565b9050919050565b6000602082019050818103600083015261300c816127b1565b9050919050565b6000602082019050818103600083015261302c816127f1565b9050919050565b6000602082019050818103600083015261304c81612857565b9050919050565b6000602082019050818103600083015261306c81612897565b9050919050565b6000602082019050818103600083015261308c816128d7565b9050919050565b600060208201905081810360008301526130ac81612917565b9050919050565b600060208201905081810360008301526130cc8161297d565b9050919050565b600060208201905081810360008301526130ec816129bd565b9050919050565b6000602082019050818103600083015261310c816129fd565b9050919050565b6000602082019050818103600083015261312c81612a3d565b9050919050565b6000602082019050818103600083015261314c81612a7d565b9050919050565b6000602082019050818103600083015261316c81612ae3565b9050919050565b6000602082019050818103600083015261318c81612b23565b9050919050565b600060208201905081810360008301526131ac81612b63565b9050919050565b600060208201905081810360008301526131cc81612bc9565b9050919050565b600060208201905081810360008301526131ec81612c09565b9050919050565b6000602082019050818103600083015261320c81612c49565b9050919050565b6000602082019050818103600083015261322c81612caf565b9050919050565b60006020820190506132486000830184612cfe565b92915050565b6000604051905081810181811067ffffffffffffffff8211171561327157600080fd5b8060405250919050565b600067ffffffffffffffff82111561329257600080fd5b602082029050602081019050919050565b6000819050602082019050919050565b600081519050919050565b600081519050919050565b6000602082019050919050565b600082825260208201905092915050565b600081905092915050565b600082825260208201905092915050565b600061330e8261333e565b9050919050565b60008115159050919050565b6000819050919050565b6000819050613339826134b5565b919050565b600073ffffffffffffffffffffffffffffffffffffffff82169050919050565b6000819050919050565b600060ff82169050919050565b6000613380826133bd565b9050919050565b600061339282613399565b9050919050565b60006133a48261333e565b9050919050565b60006133b68261332b565b9050919050565b60006133c8826133cf565b9050919050565b60006133da8261333e565b9050919050565b60005b838110156133ff5780820151818401526020810190506133e4565b8381111561340e576000848401525b50505050565b600061341f82613442565b9050919050565b60006134318261345e565b9050919050565b6000819050919050565b600061344d8261349c565b9050919050565b6000819050919050565b600061346982613470565b9050919050565b60007f010000000000000000000000000000000000000000000000000000000000000082029050919050565b60006c0100000000000000000000000082029050919050565b600581106134bf57fe5b50565b6134cb81613303565b81146134d657600080fd5b50565b6134e281613315565b81146134ed57600080fd5b50565b6134f981613321565b811461350457600080fd5b50565b6135108161335e565b811461351b57600080fd5b50565b61352781613368565b811461353257600080fd5b5056fea365627a7a72315820a001fdabf5809de45428aabfc40a3d9ef51658f55527baea33c5fcc8e0b978476c6578706572696d656e74616cf564736f6c634300050c0040",
  "source": "pragma solidity ^0.5.10;\npragma experimental ABIEncoderV2;\n\nimport '@openzeppelin/contracts/math/SafeMath.sol';\nimport '@openzeppelin/contracts/ownership/Ownable.sol';\nimport '@openzeppelin/contracts/token/ERC20/IERC20.sol';\n\n\n/**\n * @title Exchange\n * @dev Exchange contract for the Orion Protocol\n * @author @wafflemakr\n */\ncontract Exchange is Ownable{\n\n    using SafeMath for uint;\n\n    // EVENTS\n    event NewWanDeposit(address indexed user, uint amount);\n    event NewAssetDeposit(address indexed user, address indexed assetAddress, uint amount);\n    event NewWanWithdrawl(address indexed user, uint amount);\n    event NewAssetWithdrawl(address indexed user, address indexed assetAddress, uint amount);\n    event NewTrade(bytes32 buyOrderHash, bytes32 sellOrderHash, uint filledPrice, uint filledAmount, uint amountToTake);\n    event OrderCancelled(bytes32 indexed orderHash);\n\n    event RecoveredAddress(address sender);\n\n\n    // GLOBAL VARIABLES\n\n    IERC20 public orion;\n\n    enum Status {NEW, PARTIALLY_FILLED, FILLED, PARTIALLY_CANCELLED, CANCELLED}\n\n    struct Order{\n        address senderAddress;\n        address matcherAddress;\n        address baseAsset;\n        address quotetAsset;\n        address matcherFeeAsset;\n        uint amount;\n        uint price;\n        uint matcherFee;\n        uint nonce;\n        uint expiration;\n        bool side; // true = buy false = sell\n    }\n\n    struct Trade{\n        bytes32 orderHash;\n        Status orderStatus;\n        uint filledAmount;\n    }\n\n    // Get trades by orderHash\n    mapping(bytes32 => Trade[]) public trades;\n\n    // Get user balance by address and asset address\n    mapping(address => mapping(address => uint)) public assetBalances;\n\n    // Check if an order was cancelled\n    mapping(bytes32 => bool) public cancelledOrders;\n\n    uint public totalOrders;\n    uint public totalTrades;\n    // Pause or unpause exchangebuyOrderHash\n    bool isActive = true;\n\n\n    // MODIFIERS\n\n    /**\n     * @dev prevents people from using the exchange if not active\n     */\n    modifier onlyActive() {\n        require(isActive, \"contract is not active\");\n        _;\n    }\n\n\n    // MAIN FUNCTIONSh\n    /**\n     * @dev Deposit WAN or ERC20 tokens to the exchange contract\n     * @dev User needs to approve token contract first\n     */\n    function depositAsset(address assetAddress, uint amount) public payable onlyActive{\n        IERC20 asset = IERC20(assetAddress);\n        require(asset.transferFrom(msg.sender, address(this), amount), \"error transfering asset to exchange\");\n\n        assetBalances[msg.sender][assetAddress] = assetBalances[msg.sender][assetAddress].add(amount);\n\n        emit NewAssetDeposit(msg.sender, assetAddress, amount);\n    }\n\n    /**\n     * @dev Deposit WAN to the exchange contract\n     */\n    function depositWan() public payable onlyActive{\n        require(msg.value > 0, \"invalid amount sent\");\n\n        assetBalances[msg.sender][address(0)] = assetBalances[msg.sender][address(0)].add(msg.value);\n\n        emit NewAssetDeposit(msg.sender, address(0), msg.value);\n    }\n\n    /**\n     * @dev Withdrawal of remaining funds from the contract back to the address\n     */\n    function withdraw(address assetAddress, uint amount) public{\n        require(assetBalances[msg.sender][assetAddress] >= amount, \"not enough funds to withdraw\");\n\n        assetBalances[msg.sender][assetAddress] = assetBalances[msg.sender][assetAddress].sub(amount);\n\n        if(assetAddress == address(0))\n            msg.sender.transfer(amount);\n        else{\n            IERC20 asset = IERC20(assetAddress);\n            require(asset.transfer(msg.sender, amount), \"error transfering funds to user\");\n        }\n\n        emit NewAssetWithdrawl(msg.sender, assetAddress, amount);\n    }\n\n\n    /**\n     * @dev Asset balance for a specific address\n     */\n    function getBalance(address assetAddress, address user) public view returns(uint assetBalance){\n        return assetBalances[user][assetAddress];\n    }\n\n    /**\n     * @dev Batch request of asset balances\n     */\n    function getBalances(address[] memory assetsAddresses, address user) public view returns(uint[] memory){\n        uint[] memory balances = new uint[](assetsAddresses.length);\n        for(uint i = 0; i < assetsAddresses.length; i++){\n            balances[i] = assetBalances[user][assetsAddresses[i]];\n        }\n        return balances;\n    }\n\n    /**\n     * @notice Settle a trade with two orders, filled price and amount\n     * @dev 2 orders are submitted, it is necessary to match them:\n        check conditions in orders for compliance filledPrice, filledAmountbuyOrderHash\n        change balances on the contract respectively with buyer, seller, matcbuyOrderHashher\n     * @param buyOrder structure of buy side orderbuyOrderHash\n     * @param sellOrder structure of sell side order\n     * @param filledPrice price at which the order was settled\n     * @param filledAmount amount settled between orders\n     */\n    function fillOrders(Order memory buyOrder, Order memory sellOrder, uint filledPrice, uint filledAmount) public onlyActive{\n\n        //VERIFICATIONS\n\n        require(buyOrder.matcherAddress == msg.sender && sellOrder.matcherAddress == msg.sender, \"incorrect matcher address\");\n        require(buyOrder.baseAsset == sellOrder.baseAsset && buyOrder.quotetAsset == sellOrder.quotetAsset, \"assets do not match\");\n        require(filledPrice <= buyOrder.price, \"incorrect filled price for buy order\");\n        require(filledPrice >= sellOrder.price, \"incorrect filled price for sell order\");\n        require(buyOrder.expiration >= now && sellOrder.expiration >= now, \"order expiration\");\n\n        //Amount of quotet asset\n        uint amountToTake = filledAmount.mul(filledPrice);\n        address buyer = buyOrder.senderAddress;\n        address seller = sellOrder.senderAddress;\n\n        // BUY SIDE CHECK\n\n        require(assetBalances[buyer][buyOrder.quotetAsset] >= amountToTake, \"insufficient buyer's balance\");\n        bytes32 buyOrderHash = _getOrderhash(buyOrder);\n        require(!cancelledOrders[buyOrderHash], \"buy order was cancelled\");\n        // require(_checkAmount(buyOrderHash, buyOrder.amount, filledAmount), \"incorrect filled amount\");\n\n        // SELL SIDE CHECK\n        require(assetBalances[seller][sellOrder.baseAsset] >= filledAmount, \"insufficient seller's balance\");\n        bytes32 sellOrderHash = _getOrderhash(sellOrder);\n        require(!cancelledOrders[sellOrderHash], \"buy order was cancelled\");\n        // require(_checkAmount(sellOrderHash, sellOrder.amount, filledAmount), \"incorrect filled amount\");\n\n        // === VERIFICATIONS DONE ===\n\n        _updateBalances(buyer, seller, buyOrder.baseAsset, buyOrder.quotetAsset, filledAmount, amountToTake);\n\n        totalTrades = totalTrades.add(1);\n\n        // Store trades\n        Trade memory buyTrade = Trade(buyOrderHash, Status.NEW, filledAmount); //temporary set 0 for orderStatus until logic implemented\n        trades[buyOrderHash].push(buyTrade);\n        Trade memory sellTrade = Trade(sellOrderHash, Status.NEW, filledAmount); //temporary set 0 for orderStatus until logic implemented\n        trades[sellOrderHash].push(sellTrade);\n\n        emit NewTrade(buyOrderHash, sellOrderHash, filledPrice, filledAmount, amountToTake);\n\n    }\n\n    function _updateBalances(\n        address buyer, address seller, address baseAsset,\n        address quotetAsset, uint filledAmount, uint amountToTake\n    ) internal{\n        // Update Buyer's Balance (- quoteAsset + baseAsset - matcherFeeAsset)\n        assetBalances[buyer][quotetAsset] = assetBalances[buyer][quotetAsset].sub(amountToTake);\n        assetBalances[buyer][baseAsset] = assetBalances[buyer][baseAsset].add(filledAmount);\n\n        // Update Seller's Balance  (+ quoteAsset - baseAsset - matcherFeeAsset)\n        assetBalances[seller][quotetAsset] = assetBalances[seller][quotetAsset].add(amountToTake);\n        assetBalances[seller][baseAsset] = assetBalances[seller][baseAsset].sub(filledAmount);\n\n    }\n\n    function _checkAmount(bytes32 orderHash, uint orderAmount, uint newTradeAmount) internal view returns(bool){\n        uint totalTradeAmount;\n        for(uint i = 0; i < trades[orderHash].length; i++){\n            totalTradeAmount = totalTradeAmount.add(trades[orderHash][i].filledAmount);\n        }\n        return (totalTradeAmount.add(newTradeAmount) <= orderAmount);\n    }\n\n    function _getOrderhash(Order memory _order) internal pure returns(bytes32){\n        return keccak256(abi.encodePacked(\n            uint(3),\n            _order.senderAddress,\n            _order.matcherAddress,\n            _order.baseAsset,\n            _order.quotetAsset,\n            _order.matcherFeeAsset,\n            _order.amount,\n            _order.price,\n            _order.matcherFee,\n            _order.nonce,\n            _order.expiration,\n            _order.side\n        ));\n    }\n\n    /**\n     *  @dev Performs an `ecrecover` operation for signed message hashes\n     */\n    function _recoverAddress(bytes32 _hash, uint8 _v, bytes32 _r, bytes32 _s)\n        private\n        pure\n        returns (address)\n    {\n        bytes memory prefix = \"\\x19Ethereum Signed Message:\\n32\";\n        bytes32 prefixedHash = keccak256(abi.encodePacked(prefix, _hash));\n        return ecrecover(prefixedHash, _v, _r, _s);\n    }\n\n    function validateOrder(Order memory order, uint8 v, bytes32 r, bytes32 s) public {\n        bytes32 orderHash = _getOrderhash(order);\n        address recovered = _recoverAddress(orderHash, v, r, s);\n\n        emit RecoveredAddress(recovered);\n    }\n\n\n    /**\n     * @dev write an orderHash in the contract so that such an order cannot be filled (executed)\n     */\n    function cancelOrder(Order memory order) public{\n        //TODO: check if order can be cancelled\n\n        bytes32 orderHash = _getOrderhash(order);\n\n        cancelledOrders[orderHash] = true;\n        emit OrderCancelled(orderHash);\n    }\n\n    // OWNER FUNCTIONS\n\n    /**\n     * @dev change state of contracts\n     */\n    function updateContractState(bool newState) public onlyOwner{\n        require(isActive != newState, \"same as current state\");\n        isActive = newState;\n    }\n    \n}",
  "sourcePath": "/home/wafflemakr/Desktop/PROYECTOS/orionex/orion-exchange/contracts/Exchange.sol",
  "compiler": {
    "name": "solc",
    "version": "0.5.12+commit.7709ece9.Emscripten.clang"
  },
  "schemaVersion": "3.0.2",
  "updatedAt": "2019-10-11T06:27:01.256Z",
  "devdoc": {
    "author": "@wafflemakr",
    "details": "Exchange contract for the Orion Protocol",
    "methods": {
      "cancelOrder((address,address,address,address,address,uint256,uint256,uint256,uint256,uint256,bool))": {
        "details": "write an orderHash in the contract so that such an order cannot be filled (executed)"
      },
      "depositAsset(address,uint256)": {
        "details": "Deposit WAN or ERC20 tokens to the exchange contractUser needs to approve token contract first"
      },
      "depositWan()": {
        "details": "Deposit WAN to the exchange contract"
      },
      "fillOrders((address,address,address,address,address,uint256,uint256,uint256,uint256,uint256,bool),(address,address,address,address,address,uint256,uint256,uint256,uint256,uint256,bool),uint256,uint256)": {
        "details": "2 orders are submitted, it is necessary to match them: check conditions in orders for compliance filledPrice, filledAmountbuyOrderHash change balances on the contract respectively with buyer, seller, matcbuyOrderHashher",
        "params": {
          "buyOrder": "structure of buy side orderbuyOrderHash",
          "filledAmount": "amount settled between orders",
          "filledPrice": "price at which the order was settled",
          "sellOrder": "structure of sell side order"
        }
      },
      "getBalance(address,address)": {
        "details": "Asset balance for a specific address"
      },
      "getBalances(address[],address)": {
        "details": "Batch request of asset balances"
      },
      "isOwner()": {
        "details": "Returns true if the caller is the current owner."
      },
      "owner()": {
        "details": "Returns the address of the current owner."
      },
      "renounceOwnership()": {
        "details": "Leaves the contract without owner. It will not be possible to call `onlyOwner` functions anymore. Can only be called by the current owner.     * > Note: Renouncing ownership will leave the contract without an owner, thereby removing any functionality that is only available to the owner."
      },
      "transferOwnership(address)": {
        "details": "Transfers ownership of the contract to a new account (`newOwner`). Can only be called by the current owner."
      },
      "updateContractState(bool)": {
        "details": "change state of contracts"
      },
      "withdraw(address,uint256)": {
        "details": "Withdrawal of remaining funds from the contract back to the address"
      }
    },
    "title": "Exchange"
  },
  "userdoc": {
    "methods": {
      "fillOrders((address,address,address,address,address,uint256,uint256,uint256,uint256,uint256,bool),(address,address,address,address,address,uint256,uint256,uint256,uint256,uint256,bool),uint256,uint256)": {
        "notice": "Settle a trade with two orders, filled price and amount"
      }
    }
  }
}