{
  "contractName": "Exchange",
  "abi": [
    {
      "anonymous": false,
      "inputs": [
        {
          "indexed": true,
          "internalType": "address",
          "name": "user",
          "type": "address"
        },
        {
          "indexed": true,
          "internalType": "address",
          "name": "assetAddress",
          "type": "address"
        },
        {
          "indexed": false,
          "internalType": "uint256",
          "name": "amount",
          "type": "uint256"
        }
      ],
      "name": "NewAssetDeposit",
      "type": "event",
      "signature": "0x87e95ee7cdd8ce169873b1be6add255c13ec04051d493c3346c1e705a849e620"
    },
    {
      "anonymous": false,
      "inputs": [
        {
          "indexed": true,
          "internalType": "address",
          "name": "user",
          "type": "address"
        },
        {
          "indexed": true,
          "internalType": "address",
          "name": "assetAddress",
          "type": "address"
        },
        {
          "indexed": false,
          "internalType": "uint256",
          "name": "amount",
          "type": "uint256"
        }
      ],
      "name": "NewAssetWithdrawl",
      "type": "event",
      "signature": "0x29f9103583c97b319d05287c41c024d7219f7217e16ca5f4066a7c2019cd2fd8"
    },
    {
      "anonymous": false,
      "inputs": [
        {
          "indexed": false,
          "internalType": "bytes32",
          "name": "buyOrderHash",
          "type": "bytes32"
        },
        {
          "indexed": false,
          "internalType": "bytes32",
          "name": "sellOrderHash",
          "type": "bytes32"
        },
        {
          "indexed": false,
          "internalType": "uint256",
          "name": "filledPrice",
          "type": "uint256"
        },
        {
          "indexed": false,
          "internalType": "uint256",
          "name": "filledAmount",
          "type": "uint256"
        },
        {
          "indexed": false,
          "internalType": "uint256",
          "name": "amountToTake",
          "type": "uint256"
        }
      ],
      "name": "NewTrade",
      "type": "event",
      "signature": "0xb6cd6c67a54af9431b22579bc0ca8767337fe44be7dfa5107eda536a1e5edb24"
    },
    {
      "anonymous": false,
      "inputs": [
        {
          "indexed": true,
          "internalType": "bytes32",
          "name": "orderHash",
          "type": "bytes32"
        }
      ],
      "name": "OrderCancelled",
      "type": "event",
      "signature": "0x5152abf959f6564662358c2e52b702259b78bac5ee7842a0f01937e670efcc7d"
    },
    {
      "anonymous": false,
      "inputs": [
        {
          "indexed": true,
          "internalType": "address",
          "name": "previousOwner",
          "type": "address"
        },
        {
          "indexed": true,
          "internalType": "address",
          "name": "newOwner",
          "type": "address"
        }
      ],
      "name": "OwnershipTransferred",
      "type": "event",
      "signature": "0x8be0079c531659141344cd1fd0a4f28419497f9722a3daafe3b4186f6b6457e0"
    },
    {
      "constant": true,
      "inputs": [
        {
          "internalType": "address",
          "name": "",
          "type": "address"
        },
        {
          "internalType": "address",
          "name": "",
          "type": "address"
        }
      ],
      "name": "assetBalances",
      "outputs": [
        {
          "internalType": "uint256",
          "name": "",
          "type": "uint256"
        }
      ],
      "payable": false,
      "stateMutability": "view",
      "type": "function",
      "signature": "0xbdfce5bf"
    },
    {
      "constant": true,
      "inputs": [
        {
          "internalType": "bytes32",
          "name": "",
          "type": "bytes32"
        }
      ],
      "name": "cancelledOrders",
      "outputs": [
        {
          "internalType": "bool",
          "name": "",
          "type": "bool"
        }
      ],
      "payable": false,
      "stateMutability": "view",
      "type": "function",
      "signature": "0x8f13f48e"
    },
    {
      "constant": true,
      "inputs": [],
      "name": "isOwner",
      "outputs": [
        {
          "internalType": "bool",
          "name": "",
          "type": "bool"
        }
      ],
      "payable": false,
      "stateMutability": "view",
      "type": "function",
      "signature": "0x8f32d59b"
    },
    {
      "constant": true,
      "inputs": [],
      "name": "orion",
      "outputs": [
        {
          "internalType": "contract IERC20",
          "name": "",
          "type": "address"
        }
      ],
      "payable": false,
      "stateMutability": "view",
      "type": "function",
      "signature": "0xcdfd441e"
    },
    {
      "constant": true,
      "inputs": [],
      "name": "owner",
      "outputs": [
        {
          "internalType": "address",
          "name": "",
          "type": "address"
        }
      ],
      "payable": false,
      "stateMutability": "view",
      "type": "function",
      "signature": "0x8da5cb5b"
    },
    {
      "constant": false,
      "inputs": [],
      "name": "renounceOwnership",
      "outputs": [],
      "payable": false,
      "stateMutability": "nonpayable",
      "type": "function",
      "signature": "0x715018a6"
    },
    {
      "constant": true,
      "inputs": [],
      "name": "totalOrders",
      "outputs": [
        {
          "internalType": "uint256",
          "name": "",
          "type": "uint256"
        }
      ],
      "payable": false,
      "stateMutability": "view",
      "type": "function",
      "signature": "0x1d834409"
    },
    {
      "constant": true,
      "inputs": [],
      "name": "totalTrades",
      "outputs": [
        {
          "internalType": "uint256",
          "name": "",
          "type": "uint256"
        }
      ],
      "payable": false,
      "stateMutability": "view",
      "type": "function",
      "signature": "0xe275c997"
    },
    {
      "constant": true,
      "inputs": [
        {
          "internalType": "bytes32",
          "name": "",
          "type": "bytes32"
        },
        {
          "internalType": "uint256",
          "name": "",
          "type": "uint256"
        }
      ],
      "name": "trades",
      "outputs": [
        {
          "internalType": "bytes32",
          "name": "orderHash",
          "type": "bytes32"
        },
        {
          "internalType": "enum Exchange.Status",
          "name": "orderStatus",
          "type": "uint8"
        },
        {
          "internalType": "uint256",
          "name": "filledAmount",
          "type": "uint256"
        }
      ],
      "payable": false,
      "stateMutability": "view",
      "type": "function",
      "signature": "0x50ef1f5d"
    },
    {
      "constant": false,
      "inputs": [
        {
          "internalType": "address",
          "name": "newOwner",
          "type": "address"
        }
      ],
      "name": "transferOwnership",
      "outputs": [],
      "payable": false,
      "stateMutability": "nonpayable",
      "type": "function",
      "signature": "0xf2fde38b"
    },
    {
      "constant": false,
      "inputs": [
        {
          "internalType": "address",
          "name": "assetAddress",
          "type": "address"
        },
        {
          "internalType": "uint256",
          "name": "amount",
          "type": "uint256"
        }
      ],
      "name": "depositAsset",
      "outputs": [],
      "payable": true,
      "stateMutability": "payable",
      "type": "function",
      "signature": "0x46a5d043"
    },
    {
      "constant": false,
      "inputs": [],
      "name": "depositWan",
      "outputs": [],
      "payable": true,
      "stateMutability": "payable",
      "type": "function",
      "signature": "0x76a207b8"
    },
    {
      "constant": false,
      "inputs": [
        {
          "internalType": "address",
          "name": "assetAddress",
          "type": "address"
        },
        {
          "internalType": "uint256",
          "name": "amount",
          "type": "uint256"
        }
      ],
      "name": "withdraw",
      "outputs": [],
      "payable": false,
      "stateMutability": "nonpayable",
      "type": "function",
      "signature": "0xf3fef3a3"
    },
    {
      "constant": true,
      "inputs": [
        {
          "internalType": "address",
          "name": "assetAddress",
          "type": "address"
        },
        {
          "internalType": "address",
          "name": "user",
          "type": "address"
        }
      ],
      "name": "getBalance",
      "outputs": [
        {
          "internalType": "uint256",
          "name": "assetBalance",
          "type": "uint256"
        }
      ],
      "payable": false,
      "stateMutability": "view",
      "type": "function",
      "signature": "0xd4fac45d"
    },
    {
      "constant": true,
      "inputs": [
        {
          "internalType": "address[]",
          "name": "assetsAddresses",
          "type": "address[]"
        },
        {
          "internalType": "address",
          "name": "user",
          "type": "address"
        }
      ],
      "name": "getBalances",
      "outputs": [
        {
          "internalType": "uint256[]",
          "name": "",
          "type": "uint256[]"
        }
      ],
      "payable": false,
      "stateMutability": "view",
      "type": "function",
      "signature": "0xd1c07028"
    },
    {
      "constant": false,
      "inputs": [
        {
          "components": [
            {
              "internalType": "address",
              "name": "senderAddress",
              "type": "address"
            },
            {
              "internalType": "address",
              "name": "matcherAddress",
              "type": "address"
            },
            {
              "internalType": "address",
              "name": "baseAsset",
              "type": "address"
            },
            {
              "internalType": "address",
              "name": "quoteAsset",
              "type": "address"
            },
            {
              "internalType": "address",
              "name": "matcherFeeAsset",
              "type": "address"
            },
            {
              "internalType": "uint64",
              "name": "amount",
              "type": "uint64"
            },
            {
              "internalType": "uint64",
              "name": "price",
              "type": "uint64"
            },
            {
              "internalType": "uint64",
              "name": "matcherFee",
              "type": "uint64"
            },
            {
              "internalType": "uint64",
              "name": "nonce",
              "type": "uint64"
            },
            {
              "internalType": "uint64",
              "name": "expiration",
              "type": "uint64"
            },
            {
              "internalType": "string",
              "name": "side",
              "type": "string"
            }
          ],
          "internalType": "struct Exchange.Order",
          "name": "buyOrder",
          "type": "tuple"
        },
        {
          "components": [
            {
              "internalType": "address",
              "name": "senderAddress",
              "type": "address"
            },
            {
              "internalType": "address",
              "name": "matcherAddress",
              "type": "address"
            },
            {
              "internalType": "address",
              "name": "baseAsset",
              "type": "address"
            },
            {
              "internalType": "address",
              "name": "quoteAsset",
              "type": "address"
            },
            {
              "internalType": "address",
              "name": "matcherFeeAsset",
              "type": "address"
            },
            {
              "internalType": "uint64",
              "name": "amount",
              "type": "uint64"
            },
            {
              "internalType": "uint64",
              "name": "price",
              "type": "uint64"
            },
            {
              "internalType": "uint64",
              "name": "matcherFee",
              "type": "uint64"
            },
            {
              "internalType": "uint64",
              "name": "nonce",
              "type": "uint64"
            },
            {
              "internalType": "uint64",
              "name": "expiration",
              "type": "uint64"
            },
            {
              "internalType": "string",
              "name": "side",
              "type": "string"
            }
          ],
          "internalType": "struct Exchange.Order",
          "name": "sellOrder",
          "type": "tuple"
        },
        {
          "components": [
            {
              "internalType": "bytes32",
              "name": "r",
              "type": "bytes32"
            },
            {
              "internalType": "bytes32",
              "name": "s",
              "type": "bytes32"
            },
            {
              "internalType": "uint8",
              "name": "v",
              "type": "uint8"
            }
          ],
          "internalType": "struct Exchange.Signature",
          "name": "buySig",
          "type": "tuple"
        },
        {
          "components": [
            {
              "internalType": "bytes32",
              "name": "r",
              "type": "bytes32"
            },
            {
              "internalType": "bytes32",
              "name": "s",
              "type": "bytes32"
            },
            {
              "internalType": "uint8",
              "name": "v",
              "type": "uint8"
            }
          ],
          "internalType": "struct Exchange.Signature",
          "name": "sellSig",
          "type": "tuple"
        },
        {
          "internalType": "uint256",
          "name": "filledPrice",
          "type": "uint256"
        },
        {
          "internalType": "uint256",
          "name": "filledAmount",
          "type": "uint256"
        }
      ],
      "name": "fillOrders",
      "outputs": [],
      "payable": false,
      "stateMutability": "nonpayable",
      "type": "function",
      "signature": "0x98020631"
    },
    {
      "constant": false,
      "inputs": [
        {
          "components": [
            {
              "internalType": "address",
              "name": "senderAddress",
              "type": "address"
            },
            {
              "internalType": "address",
              "name": "matcherAddress",
              "type": "address"
            },
            {
              "internalType": "address",
              "name": "baseAsset",
              "type": "address"
            },
            {
              "internalType": "address",
              "name": "quoteAsset",
              "type": "address"
            },
            {
              "internalType": "address",
              "name": "matcherFeeAsset",
              "type": "address"
            },
            {
              "internalType": "uint64",
              "name": "amount",
              "type": "uint64"
            },
            {
              "internalType": "uint64",
              "name": "price",
              "type": "uint64"
            },
            {
              "internalType": "uint64",
              "name": "matcherFee",
              "type": "uint64"
            },
            {
              "internalType": "uint64",
              "name": "nonce",
              "type": "uint64"
            },
            {
              "internalType": "uint64",
              "name": "expiration",
              "type": "uint64"
            },
            {
              "internalType": "string",
              "name": "side",
              "type": "string"
            }
          ],
          "internalType": "struct Exchange.Order",
          "name": "order",
          "type": "tuple"
        },
        {
          "components": [
            {
              "internalType": "bytes32",
              "name": "r",
              "type": "bytes32"
            },
            {
              "internalType": "bytes32",
              "name": "s",
              "type": "bytes32"
            },
            {
              "internalType": "uint8",
              "name": "v",
              "type": "uint8"
            }
          ],
          "internalType": "struct Exchange.Signature",
          "name": "sig",
          "type": "tuple"
        }
      ],
      "name": "isValidSignature",
      "outputs": [
        {
          "internalType": "bool",
          "name": "",
          "type": "bool"
        }
      ],
      "payable": false,
      "stateMutability": "nonpayable",
      "type": "function",
      "signature": "0xcbd43204"
    },
    {
      "constant": false,
      "inputs": [
        {
          "components": [
            {
              "internalType": "address",
              "name": "senderAddress",
              "type": "address"
            },
            {
              "internalType": "address",
              "name": "matcherAddress",
              "type": "address"
            },
            {
              "internalType": "address",
              "name": "baseAsset",
              "type": "address"
            },
            {
              "internalType": "address",
              "name": "quoteAsset",
              "type": "address"
            },
            {
              "internalType": "address",
              "name": "matcherFeeAsset",
              "type": "address"
            },
            {
              "internalType": "uint64",
              "name": "amount",
              "type": "uint64"
            },
            {
              "internalType": "uint64",
              "name": "price",
              "type": "uint64"
            },
            {
              "internalType": "uint64",
              "name": "matcherFee",
              "type": "uint64"
            },
            {
              "internalType": "uint64",
              "name": "nonce",
              "type": "uint64"
            },
            {
              "internalType": "uint64",
              "name": "expiration",
              "type": "uint64"
            },
            {
              "internalType": "string",
              "name": "side",
              "type": "string"
            }
          ],
          "internalType": "struct Exchange.Order",
          "name": "order",
          "type": "tuple"
        }
      ],
      "name": "cancelOrder",
      "outputs": [],
      "payable": false,
      "stateMutability": "nonpayable",
      "type": "function",
      "signature": "0x34d9aa56"
    },
    {
      "constant": false,
      "inputs": [
        {
          "internalType": "bool",
          "name": "newState",
          "type": "bool"
        }
      ],
      "name": "updateContractState",
      "outputs": [],
      "payable": false,
      "stateMutability": "nonpayable",
      "type": "function",
      "signature": "0x2fa68b32"
    }
  ],
  "bytecode": "0x60806040526001600760006101000a81548160ff021916908315150217905550336000806101000a81548173ffffffffffffffffffffffffffffffffffffffff021916908373ffffffffffffffffffffffffffffffffffffffff1602179055506000809054906101000a900473ffffffffffffffffffffffffffffffffffffffff1673ffffffffffffffffffffffffffffffffffffffff16600073ffffffffffffffffffffffffffffffffffffffff167f8be0079c531659141344cd1fd0a4f28419497f9722a3daafe3b4186f6b6457e060405160405180910390a3613b96806100ea6000396000f3fe608060405260043610610131576000357c0100000000000000000000000000000000000000000000000000000000900480638f32d59b116100bd578063d1c0702811610081578063d1c0702814610390578063d4fac45d146103cd578063e275c9971461040a578063f2fde38b14610435578063f3fef3a31461045e57610131565b80638f32d59b1461029757806398020631146102c2578063bdfce5bf146102eb578063cbd4320414610328578063cdfd441e1461036557610131565b806350ef1f5d1161010457806350ef1f5d146101cf578063715018a61461020e57806376a207b8146102255780638da5cb5b1461022f5780638f13f48e1461025a57610131565b80631d834409146101365780632fa68b321461016157806334d9aa561461018a57806346a5d043146101b3575b600080fd5b34801561014257600080fd5b5061014b610487565b60405161015891906137c3565b60405180910390f35b34801561016d57600080fd5b50610188600480360361018391908101906127f6565b61048d565b005b34801561019657600080fd5b506101b160048036036101ac91908101906128ad565b610547565b005b6101cd60048036036101c89190810190612766565b6105b1565b005b3480156101db57600080fd5b506101f660048036036101f19190810190612871565b610868565b6040516102059392919061346c565b60405180910390f35b34801561021a57600080fd5b506102236108b9565b005b61022d6109bf565b005b34801561023b57600080fd5b50610244610bc8565b6040516102519190613361565b60405180910390f35b34801561026657600080fd5b50610281600480360361027c9190810190612848565b610bf1565b60405161028e91906133fe565b60405180910390f35b3480156102a357600080fd5b506102ac610c11565b6040516102b991906133fe565b60405180910390f35b3480156102ce57600080fd5b506102e960048036036102e491908101906128ee565b610c68565b005b3480156102f757600080fd5b50610312600480360361030d919081019061272a565b61143b565b60405161031f91906137c3565b60405180910390f35b34801561033457600080fd5b5061034f600480360361034a91908101906129aa565b611460565b60405161035c91906133fe565b60405180910390f35b34801561037157600080fd5b5061037a6114c7565b60405161038791906134e8565b60405180910390f35b34801561039c57600080fd5b506103b760048036036103b291908101906127a2565b6114ed565b6040516103c491906133dc565b60405180910390f35b3480156103d957600080fd5b506103f460048036036103ef919081019061272a565b6115f2565b60405161040191906137c3565b60405180910390f35b34801561041657600080fd5b5061041f611679565b60405161042c91906137c3565b60405180910390f35b34801561044157600080fd5b5061045c60048036036104579190810190612701565b61167f565b005b34801561046a57600080fd5b5061048560048036036104809190810190612766565b6116d2565b005b60055481565b610495610c11565b6104d4576040517f08c379a00000000000000000000000000000000000000000000000000000000081526004016104cb906136a3565b60405180910390fd5b801515600760009054906101000a900460ff161515141561052a576040517f08c379a000000000000000000000000000000000000000000000000000000000815260040161052190613663565b60405180910390fd5b80600760006101000a81548160ff02191690831515021790555050565b600061055282611a79565b905060016004600083815260200190815260200160002060006101000a81548160ff021916908315150217905550807f5152abf959f6564662358c2e52b702259b78bac5ee7842a0f01937e670efcc7d60405160405180910390a25050565b600760009054906101000a900460ff16610600576040517f08c379a00000000000000000000000000000000000000000000000000000000081526004016105f790613583565b60405180910390fd5b60008290508073ffffffffffffffffffffffffffffffffffffffff166323b872dd3330856040518463ffffffff167c010000000000000000000000000000000000000000000000000000000002815260040161065e9392919061337c565b602060405180830381600087803b15801561067857600080fd5b505af115801561068c573d6000803e3d6000fd5b505050506040513d601f19601f820116820180604052506106b0919081019061281f565b6106ef576040517f08c379a00000000000000000000000000000000000000000000000000000000081526004016106e6906136e3565b60405180910390fd5b61077e82600360003373ffffffffffffffffffffffffffffffffffffffff1673ffffffffffffffffffffffffffffffffffffffff16815260200190815260200160002060008673ffffffffffffffffffffffffffffffffffffffff1673ffffffffffffffffffffffffffffffffffffffff16815260200190815260200160002054611c3b90919063ffffffff16565b600360003373ffffffffffffffffffffffffffffffffffffffff1673ffffffffffffffffffffffffffffffffffffffff16815260200190815260200160002060008573ffffffffffffffffffffffffffffffffffffffff1673ffffffffffffffffffffffffffffffffffffffff168152602001908152602001600020819055508273ffffffffffffffffffffffffffffffffffffffff163373ffffffffffffffffffffffffffffffffffffffff167f87e95ee7cdd8ce169873b1be6add255c13ec04051d493c3346c1e705a849e6208460405161085b91906137c3565b60405180910390a3505050565b6002602052816000526040600020818154811061088157fe5b9060005260206000209060030201600091509150508060000154908060010160009054906101000a900460ff16908060020154905083565b6108c1610c11565b610900576040517f08c379a00000000000000000000000000000000000000000000000000000000081526004016108f7906136a3565b60405180910390fd5b600073ffffffffffffffffffffffffffffffffffffffff166000809054906101000a900473ffffffffffffffffffffffffffffffffffffffff1673ffffffffffffffffffffffffffffffffffffffff167f8be0079c531659141344cd1fd0a4f28419497f9722a3daafe3b4186f6b6457e060405160405180910390a360008060006101000a81548173ffffffffffffffffffffffffffffffffffffffff021916908373ffffffffffffffffffffffffffffffffffffffff160217905550565b600760009054906101000a900460ff16610a0e576040517f08c379a0000000000000000000000000000000000000000000000000000000008152600401610a0590613583565b60405180910390fd5b60003411610a51576040517f08c379a0000000000000000000000000000000000000000000000000000000008152600401610a48906137a3565b60405180910390fd5b610ae034600360003373ffffffffffffffffffffffffffffffffffffffff1673ffffffffffffffffffffffffffffffffffffffff16815260200190815260200160002060008073ffffffffffffffffffffffffffffffffffffffff1673ffffffffffffffffffffffffffffffffffffffff16815260200190815260200160002054611c3b90919063ffffffff16565b600360003373ffffffffffffffffffffffffffffffffffffffff1673ffffffffffffffffffffffffffffffffffffffff16815260200190815260200160002060008073ffffffffffffffffffffffffffffffffffffffff1673ffffffffffffffffffffffffffffffffffffffff16815260200190815260200160002081905550600073ffffffffffffffffffffffffffffffffffffffff163373ffffffffffffffffffffffffffffffffffffffff167f87e95ee7cdd8ce169873b1be6add255c13ec04051d493c3346c1e705a849e62034604051610bbe91906137c3565b60405180910390a3565b60008060009054906101000a900473ffffffffffffffffffffffffffffffffffffffff16905090565b60046020528060005260406000206000915054906101000a900460ff1681565b60008060009054906101000a900473ffffffffffffffffffffffffffffffffffffffff1673ffffffffffffffffffffffffffffffffffffffff163373ffffffffffffffffffffffffffffffffffffffff1614905090565b600760009054906101000a900460ff16610cb7576040517f08c379a0000000000000000000000000000000000000000000000000000000008152600401610cae90613583565b60405180910390fd5b610cc18685611460565b610d00576040517f08c379a0000000000000000000000000000000000000000000000000000000008152600401610cf790613783565b60405180910390fd5b610d0a8584611460565b610d49576040517f08c379a0000000000000000000000000000000000000000000000000000000008152600401610d4090613763565b60405180910390fd5b3373ffffffffffffffffffffffffffffffffffffffff16866020015173ffffffffffffffffffffffffffffffffffffffff16148015610db757503373ffffffffffffffffffffffffffffffffffffffff16856020015173ffffffffffffffffffffffffffffffffffffffff16145b610df6576040517f08c379a0000000000000000000000000000000000000000000000000000000008152600401610ded906136c3565b60405180910390fd5b846040015173ffffffffffffffffffffffffffffffffffffffff16866040015173ffffffffffffffffffffffffffffffffffffffff16148015610e6c5750846060015173ffffffffffffffffffffffffffffffffffffffff16866060015173ffffffffffffffffffffffffffffffffffffffff16145b610eab576040517f08c379a0000000000000000000000000000000000000000000000000000000008152600401610ea290613603565b60405180910390fd5b8560c0015167ffffffffffffffff16821115610efc576040517f08c379a0000000000000000000000000000000000000000000000000000000008152600401610ef3906135c3565b60405180910390fd5b8460c0015167ffffffffffffffff16821015610f4d576040517f08c379a0000000000000000000000000000000000000000000000000000000008152600401610f4490613743565b60405180910390fd5b4286610120015167ffffffffffffffff1610158015610f7b57504285610120015167ffffffffffffffff1610155b610fba576040517f08c379a0000000000000000000000000000000000000000000000000000000008152600401610fb190613703565b60405180910390fd5b6000610fe56305f5e100610fd78585611c9090919063ffffffff16565b611d0090919063ffffffff16565b905060008760000151905060008760000151905082600360008473ffffffffffffffffffffffffffffffffffffffff1673ffffffffffffffffffffffffffffffffffffffff16815260200190815260200160002060008b6060015173ffffffffffffffffffffffffffffffffffffffff1673ffffffffffffffffffffffffffffffffffffffff1681526020019081526020016000205410156110bc576040517f08c379a00000000000000000000000000000000000000000000000000000000081526004016110b390613643565b60405180910390fd5b60006110c78a611a79565b90506004600082815260200190815260200160002060009054906101000a900460ff161561112a576040517f08c379a0000000000000000000000000000000000000000000000000000000008152600401611121906135a3565b60405180910390fd5b84600360008473ffffffffffffffffffffffffffffffffffffffff1673ffffffffffffffffffffffffffffffffffffffff16815260200190815260200160002060008b6040015173ffffffffffffffffffffffffffffffffffffffff1673ffffffffffffffffffffffffffffffffffffffff1681526020019081526020016000205410156111ed576040517f08c379a00000000000000000000000000000000000000000000000000000000081526004016111e490613503565b60405180910390fd5b60006111f88a611a79565b90506004600082815260200190815260200160002060009054906101000a900460ff161561125b576040517f08c379a0000000000000000000000000000000000000000000000000000000008152600401611252906135a3565b60405180910390fd5b61127184848d604001518e606001518a8a611d5c565b6112876001600654611c3b90919063ffffffff16565b6006819055506112956123e8565b6040518060600160405280848152602001600060048111156112b357fe5b81526020018881525090506002600084815260200190815260200160002081908060018154018082558091505090600182039060005260206000209060030201600090919290919091506000820151816000015560208201518160010160006101000a81548160ff0219169083600481111561132b57fe5b0217905550604082015181600201555050506113456123e8565b60405180606001604052808481526020016000600481111561136357fe5b81526020018981525090506002600084815260200190815260200160002081908060018154018082558091505090600182039060005260206000209060030201600090919290919091506000820151816000015560208201518160010160006101000a81548160ff021916908360048111156113db57fe5b0217905550604082015181600201555050507fb6cd6c67a54af9431b22579bc0ca8767337fe44be7dfa5107eda536a1e5edb2484848b8b8b604051611424959493929190613419565b60405180910390a150505050505050505050505050565b6003602052816000526040600020602052806000526040600020600091509150505481565b60008061146c84611a79565b90506000611488828560400151866000015187602001516121a0565b9050846000015173ffffffffffffffffffffffffffffffffffffffff168173ffffffffffffffffffffffffffffffffffffffff16149250505092915050565b600160009054906101000a900473ffffffffffffffffffffffffffffffffffffffff1681565b60608083516040519080825280602002602001820160405280156115205781602001602082028038833980820191505090505b50905060008090505b84518110156115e757600360008573ffffffffffffffffffffffffffffffffffffffff1673ffffffffffffffffffffffffffffffffffffffff168152602001908152602001600020600086838151811061157f57fe5b602002602001015173ffffffffffffffffffffffffffffffffffffffff1673ffffffffffffffffffffffffffffffffffffffff168152602001908152602001600020548282815181106115ce57fe5b6020026020010181815250508080600101915050611529565b508091505092915050565b6000600360008373ffffffffffffffffffffffffffffffffffffffff1673ffffffffffffffffffffffffffffffffffffffff16815260200190815260200160002060008473ffffffffffffffffffffffffffffffffffffffff1673ffffffffffffffffffffffffffffffffffffffff16815260200190815260200160002054905092915050565b60065481565b611687610c11565b6116c6576040517f08c379a00000000000000000000000000000000000000000000000000000000081526004016116bd906136a3565b60405180910390fd5b6116cf81612264565b50565b80600360003373ffffffffffffffffffffffffffffffffffffffff1673ffffffffffffffffffffffffffffffffffffffff16815260200190815260200160002060008473ffffffffffffffffffffffffffffffffffffffff1673ffffffffffffffffffffffffffffffffffffffff168152602001908152602001600020541015611791576040517f08c379a000000000000000000000000000000000000000000000000000000000815260040161178890613723565b60405180910390fd5b61182081600360003373ffffffffffffffffffffffffffffffffffffffff1673ffffffffffffffffffffffffffffffffffffffff16815260200190815260200160002060008573ffffffffffffffffffffffffffffffffffffffff1673ffffffffffffffffffffffffffffffffffffffff1681526020019081526020016000205461239290919063ffffffff16565b600360003373ffffffffffffffffffffffffffffffffffffffff1673ffffffffffffffffffffffffffffffffffffffff16815260200190815260200160002060008473ffffffffffffffffffffffffffffffffffffffff1673ffffffffffffffffffffffffffffffffffffffff16815260200190815260200160002081905550600073ffffffffffffffffffffffffffffffffffffffff168273ffffffffffffffffffffffffffffffffffffffff161415611921573373ffffffffffffffffffffffffffffffffffffffff166108fc829081150290604051600060405180830381858888f1935050505015801561191b573d6000803e3d6000fd5b50611a10565b60008290508073ffffffffffffffffffffffffffffffffffffffff1663a9059cbb33846040518363ffffffff167c010000000000000000000000000000000000000000000000000000000002815260040161197d9291906133b3565b602060405180830381600087803b15801561199757600080fd5b505af11580156119ab573d6000803e3d6000fd5b505050506040513d601f19601f820116820180604052506119cf919081019061281f565b611a0e576040517f08c379a0000000000000000000000000000000000000000000000000000000008152600401611a0590613523565b60405180910390fd5b505b8173ffffffffffffffffffffffffffffffffffffffff163373ffffffffffffffffffffffffffffffffffffffff167f29f9103583c97b319d05287c41c024d7219f7217e16ca5f4066a7c2019cd2fd883604051611a6d91906137c3565b60405180910390a35050565b600080604051602001611a8b9061334c565b60405160208183030381529060405280519060200120905060037f010000000000000000000000000000000000000000000000000000000000000002836000015184602001518560400151866060015187608001518860a001517801000000000000000000000000000000000000000000000000028960c001517801000000000000000000000000000000000000000000000000028a60e001517801000000000000000000000000000000000000000000000000028b61010001517801000000000000000000000000000000000000000000000000028c61012001517801000000000000000000000000000000000000000000000000028b8e6101400151604051602001611b999190613335565b6040516020818303038152906040528051906020012014611bdd5760017f010000000000000000000000000000000000000000000000000000000000000002611c02565b60007f0100000000000000000000000000000000000000000000000000000000000000025b604051602001611c1d9c9b9a99989796959493929190613237565b60405160208183030381529060405280519060200120915050919050565b600080828401905083811015611c86576040517f08c379a0000000000000000000000000000000000000000000000000000000008152600401611c7d90613563565b60405180910390fd5b8091505092915050565b600080831415611ca35760009050611cfa565b6000828402905082848281611cb457fe5b0414611cf5576040517f08c379a0000000000000000000000000000000000000000000000000000000008152600401611cec90613683565b60405180910390fd5b809150505b92915050565b6000808211611d44576040517f08c379a0000000000000000000000000000000000000000000000000000000008152600401611d3b90613623565b60405180910390fd5b6000828481611d4f57fe5b0490508091505092915050565b611deb81600360008973ffffffffffffffffffffffffffffffffffffffff1673ffffffffffffffffffffffffffffffffffffffff16815260200190815260200160002060008673ffffffffffffffffffffffffffffffffffffffff1673ffffffffffffffffffffffffffffffffffffffff1681526020019081526020016000205461239290919063ffffffff16565b600360008873ffffffffffffffffffffffffffffffffffffffff1673ffffffffffffffffffffffffffffffffffffffff16815260200190815260200160002060008573ffffffffffffffffffffffffffffffffffffffff1673ffffffffffffffffffffffffffffffffffffffff16815260200190815260200160002081905550611efa82600360008973ffffffffffffffffffffffffffffffffffffffff1673ffffffffffffffffffffffffffffffffffffffff16815260200190815260200160002060008773ffffffffffffffffffffffffffffffffffffffff1673ffffffffffffffffffffffffffffffffffffffff16815260200190815260200160002054611c3b90919063ffffffff16565b600360008873ffffffffffffffffffffffffffffffffffffffff1673ffffffffffffffffffffffffffffffffffffffff16815260200190815260200160002060008673ffffffffffffffffffffffffffffffffffffffff1673ffffffffffffffffffffffffffffffffffffffff1681526020019081526020016000208190555061200981600360008873ffffffffffffffffffffffffffffffffffffffff1673ffffffffffffffffffffffffffffffffffffffff16815260200190815260200160002060008673ffffffffffffffffffffffffffffffffffffffff1673ffffffffffffffffffffffffffffffffffffffff16815260200190815260200160002054611c3b90919063ffffffff16565b600360008773ffffffffffffffffffffffffffffffffffffffff1673ffffffffffffffffffffffffffffffffffffffff16815260200190815260200160002060008573ffffffffffffffffffffffffffffffffffffffff1673ffffffffffffffffffffffffffffffffffffffff1681526020019081526020016000208190555061211882600360008873ffffffffffffffffffffffffffffffffffffffff1673ffffffffffffffffffffffffffffffffffffffff16815260200190815260200160002060008773ffffffffffffffffffffffffffffffffffffffff1673ffffffffffffffffffffffffffffffffffffffff1681526020019081526020016000205461239290919063ffffffff16565b600360008773ffffffffffffffffffffffffffffffffffffffff1673ffffffffffffffffffffffffffffffffffffffff16815260200190815260200160002060008673ffffffffffffffffffffffffffffffffffffffff1673ffffffffffffffffffffffffffffffffffffffff16815260200190815260200160002081905550505050505050565b600060606040518060400160405280601c81526020017f19457468657265756d205369676e6564204d6573736167653a0a3332000000008152509050600081876040516020016121f192919061330d565b6040516020818303038152906040528051906020012090506001818787876040516000815260200160405260405161222c94939291906134a3565b6020604051602081039080840390855afa15801561224e573d6000803e3d6000fd5b5050506020604051035192505050949350505050565b600073ffffffffffffffffffffffffffffffffffffffff168173ffffffffffffffffffffffffffffffffffffffff1614156122d4576040517f08c379a00000000000000000000000000000000000000000000000000000000081526004016122cb90613543565b60405180910390fd5b8073ffffffffffffffffffffffffffffffffffffffff166000809054906101000a900473ffffffffffffffffffffffffffffffffffffffff1673ffffffffffffffffffffffffffffffffffffffff167f8be0079c531659141344cd1fd0a4f28419497f9722a3daafe3b4186f6b6457e060405160405180910390a3806000806101000a81548173ffffffffffffffffffffffffffffffffffffffff021916908373ffffffffffffffffffffffffffffffffffffffff16021790555050565b6000828211156123d7576040517f08c379a00000000000000000000000000000000000000000000000000000000081526004016123ce906135e3565b60405180910390fd5b600082840390508091505092915050565b6040518060600160405280600080191681526020016000600481111561240a57fe5b8152602001600081525090565b60008135905061242681613ac9565b92915050565b600082601f83011261243d57600080fd5b813561245061244b8261380b565b6137de565b9150818183526020840193506020810190508385602084028201111561247557600080fd5b60005b838110156124a5578161248b8882612417565b845260208401935060208301925050600181019050612478565b5050505092915050565b6000813590506124be81613ae0565b92915050565b6000815190506124d381613ae0565b92915050565b6000813590506124e881613af7565b92915050565b600082601f8301126124ff57600080fd5b813561251261250d82613833565b6137de565b9150808252602083016020830185838301111561252e57600080fd5b612539838284613a1f565b50505092915050565b6000610160828403121561255557600080fd5b6125606101606137de565b9050600061257084828501612417565b600083015250602061258484828501612417565b602083015250604061259884828501612417565b60408301525060606125ac84828501612417565b60608301525060806125c084828501612417565b60808301525060a06125d4848285016126d7565b60a08301525060c06125e8848285016126d7565b60c08301525060e06125fc848285016126d7565b60e083015250610100612611848285016126d7565b61010083015250610120612627848285016126d7565b6101208301525061014082013567ffffffffffffffff81111561264957600080fd5b612655848285016124ee565b6101408301525092915050565b60006060828403121561267457600080fd5b61267e60606137de565b9050600061268e848285016124d9565b60008301525060206126a2848285016124d9565b60208301525060406126b6848285016126ec565b60408301525092915050565b6000813590506126d181613b0e565b92915050565b6000813590506126e681613b25565b92915050565b6000813590506126fb81613b3c565b92915050565b60006020828403121561271357600080fd5b600061272184828501612417565b91505092915050565b6000806040838503121561273d57600080fd5b600061274b85828601612417565b925050602061275c85828601612417565b9150509250929050565b6000806040838503121561277957600080fd5b600061278785828601612417565b9250506020612798858286016126c2565b9150509250929050565b600080604083850312156127b557600080fd5b600083013567ffffffffffffffff8111156127cf57600080fd5b6127db8582860161242c565b92505060206127ec85828601612417565b9150509250929050565b60006020828403121561280857600080fd5b6000612816848285016124af565b91505092915050565b60006020828403121561283157600080fd5b600061283f848285016124c4565b91505092915050565b60006020828403121561285a57600080fd5b6000612868848285016124d9565b91505092915050565b6000806040838503121561288457600080fd5b6000612892858286016124d9565b92505060206128a3858286016126c2565b9150509250929050565b6000602082840312156128bf57600080fd5b600082013567ffffffffffffffff8111156128d957600080fd5b6128e584828501612542565b91505092915050565b600080600080600080610140878903121561290857600080fd5b600087013567ffffffffffffffff81111561292257600080fd5b61292e89828a01612542565b965050602087013567ffffffffffffffff81111561294b57600080fd5b61295789828a01612542565b955050604061296889828a01612662565b94505060a061297989828a01612662565b93505061010061298b89828a016126c2565b92505061012061299d89828a016126c2565b9150509295509295509295565b600080608083850312156129bd57600080fd5b600083013567ffffffffffffffff8111156129d757600080fd5b6129e385828601612542565b92505060206129f485828601612662565b9150509250929050565b6000612a0a838361320a565b60208301905092915050565b612a1f816139b3565b82525050565b612a2e816138d5565b82525050565b612a45612a40826138d5565b613a61565b82525050565b6000612a568261386f565b612a60818561389d565b9350612a6b8361385f565b8060005b83811015612a9c578151612a8388826129fe565b9750612a8e83613890565b925050600181019050612a6f565b5085935050505092915050565b612ab2816138e7565b82525050565b612ac9612ac4826138f3565b613a73565b82525050565b612ad88161391f565b82525050565b612aef612aea8261391f565b613a7d565b82525050565b612b06612b0182613929565b613a87565b82525050565b6000612b178261387a565b612b2181856138ae565b9350612b31818560208601613a2e565b80840191505092915050565b612b46816139c5565b82525050565b612b55816139e9565b82525050565b6000612b6682613885565b612b7081856138ca565b9350612b80818560208601613a2e565b80840191505092915050565b6000612b99601d836138b9565b91507f696e73756666696369656e742073656c6c657227732062616c616e63650000006000830152602082019050919050565b6000612bd9601f836138b9565b91507f6572726f72207472616e73666572696e672066756e647320746f2075736572006000830152602082019050919050565b6000612c196026836138b9565b91507f4f776e61626c653a206e6577206f776e657220697320746865207a65726f206160008301527f64647265737300000000000000000000000000000000000000000000000000006020830152604082019050919050565b6000612c7f601b836138b9565b91507f536166654d6174683a206164646974696f6e206f766572666c6f7700000000006000830152602082019050919050565b6000612cbf6016836138b9565b91507f636f6e7472616374206973206e6f7420616374697665000000000000000000006000830152602082019050919050565b6000612cff6017836138b9565b91507f627579206f72646572207761732063616e63656c6c65640000000000000000006000830152602082019050919050565b6000612d3f6024836138b9565b91507f696e636f72726563742066696c6c656420707269636520666f7220627579206f60008301527f72646572000000000000000000000000000000000000000000000000000000006020830152604082019050919050565b6000612da5601e836138b9565b91507f536166654d6174683a207375627472616374696f6e206f766572666c6f7700006000830152602082019050919050565b6000612de56013836138b9565b91507f61737365747320646f206e6f74206d61746368000000000000000000000000006000830152602082019050919050565b6000612e25601a836138b9565b91507f536166654d6174683a206469766973696f6e206279207a65726f0000000000006000830152602082019050919050565b6000612e656003836138ca565b91507f62757900000000000000000000000000000000000000000000000000000000006000830152600382019050919050565b6000612ea5601c836138b9565b91507f696e73756666696369656e7420627579657227732062616c616e6365000000006000830152602082019050919050565b6000612ee56015836138b9565b91507f73616d652061732063757272656e7420737461746500000000000000000000006000830152602082019050919050565b6000612f256021836138b9565b91507f536166654d6174683a206d756c7469706c69636174696f6e206f766572666c6f60008301527f77000000000000000000000000000000000000000000000000000000000000006020830152604082019050919050565b6000612f8b6020836138b9565b91507f4f776e61626c653a2063616c6c6572206973206e6f7420746865206f776e65726000830152602082019050919050565b6000612fcb6019836138b9565b91507f696e636f7272656374206d6174636865722061646472657373000000000000006000830152602082019050919050565b600061300b6023836138b9565b91507f6572726f72207472616e73666572696e6720617373657420746f20657863686160008301527f6e676500000000000000000000000000000000000000000000000000000000006020830152604082019050919050565b60006130716010836138b9565b91507f6f726465722065787069726174696f6e000000000000000000000000000000006000830152602082019050919050565b60006130b1601c836138b9565b91507f6e6f7420656e6f7567682066756e647320746f207769746864726177000000006000830152602082019050919050565b60006130f16025836138b9565b91507f696e636f72726563742066696c6c656420707269636520666f722073656c6c2060008301527f6f726465720000000000000000000000000000000000000000000000000000006020830152604082019050919050565b60006131576020836138b9565b91507f496e76616c6964207369676e617475726520666f722053656c6c206f726465726000830152602082019050919050565b6000613197601f836138b9565b91507f496e76616c6964207369676e617475726520666f7220427579206f72646572006000830152602082019050919050565b60006131d76013836138b9565b91507f696e76616c696420616d6f756e742073656e74000000000000000000000000006000830152602082019050919050565b61321381613988565b82525050565b61322281613988565b82525050565b613231816139a6565b82525050565b6000613243828f612ab8565b600182019150613253828e612a34565b601482019150613263828d612a34565b601482019150613273828c612a34565b601482019150613283828b612a34565b601482019150613293828a612a34565b6014820191506132a38289612af5565b6008820191506132b38288612af5565b6008820191506132c38287612af5565b6008820191506132d38286612af5565b6008820191506132e38285612af5565b6008820191506132f38284612ab8565b6001820191508190509d9c50505050505050505050505050565b60006133198285612b0c565b91506133258284612ade565b6020820191508190509392505050565b60006133418284612b5b565b915081905092915050565b600061335782612e58565b9150819050919050565b60006020820190506133766000830184612a25565b92915050565b60006060820190506133916000830186612a16565b61339e6020830185612a25565b6133ab6040830184613219565b949350505050565b60006040820190506133c86000830185612a16565b6133d56020830184613219565b9392505050565b600060208201905081810360008301526133f68184612a4b565b905092915050565b60006020820190506134136000830184612aa9565b92915050565b600060a08201905061342e6000830188612acf565b61343b6020830187612acf565b6134486040830186613219565b6134556060830185613219565b6134626080830184613219565b9695505050505050565b60006060820190506134816000830186612acf565b61348e6020830185612b4c565b61349b6040830184613219565b949350505050565b60006080820190506134b86000830187612acf565b6134c56020830186613228565b6134d26040830185612acf565b6134df6060830184612acf565b95945050505050565b60006020820190506134fd6000830184612b3d565b92915050565b6000602082019050818103600083015261351c81612b8c565b9050919050565b6000602082019050818103600083015261353c81612bcc565b9050919050565b6000602082019050818103600083015261355c81612c0c565b9050919050565b6000602082019050818103600083015261357c81612c72565b9050919050565b6000602082019050818103600083015261359c81612cb2565b9050919050565b600060208201905081810360008301526135bc81612cf2565b9050919050565b600060208201905081810360008301526135dc81612d32565b9050919050565b600060208201905081810360008301526135fc81612d98565b9050919050565b6000602082019050818103600083015261361c81612dd8565b9050919050565b6000602082019050818103600083015261363c81612e18565b9050919050565b6000602082019050818103600083015261365c81612e98565b9050919050565b6000602082019050818103600083015261367c81612ed8565b9050919050565b6000602082019050818103600083015261369c81612f18565b9050919050565b600060208201905081810360008301526136bc81612f7e565b9050919050565b600060208201905081810360008301526136dc81612fbe565b9050919050565b600060208201905081810360008301526136fc81612ffe565b9050919050565b6000602082019050818103600083015261371c81613064565b9050919050565b6000602082019050818103600083015261373c816130a4565b9050919050565b6000602082019050818103600083015261375c816130e4565b9050919050565b6000602082019050818103600083015261377c8161314a565b9050919050565b6000602082019050818103600083015261379c8161318a565b9050919050565b600060208201905081810360008301526137bc816131ca565b9050919050565b60006020820190506137d86000830184613219565b92915050565b6000604051905081810181811067ffffffffffffffff8211171561380157600080fd5b8060405250919050565b600067ffffffffffffffff82111561382257600080fd5b602082029050602081019050919050565b600067ffffffffffffffff82111561384a57600080fd5b601f19601f8301169050602081019050919050565b6000819050602082019050919050565b600081519050919050565b600081519050919050565b600081519050919050565b6000602082019050919050565b600082825260208201905092915050565b600081905092915050565b600082825260208201905092915050565b600081905092915050565b60006138e082613968565b9050919050565b60008115159050919050565b60007fff0000000000000000000000000000000000000000000000000000000000000082169050919050565b6000819050919050565b60007fffffffffffffffff00000000000000000000000000000000000000000000000082169050919050565b600081905061396382613abc565b919050565b600073ffffffffffffffffffffffffffffffffffffffff82169050919050565b6000819050919050565b600067ffffffffffffffff82169050919050565b600060ff82169050919050565b60006139be826139fb565b9050919050565b60006139d0826139d7565b9050919050565b60006139e282613968565b9050919050565b60006139f482613955565b9050919050565b6000613a0682613a0d565b9050919050565b6000613a1882613968565b9050919050565b82818337600083830152505050565b60005b83811015613a4c578082015181840152602081019050613a31565b83811115613a5b576000848401525b50505050565b6000613a6c82613a91565b9050919050565b6000819050919050565b6000819050919050565b6000819050919050565b6000613a9c82613aa3565b9050919050565b60006c0100000000000000000000000082029050919050565b60058110613ac657fe5b50565b613ad2816138d5565b8114613add57600080fd5b50565b613ae9816138e7565b8114613af457600080fd5b50565b613b008161391f565b8114613b0b57600080fd5b50565b613b1781613988565b8114613b2257600080fd5b50565b613b2e81613992565b8114613b3957600080fd5b50565b613b45816139a6565b8114613b5057600080fd5b5056fea365627a7a72315820452ddeec79e3b61bb2b9b0795b7b3dad7089443d78884e10bb511e40a17d41ac6c6578706572696d656e74616cf564736f6c634300050c0040",
  "source": "pragma solidity ^0.5.10;\npragma experimental ABIEncoderV2;\n\nimport '@openzeppelin/contracts/math/SafeMath.sol';\nimport '@openzeppelin/contracts/ownership/Ownable.sol';\nimport '@openzeppelin/contracts/token/ERC20/IERC20.sol';\n\n\n/**\n * @title Exchange\n * @dev Exchange contract for the Orion Protocol\n * @author @wafflemakr\n */\ncontract Exchange is Ownable{\n\n    using SafeMath for uint;\n\n    // EVENTS\n    event NewAssetDeposit(address indexed user, address indexed assetAddress, uint amount);\n    event NewAssetWithdrawl(address indexed user, address indexed assetAddress, uint amount);\n    event NewTrade(bytes32 buyOrderHash, bytes32 sellOrderHash, uint filledPrice, uint filledAmount, uint amountToTake);\n    event OrderCancelled(bytes32 indexed orderHash);\n\n\n    // GLOBAL VARIABLES\n\n    IERC20 public orion;\n\n    enum Status {NEW, PARTIALLY_FILLED, FILLED, PARTIALLY_CANCELLED, CANCELLED}\n\n    struct Order{\n        address senderAddress;\n        address matcherAddress;\n        address baseAsset;\n        address quoteAsset;\n        address matcherFeeAsset;\n        uint64 amount;\n        uint64 price;\n        uint64 matcherFee;\n        uint64 nonce;\n        uint64 expiration;\n        string side; // true = buy false = sell\n    }\n\n    struct Trade{\n        bytes32 orderHash;\n        Status orderStatus;\n        uint filledAmount;\n    }\n\n    struct Signature{\n        bytes32 r;\n        bytes32 s;\n        uint8 v ;\n    }\n\n    // Get trades by orderHash\n    mapping(bytes32 => Trade[]) public trades;\n\n    // Get user balance by address and asset address\n    mapping(address => mapping(address => uint)) public assetBalances;\n\n    // Check if an order was cancelled\n    mapping(bytes32 => bool) public cancelledOrders;\n\n    uint public totalOrders;\n    uint public totalTrades;\n    // Pause or unpause exchangebuyOrderHash\n    bool isActive = true;\n\n\n    // MODIFIERS\n\n    /**\n     * @dev prevents people from using the exchange if not active\n     */\n    modifier onlyActive() {\n        require(isActive, \"contract is not active\");\n        _;\n    }\n\n\n    // MAIN FUNCTIONSh\n    /**\n     * @dev Deposit WAN or ERC20 tokens to the exchange contract\n     * @dev User needs to approve token contract first\n     */\n    function depositAsset(address assetAddress, uint amount) public payable onlyActive{\n        IERC20 asset = IERC20(assetAddress);\n        require(asset.transferFrom(msg.sender, address(this), amount), \"error transfering asset to exchange\");\n\n        assetBalances[msg.sender][assetAddress] = assetBalances[msg.sender][assetAddress].add(amount);\n\n        emit NewAssetDeposit(msg.sender, assetAddress, amount);\n    }\n\n    /**\n     * @dev Deposit WAN to the exchange contract\n     */\n    function depositWan() public payable onlyActive{\n        require(msg.value > 0, \"invalid amount sent\");\n\n        assetBalances[msg.sender][address(0)] = assetBalances[msg.sender][address(0)].add(msg.value);\n\n        emit NewAssetDeposit(msg.sender, address(0), msg.value);\n    }\n\n    /**\n     * @dev Withdrawal of remaining funds from the contract back to the address\n     */\n    function withdraw(address assetAddress, uint amount) public{\n        require(assetBalances[msg.sender][assetAddress] >= amount, \"not enough funds to withdraw\");\n\n        assetBalances[msg.sender][assetAddress] = assetBalances[msg.sender][assetAddress].sub(amount);\n\n        if(assetAddress == address(0))\n            msg.sender.transfer(amount);\n        else{\n            IERC20 asset = IERC20(assetAddress);\n            require(asset.transfer(msg.sender, amount), \"error transfering funds to user\");\n        }\n\n        emit NewAssetWithdrawl(msg.sender, assetAddress, amount);\n    }\n\n\n    /**\n     * @dev Asset balance for a specific address\n     */\n    function getBalance(address assetAddress, address user) public view returns(uint assetBalance){\n        return assetBalances[user][assetAddress];\n    }\n\n    /**\n     * @dev Batch request of asset balances\n     */\n    function getBalances(address[] memory assetsAddresses, address user) public view returns(uint[] memory){\n        uint[] memory balances = new uint[](assetsAddresses.length);\n        for(uint i = 0; i < assetsAddresses.length; i++){\n            balances[i] = assetBalances[user][assetsAddresses[i]];\n        }\n        return balances;\n    }\n\n    /**\n     * @notice Settle a trade with two orders, filled price and amount\n     * @dev 2 orders are submitted, it is necessary to match them:\n        check conditions in orders for compliance filledPrice, filledAmountbuyOrderHash\n        change balances on the contract respectively with buyer, seller, matcbuyOrderHashher\n     * @param buyOrder structure of buy side orderbuyOrderHash\n     * @param sellOrder structure of sell side order\n     * @param filledPrice price at which the order was settled\n     * @param filledAmount amount settled between orders\n     */\n    function fillOrders(\n        Order memory buyOrder, Order memory sellOrder,\n        Signature memory buySig, Signature memory sellSig,\n        uint filledPrice, uint filledAmount\n    )\n        public onlyActive\n    {\n\n        // VALIDATE SIGNATURES\n        require(isValidSignature(buyOrder, buySig), \"Invalid signature for Buy order\");\n        require(isValidSignature(sellOrder, sellSig), \"Invalid signature for Sell order\");\n\n        //VERIFICATIONS\n\n        require(buyOrder.matcherAddress == msg.sender && sellOrder.matcherAddress == msg.sender, \"incorrect matcher address\");\n        require(buyOrder.baseAsset == sellOrder.baseAsset && buyOrder.quoteAsset == sellOrder.quoteAsset, \"assets do not match\");\n        require(filledPrice <= buyOrder.price, \"incorrect filled price for buy order\");\n        require(filledPrice >= sellOrder.price, \"incorrect filled price for sell order\");\n        require(buyOrder.expiration >= now && sellOrder.expiration >= now, \"order expiration\");\n\n        //Amount of quote asset\n        uint amountToTake = filledAmount.mul(filledPrice).div(10**8);\n        address buyer = buyOrder.senderAddress;\n        address seller = sellOrder.senderAddress;\n\n        // BUY SIDE CHECK\n\n        require(assetBalances[buyer][buyOrder.quoteAsset] >= amountToTake, \"insufficient buyer's balance\");\n        bytes32 buyOrderHash = _getOrderhash(buyOrder);\n        require(!cancelledOrders[buyOrderHash], \"buy order was cancelled\");\n        // require(_checkAmount(buyOrderHash, buyOrder.amount, filledAmount), \"incorrect filled amount\");\n\n        // SELL SIDE CHECK\n        require(assetBalances[seller][sellOrder.baseAsset] >= filledAmount, \"insufficient seller's balance\");\n        bytes32 sellOrderHash = _getOrderhash(sellOrder);\n        require(!cancelledOrders[sellOrderHash], \"buy order was cancelled\");\n        // require(_checkAmount(sellOrderHash, sellOrder.amount, filledAmount), \"incorrect filled amount\");\n\n        // === VERIFICATIONS DONE ===\n\n        _updateBalances(buyer, seller, buyOrder.baseAsset, buyOrder.quoteAsset, filledAmount, amountToTake);\n\n        totalTrades = totalTrades.add(1);\n\n        // Store trades\n        Trade memory buyTrade = Trade(buyOrderHash, Status.NEW, filledAmount); //temporary set 0 for orderStatus until logic implemented\n        trades[buyOrderHash].push(buyTrade);\n        Trade memory sellTrade = Trade(sellOrderHash, Status.NEW, filledAmount); //temporary set 0 for orderStatus until logic implemented\n        trades[sellOrderHash].push(sellTrade);\n\n        emit NewTrade(buyOrderHash, sellOrderHash, filledPrice, filledAmount, amountToTake);\n\n    }\n\n    function _updateBalances(\n        address buyer, address seller, address baseAsset,\n        address quoteAsset, uint filledAmount, uint amountToTake\n    ) internal{\n        // Update Buyer's Balance (- quoteAsset + baseAsset - matcherFeeAsset)\n        assetBalances[buyer][quoteAsset] = assetBalances[buyer][quoteAsset].sub(amountToTake);\n        assetBalances[buyer][baseAsset] = assetBalances[buyer][baseAsset].add(filledAmount);\n\n        // Update Seller's Balance  (+ quoteAsset - baseAsset - matcherFeeAsset)\n        assetBalances[seller][quoteAsset] = assetBalances[seller][quoteAsset].add(amountToTake);\n        assetBalances[seller][baseAsset] = assetBalances[seller][baseAsset].sub(filledAmount);\n\n    }\n\n    function _checkAmount(bytes32 orderHash, uint orderAmount, uint newTradeAmount) internal view returns(bool){\n        uint totalTradeAmount;\n        for(uint i = 0; i < trades[orderHash].length; i++){\n            totalTradeAmount = totalTradeAmount.add(trades[orderHash][i].filledAmount);\n        }\n        return (totalTradeAmount.add(newTradeAmount) <= orderAmount);\n    }\n\n    function _getOrderhash(Order memory _order) internal pure returns(bytes32){\n        bytes32 buySide = keccak256(abi.encodePacked(\"buy\"));\n\n        return keccak256(abi.encodePacked(\n            bytes1(0x03),\n            _order.senderAddress,\n            _order.matcherAddress,\n            _order.baseAsset,\n            _order.quoteAsset,\n            _order.matcherFeeAsset,\n            bytes8(_order.amount),\n            bytes8(_order.price),\n            bytes8(_order.matcherFee),\n            bytes8(_order.nonce),\n            bytes8(_order.expiration),\n            keccak256(abi.encodePacked(_order.side)) == buySide ? bytes1(0x00):bytes1(0x01)\n        ));\n    }\n\n    /**\n     *  @dev Performs an `ecrecover` operation for signed message hashes\n     */\n    function _recoverAddress(bytes32 _hash, uint8 _v, bytes32 _r, bytes32 _s)\n        internal\n        pure\n        returns (address)\n    {\n        bytes memory prefix = \"\\x19Ethereum Signed Message:\\n32\";\n        bytes32 prefixedHash = keccak256(abi.encodePacked(prefix, _hash));\n        return ecrecover(prefixedHash, _v, _r, _s);\n    }\n\n    function isValidSignature(Order memory order, Signature memory sig) public returns(bool) {\n        bytes32 orderHash = _getOrderhash(order);\n        address recovered = _recoverAddress(orderHash, sig.v, sig.r, sig.s);\n        return recovered == order.senderAddress;\n    }\n\n\n    /**\n     * @dev write an orderHash in the contract so that such an order cannot be filled (executed)\n     */\n    function cancelOrder(Order memory order) public{\n        //TODO: check if order can be cancelled\n\n        bytes32 orderHash = _getOrderhash(order);\n\n        cancelledOrders[orderHash] = true;\n        emit OrderCancelled(orderHash);\n    }\n\n    // OWNER FUNCTIONS\n\n    /**\n     * @dev change state of contracts\n     */\n    function updateContractState(bool newState) public onlyOwner{\n        require(isActive != newState, \"same as current state\");\n        isActive = newState;\n    }\n    \n}",
  "sourcePath": "/home/wafflemakr/Desktop/PROYECTOS/orionex/orion-exchange/contracts/Exchange.sol",
  "compiler": {
    "name": "solc",
    "version": "0.5.12+commit.7709ece9.Emscripten.clang"
  },
  "schemaVersion": "3.0.2",
  "updatedAt": "2019-10-25T14:06:45.837Z",
  "devdoc": {
    "author": "@wafflemakr",
    "details": "Exchange contract for the Orion Protocol",
    "methods": {
      "cancelOrder((address,address,address,address,address,uint64,uint64,uint64,uint64,uint64,string))": {
        "details": "write an orderHash in the contract so that such an order cannot be filled (executed)"
      },
      "depositAsset(address,uint256)": {
        "details": "Deposit WAN or ERC20 tokens to the exchange contractUser needs to approve token contract first"
      },
      "depositWan()": {
        "details": "Deposit WAN to the exchange contract"
      },
      "fillOrders((address,address,address,address,address,uint64,uint64,uint64,uint64,uint64,string),(address,address,address,address,address,uint64,uint64,uint64,uint64,uint64,string),(bytes32,bytes32,uint8),(bytes32,bytes32,uint8),uint256,uint256)": {
        "details": "2 orders are submitted, it is necessary to match them: check conditions in orders for compliance filledPrice, filledAmountbuyOrderHash change balances on the contract respectively with buyer, seller, matcbuyOrderHashher",
        "params": {
          "buyOrder": "structure of buy side orderbuyOrderHash",
          "filledAmount": "amount settled between orders",
          "filledPrice": "price at which the order was settled",
          "sellOrder": "structure of sell side order"
        }
      },
      "getBalance(address,address)": {
        "details": "Asset balance for a specific address"
      },
      "getBalances(address[],address)": {
        "details": "Batch request of asset balances"
      },
      "isOwner()": {
        "details": "Returns true if the caller is the current owner."
      },
      "owner()": {
        "details": "Returns the address of the current owner."
      },
      "renounceOwnership()": {
        "details": "Leaves the contract without owner. It will not be possible to call `onlyOwner` functions anymore. Can only be called by the current owner.     * > Note: Renouncing ownership will leave the contract without an owner, thereby removing any functionality that is only available to the owner."
      },
      "transferOwnership(address)": {
        "details": "Transfers ownership of the contract to a new account (`newOwner`). Can only be called by the current owner."
      },
      "updateContractState(bool)": {
        "details": "change state of contracts"
      },
      "withdraw(address,uint256)": {
        "details": "Withdrawal of remaining funds from the contract back to the address"
      }
    },
    "title": "Exchange"
  },
  "userdoc": {
    "methods": {
      "fillOrders((address,address,address,address,address,uint64,uint64,uint64,uint64,uint64,string),(address,address,address,address,address,uint64,uint64,uint64,uint64,uint64,string),(bytes32,bytes32,uint8),(bytes32,bytes32,uint8),uint256,uint256)": {
        "notice": "Settle a trade with two orders, filled price and amount"
      }
    }
  }
}