{
  "contractName": "Exchange",
  "abi": [
    {
      "anonymous": false,
      "inputs": [
        {
          "indexed": true,
          "internalType": "address",
          "name": "user",
          "type": "address"
        },
        {
          "indexed": true,
          "internalType": "address",
          "name": "assetAddress",
          "type": "address"
        },
        {
          "indexed": false,
          "internalType": "uint256",
          "name": "amount",
          "type": "uint256"
        }
      ],
      "name": "NewAssetDeposit",
      "type": "event"
    },
    {
      "anonymous": false,
      "inputs": [
        {
          "indexed": true,
          "internalType": "address",
          "name": "user",
          "type": "address"
        },
        {
          "indexed": true,
          "internalType": "address",
          "name": "assetAddress",
          "type": "address"
        },
        {
          "indexed": false,
          "internalType": "uint256",
          "name": "amount",
          "type": "uint256"
        }
      ],
      "name": "NewAssetWithdrawl",
      "type": "event"
    },
    {
      "anonymous": false,
      "inputs": [
        {
          "indexed": false,
          "internalType": "bytes32",
          "name": "buyOrderHash",
          "type": "bytes32"
        },
        {
          "indexed": false,
          "internalType": "bytes32",
          "name": "sellOrderHash",
          "type": "bytes32"
        },
        {
          "indexed": false,
          "internalType": "uint256",
          "name": "pricebuyOrderHash",
          "type": "uint256"
        },
        {
          "indexed": false,
          "internalType": "uint256",
          "name": "amount",
          "type": "uint256"
        }
      ],
      "name": "NewTrade",
      "type": "event"
    },
    {
      "anonymous": false,
      "inputs": [
        {
          "indexed": true,
          "internalType": "address",
          "name": "user",
          "type": "address"
        },
        {
          "indexed": false,
          "internalType": "uint256",
          "name": "amount",
          "type": "uint256"
        }
      ],
      "name": "NewWanDeposit",
      "type": "event"
    },
    {
      "anonymous": false,
      "inputs": [
        {
          "indexed": true,
          "internalType": "address",
          "name": "user",
          "type": "address"
        },
        {
          "indexed": false,
          "internalType": "uint256",
          "name": "amount",
          "type": "uint256"
        }
      ],
      "name": "NewWanWithdrawl",
      "type": "event"
    },
    {
      "anonymous": false,
      "inputs": [
        {
          "indexed": true,
          "internalType": "bytes32",
          "name": "orderHash",
          "type": "bytes32"
        }
      ],
      "name": "OrderCancelled",
      "type": "event"
    },
    {
      "anonymous": false,
      "inputs": [
        {
          "indexed": true,
          "internalType": "address",
          "name": "previousOwner",
          "type": "address"
        },
        {
          "indexed": true,
          "internalType": "address",
          "name": "newOwner",
          "type": "address"
        }
      ],
      "name": "OwnershipTransferred",
      "type": "event"
    },
    {
      "anonymous": false,
      "inputs": [
        {
          "indexed": false,
          "internalType": "address",
          "name": "sender",
          "type": "address"
        }
      ],
      "name": "RecoveredAddress",
      "type": "event"
    },
    {
      "constant": true,
      "inputs": [
        {
          "internalType": "address",
          "name": "",
          "type": "address"
        },
        {
          "internalType": "address",
          "name": "",
          "type": "address"
        }
      ],
      "name": "assetBalances",
      "outputs": [
        {
          "internalType": "uint256",
          "name": "",
          "type": "uint256"
        }
      ],
      "payable": false,
      "stateMutability": "view",
      "type": "function"
    },
    {
      "constant": true,
      "inputs": [
        {
          "internalType": "bytes32",
          "name": "",
          "type": "bytes32"
        }
      ],
      "name": "cancelledOrders",
      "outputs": [
        {
          "internalType": "bool",
          "name": "",
          "type": "bool"
        }
      ],
      "payable": false,
      "stateMutability": "view",
      "type": "function"
    },
    {
      "constant": true,
      "inputs": [],
      "name": "isOwner",
      "outputs": [
        {
          "internalType": "bool",
          "name": "",
          "type": "bool"
        }
      ],
      "payable": false,
      "stateMutability": "view",
      "type": "function"
    },
    {
      "constant": true,
      "inputs": [],
      "name": "orion",
      "outputs": [
        {
          "internalType": "contract IERC20",
          "name": "",
          "type": "address"
        }
      ],
      "payable": false,
      "stateMutability": "view",
      "type": "function"
    },
    {
      "constant": true,
      "inputs": [],
      "name": "owner",
      "outputs": [
        {
          "internalType": "address",
          "name": "",
          "type": "address"
        }
      ],
      "payable": false,
      "stateMutability": "view",
      "type": "function"
    },
    {
      "constant": false,
      "inputs": [],
      "name": "renounceOwnership",
      "outputs": [],
      "payable": false,
      "stateMutability": "nonpayable",
      "type": "function"
    },
    {
      "constant": true,
      "inputs": [],
      "name": "totalOrders",
      "outputs": [
        {
          "internalType": "uint256",
          "name": "",
          "type": "uint256"
        }
      ],
      "payable": false,
      "stateMutability": "view",
      "type": "function"
    },
    {
      "constant": true,
      "inputs": [],
      "name": "totalTrades",
      "outputs": [
        {
          "internalType": "uint256",
          "name": "",
          "type": "uint256"
        }
      ],
      "payable": false,
      "stateMutability": "view",
      "type": "function"
    },
    {
      "constant": true,
      "inputs": [
        {
          "internalType": "bytes32",
          "name": "",
          "type": "bytes32"
        },
        {
          "internalType": "uint256",
          "name": "",
          "type": "uint256"
        }
      ],
      "name": "trades",
      "outputs": [
        {
          "internalType": "bytes32",
          "name": "orderHash",
          "type": "bytes32"
        },
        {
          "internalType": "uint8",
          "name": "orderStatus",
          "type": "uint8"
        },
        {
          "internalType": "uint256",
          "name": "filledAmount",
          "type": "uint256"
        }
      ],
      "payable": false,
      "stateMutability": "view",
      "type": "function"
    },
    {
      "constant": false,
      "inputs": [
        {
          "internalType": "address",
          "name": "newOwner",
          "type": "address"
        }
      ],
      "name": "transferOwnership",
      "outputs": [],
      "payable": false,
      "stateMutability": "nonpayable",
      "type": "function"
    },
    {
      "constant": false,
      "inputs": [
        {
          "internalType": "address",
          "name": "assetAddress",
          "type": "address"
        },
        {
          "internalType": "uint256",
          "name": "amount",
          "type": "uint256"
        }
      ],
      "name": "depositAsset",
      "outputs": [],
      "payable": true,
      "stateMutability": "payable",
      "type": "function"
    },
    {
      "constant": false,
      "inputs": [],
      "name": "depositWan",
      "outputs": [],
      "payable": true,
      "stateMutability": "payable",
      "type": "function"
    },
    {
      "constant": false,
      "inputs": [
        {
          "internalType": "address",
          "name": "assetAddress",
          "type": "address"
        },
        {
          "internalType": "uint256",
          "name": "amount",
          "type": "uint256"
        }
      ],
      "name": "withdraw",
      "outputs": [],
      "payable": false,
      "stateMutability": "nonpayable",
      "type": "function"
    },
    {
      "constant": true,
      "inputs": [
        {
          "internalType": "address",
          "name": "assetAddress",
          "type": "address"
        },
        {
          "internalType": "address",
          "name": "user",
          "type": "address"
        }
      ],
      "name": "getBalance",
      "outputs": [
        {
          "internalType": "uint256",
          "name": "assetBalance",
          "type": "uint256"
        }
      ],
      "payable": false,
      "stateMutability": "view",
      "type": "function"
    },
    {
      "constant": false,
      "inputs": [
        {
          "components": [
            {
              "internalType": "address",
              "name": "senderAddress",
              "type": "address"
            },
            {
              "internalType": "address",
              "name": "matcherAddress",
              "type": "address"
            },
            {
              "internalType": "address",
              "name": "baseAsset",
              "type": "address"
            },
            {
              "internalType": "address",
              "name": "quotetAsset",
              "type": "address"
            },
            {
              "internalType": "address",
              "name": "matcherFeeAsset",
              "type": "address"
            },
            {
              "internalType": "uint256",
              "name": "amount",
              "type": "uint256"
            },
            {
              "internalType": "uint256",
              "name": "price",
              "type": "uint256"
            },
            {
              "internalType": "uint256",
              "name": "matcherFee",
              "type": "uint256"
            },
            {
              "internalType": "uint256",
              "name": "nonce",
              "type": "uint256"
            },
            {
              "internalType": "uint256",
              "name": "expiration",
              "type": "uint256"
            },
            {
              "internalType": "bool",
              "name": "side",
              "type": "bool"
            }
          ],
          "internalType": "struct Exchange.Order",
          "name": "buyOrder",
          "type": "tuple"
        },
        {
          "components": [
            {
              "internalType": "address",
              "name": "senderAddress",
              "type": "address"
            },
            {
              "internalType": "address",
              "name": "matcherAddress",
              "type": "address"
            },
            {
              "internalType": "address",
              "name": "baseAsset",
              "type": "address"
            },
            {
              "internalType": "address",
              "name": "quotetAsset",
              "type": "address"
            },
            {
              "internalType": "address",
              "name": "matcherFeeAsset",
              "type": "address"
            },
            {
              "internalType": "uint256",
              "name": "amount",
              "type": "uint256"
            },
            {
              "internalType": "uint256",
              "name": "price",
              "type": "uint256"
            },
            {
              "internalType": "uint256",
              "name": "matcherFee",
              "type": "uint256"
            },
            {
              "internalType": "uint256",
              "name": "nonce",
              "type": "uint256"
            },
            {
              "internalType": "uint256",
              "name": "expiration",
              "type": "uint256"
            },
            {
              "internalType": "bool",
              "name": "side",
              "type": "bool"
            }
          ],
          "internalType": "struct Exchange.Order",
          "name": "sellOrder",
          "type": "tuple"
        },
        {
          "internalType": "uint256",
          "name": "filledPrice",
          "type": "uint256"
        },
        {
          "internalType": "uint256",
          "name": "filledAmount",
          "type": "uint256"
        }
      ],
      "name": "fillOrders",
      "outputs": [],
      "payable": false,
      "stateMutability": "nonpayable",
      "type": "function"
    },
    {
      "constant": false,
      "inputs": [
        {
          "components": [
            {
              "internalType": "address",
              "name": "senderAddress",
              "type": "address"
            },
            {
              "internalType": "address",
              "name": "matcherAddress",
              "type": "address"
            },
            {
              "internalType": "address",
              "name": "baseAsset",
              "type": "address"
            },
            {
              "internalType": "address",
              "name": "quotetAsset",
              "type": "address"
            },
            {
              "internalType": "address",
              "name": "matcherFeeAsset",
              "type": "address"
            },
            {
              "internalType": "uint256",
              "name": "amount",
              "type": "uint256"
            },
            {
              "internalType": "uint256",
              "name": "price",
              "type": "uint256"
            },
            {
              "internalType": "uint256",
              "name": "matcherFee",
              "type": "uint256"
            },
            {
              "internalType": "uint256",
              "name": "nonce",
              "type": "uint256"
            },
            {
              "internalType": "uint256",
              "name": "expiration",
              "type": "uint256"
            },
            {
              "internalType": "bool",
              "name": "side",
              "type": "bool"
            }
          ],
          "internalType": "struct Exchange.Order",
          "name": "order",
          "type": "tuple"
        },
        {
          "internalType": "bytes32",
          "name": "message",
          "type": "bytes32"
        },
        {
          "internalType": "uint8",
          "name": "v",
          "type": "uint8"
        },
        {
          "internalType": "bytes32",
          "name": "r",
          "type": "bytes32"
        },
        {
          "internalType": "bytes32",
          "name": "s",
          "type": "bytes32"
        }
      ],
      "name": "validateOrder",
      "outputs": [],
      "payable": false,
      "stateMutability": "nonpayable",
      "type": "function"
    },
    {
      "constant": false,
      "inputs": [
        {
          "components": [
            {
              "internalType": "address",
              "name": "senderAddress",
              "type": "address"
            },
            {
              "internalType": "address",
              "name": "matcherAddress",
              "type": "address"
            },
            {
              "internalType": "address",
              "name": "baseAsset",
              "type": "address"
            },
            {
              "internalType": "address",
              "name": "quotetAsset",
              "type": "address"
            },
            {
              "internalType": "address",
              "name": "matcherFeeAsset",
              "type": "address"
            },
            {
              "internalType": "uint256",
              "name": "amount",
              "type": "uint256"
            },
            {
              "internalType": "uint256",
              "name": "price",
              "type": "uint256"
            },
            {
              "internalType": "uint256",
              "name": "matcherFee",
              "type": "uint256"
            },
            {
              "internalType": "uint256",
              "name": "nonce",
              "type": "uint256"
            },
            {
              "internalType": "uint256",
              "name": "expiration",
              "type": "uint256"
            },
            {
              "internalType": "bool",
              "name": "side",
              "type": "bool"
            }
          ],
          "internalType": "struct Exchange.Order",
          "name": "order",
          "type": "tuple"
        }
      ],
      "name": "cancelOrder",
      "outputs": [],
      "payable": false,
      "stateMutability": "nonpayable",
      "type": "function"
    },
    {
      "constant": false,
      "inputs": [
        {
          "internalType": "bool",
          "name": "newState",
          "type": "bool"
        }
      ],
      "name": "updateContractState",
      "outputs": [],
      "payable": false,
      "stateMutability": "nonpayable",
      "type": "function"
    }
  ],
  "bytecode": "0x60806040526001600760006101000a81548160ff021916908315150217905550336000806101000a81548173ffffffffffffffffffffffffffffffffffffffff021916908373ffffffffffffffffffffffffffffffffffffffff1602179055506000809054906101000a900473ffffffffffffffffffffffffffffffffffffffff1673ffffffffffffffffffffffffffffffffffffffff16600073ffffffffffffffffffffffffffffffffffffffff167f8be0079c531659141344cd1fd0a4f28419497f9722a3daafe3b4186f6b6457e060405160405180910390a3613347806100ea6000396000f3fe6080604052600436106101095760003560e01c80638f13f48e11610095578063cdfd441e11610064578063cdfd441e14610329578063d4fac45d14610354578063e275c99714610391578063f2fde38b146103bc578063f3fef3a3146103e557610109565b80638f13f48e1461025b5780638f32d59b14610298578063b84fa47b146102c3578063bdfce5bf146102ec57610109565b806355ba5880116100dc57806355ba5880146101bd578063715018a6146101e657806376a207b8146101fd5780638ba8f500146102075780638da5cb5b1461023057610109565b80631d8344091461010e5780632fa68b321461013957806346a5d0431461016257806350ef1f5d1461017e575b600080fd5b34801561011a57600080fd5b5061012361040e565b60405161013091906130a8565b60405180910390f35b34801561014557600080fd5b50610160600480360361015b91908101906122ad565b610414565b005b61017c60048036036101779190810190612271565b6104ce565b005b34801561018a57600080fd5b506101a560048036036101a09190810190612328565b610769565b6040516101b493929190612d86565b60405180910390f35b3480156101c957600080fd5b506101e460048036036101df919081019061238e565b6107ba565b005b3480156101f257600080fd5b506101fb6108b5565b005b6102056109bb565b005b34801561021357600080fd5b5061022e60048036036102299190810190612364565b610bc4565b005b34801561023c57600080fd5b50610245610c2e565b6040516102529190612c66565b60405180910390f35b34801561026757600080fd5b50610282600480360361027d91908101906122ff565b610c57565b60405161028f9190612ce1565b60405180910390f35b3480156102a457600080fd5b506102ad610c77565b6040516102ba9190612ce1565b60405180910390f35b3480156102cf57600080fd5b506102ea60048036036102e5919081019061240a565b610cce565b005b3480156102f857600080fd5b50610313600480360361030e9190810190612235565b6118d6565b60405161032091906130a8565b60405180910390f35b34801561033557600080fd5b5061033e6118fb565b60405161034b9190612ded565b60405180910390f35b34801561036057600080fd5b5061037b60048036036103769190810190612235565b611921565b60405161038891906130a8565b60405180910390f35b34801561039d57600080fd5b506103a66119a8565b6040516103b391906130a8565b60405180910390f35b3480156103c857600080fd5b506103e360048036036103de919081019061220c565b6119ae565b005b3480156103f157600080fd5b5061040c60048036036104079190810190612271565b611a01565b005b60055481565b61041c610c77565b61045b576040517f08c379a000000000000000000000000000000000000000000000000000000000815260040161045290612fa8565b60405180910390fd5b801515600760009054906101000a900460ff16151514156104b1576040517f08c379a00000000000000000000000000000000000000000000000000000000081526004016104a890612f48565b60405180910390fd5b80600760006101000a81548160ff02191690831515021790555050565b600760009054906101000a900460ff1661051d576040517f08c379a000000000000000000000000000000000000000000000000000000000815260040161051490612e88565b60405180910390fd5b60008290508073ffffffffffffffffffffffffffffffffffffffff166323b872dd3330856040518463ffffffff1660e01b815260040161055f93929190612c81565b602060405180830381600087803b15801561057957600080fd5b505af115801561058d573d6000803e3d6000fd5b505050506040513d601f19601f820116820180604052506105b191908101906122d6565b6105f0576040517f08c379a00000000000000000000000000000000000000000000000000000000081526004016105e790612fe8565b60405180910390fd5b61067f82600360003373ffffffffffffffffffffffffffffffffffffffff1673ffffffffffffffffffffffffffffffffffffffff16815260200190815260200160002060008673ffffffffffffffffffffffffffffffffffffffff1673ffffffffffffffffffffffffffffffffffffffff16815260200190815260200160002054611d0a90919063ffffffff16565b600360003373ffffffffffffffffffffffffffffffffffffffff1673ffffffffffffffffffffffffffffffffffffffff16815260200190815260200160002060008573ffffffffffffffffffffffffffffffffffffffff1673ffffffffffffffffffffffffffffffffffffffff168152602001908152602001600020819055508273ffffffffffffffffffffffffffffffffffffffff163373ffffffffffffffffffffffffffffffffffffffff167f87e95ee7cdd8ce169873b1be6add255c13ec04051d493c3346c1e705a849e6208460405161075c91906130a8565b60405180910390a3505050565b6002602052816000526040600020818154811061078257fe5b9060005260206000209060030201600091509150508060000154908060010160009054906101000a900460ff16908060020154905083565b60606040518060400160405280601c81526020017f19457468657265756d205369676e6564204d6573736167653a0a333200000000815250905060008186604051602001610809929190612dbd565b6040516020818303038152906040528051906020012090506000600182878787604051600081526020016040526040516108469493929190612d41565b6020604051602081039080840390855afa158015610868573d6000803e3d6000fd5b5050506020604051035190507f391f5edd7209ba797e8055bce97cab2d1a480a2849b0c7fe965c370457166dc4816040516108a39190612c66565b60405180910390a15050505050505050565b6108bd610c77565b6108fc576040517f08c379a00000000000000000000000000000000000000000000000000000000081526004016108f390612fa8565b60405180910390fd5b600073ffffffffffffffffffffffffffffffffffffffff166000809054906101000a900473ffffffffffffffffffffffffffffffffffffffff1673ffffffffffffffffffffffffffffffffffffffff167f8be0079c531659141344cd1fd0a4f28419497f9722a3daafe3b4186f6b6457e060405160405180910390a360008060006101000a81548173ffffffffffffffffffffffffffffffffffffffff021916908373ffffffffffffffffffffffffffffffffffffffff160217905550565b600760009054906101000a900460ff16610a0a576040517f08c379a0000000000000000000000000000000000000000000000000000000008152600401610a0190612e88565b60405180910390fd5b60003411610a4d576040517f08c379a0000000000000000000000000000000000000000000000000000000008152600401610a4490613088565b60405180910390fd5b610adc34600360003373ffffffffffffffffffffffffffffffffffffffff1673ffffffffffffffffffffffffffffffffffffffff16815260200190815260200160002060008073ffffffffffffffffffffffffffffffffffffffff1673ffffffffffffffffffffffffffffffffffffffff16815260200190815260200160002054611d0a90919063ffffffff16565b600360003373ffffffffffffffffffffffffffffffffffffffff1673ffffffffffffffffffffffffffffffffffffffff16815260200190815260200160002060008073ffffffffffffffffffffffffffffffffffffffff1673ffffffffffffffffffffffffffffffffffffffff16815260200190815260200160002081905550600073ffffffffffffffffffffffffffffffffffffffff163373ffffffffffffffffffffffffffffffffffffffff167f87e95ee7cdd8ce169873b1be6add255c13ec04051d493c3346c1e705a849e62034604051610bba91906130a8565b60405180910390a3565b6000610bcf82611d5f565b905060016004600083815260200190815260200160002060006101000a81548160ff021916908315150217905550807f5152abf959f6564662358c2e52b702259b78bac5ee7842a0f01937e670efcc7d60405160405180910390a25050565b60008060009054906101000a900473ffffffffffffffffffffffffffffffffffffffff16905090565b60046020528060005260406000206000915054906101000a900460ff1681565b60008060009054906101000a900473ffffffffffffffffffffffffffffffffffffffff1673ffffffffffffffffffffffffffffffffffffffff163373ffffffffffffffffffffffffffffffffffffffff1614905090565b600760009054906101000a900460ff16610d1d576040517f08c379a0000000000000000000000000000000000000000000000000000000008152600401610d1490612e88565b60405180910390fd5b3373ffffffffffffffffffffffffffffffffffffffff16846020015173ffffffffffffffffffffffffffffffffffffffff16148015610d8b57503373ffffffffffffffffffffffffffffffffffffffff16836020015173ffffffffffffffffffffffffffffffffffffffff16145b610dca576040517f08c379a0000000000000000000000000000000000000000000000000000000008152600401610dc190612fc8565b60405180910390fd5b826040015173ffffffffffffffffffffffffffffffffffffffff16846040015173ffffffffffffffffffffffffffffffffffffffff16148015610e405750826060015173ffffffffffffffffffffffffffffffffffffffff16846060015173ffffffffffffffffffffffffffffffffffffffff16145b610e7f576040517f08c379a0000000000000000000000000000000000000000000000000000000008152600401610e7690612f08565b60405180910390fd5b8360c00151821115610ec6576040517f08c379a0000000000000000000000000000000000000000000000000000000008152600401610ebd90612ec8565b60405180910390fd5b8260c00151821015610f0d576040517f08c379a0000000000000000000000000000000000000000000000000000000008152600401610f0490613068565b60405180910390fd5b4284610120015111158015610f2757504283610120015111155b610f66576040517f08c379a0000000000000000000000000000000000000000000000000000000008152600401610f5d90613008565b60405180910390fd5b6000610f7b8383611dd290919063ffffffff16565b90508360a00151811115610fc4576040517f08c379a0000000000000000000000000000000000000000000000000000000008152600401610fbb90612f88565b60405180910390fd5b60008560000151905060008560000151905082600360008473ffffffffffffffffffffffffffffffffffffffff1673ffffffffffffffffffffffffffffffffffffffff1681526020019081526020016000206000896060015173ffffffffffffffffffffffffffffffffffffffff1673ffffffffffffffffffffffffffffffffffffffff168152602001908152602001600020541015611099576040517f08c379a000000000000000000000000000000000000000000000000000000000815260040161109090612f28565b60405180910390fd5b60006110a488611d5f565b90506004600082815260200190815260200160002060009054906101000a900460ff1615611107576040517f08c379a00000000000000000000000000000000000000000000000000000000081526004016110fe90612ea8565b60405180910390fd5b611116818960a0015187611e42565b611155576040517f08c379a000000000000000000000000000000000000000000000000000000000815260040161114c90613048565b60405180910390fd5b84600360008473ffffffffffffffffffffffffffffffffffffffff1673ffffffffffffffffffffffffffffffffffffffff1681526020019081526020016000206000896040015173ffffffffffffffffffffffffffffffffffffffff1673ffffffffffffffffffffffffffffffffffffffff168152602001908152602001600020541015611218576040517f08c379a000000000000000000000000000000000000000000000000000000000815260040161120f90612e08565b60405180910390fd5b600061122388611d5f565b90506004600082815260200190815260200160002060009054906101000a900460ff1615611286576040517f08c379a000000000000000000000000000000000000000000000000000000000815260040161127d90612ea8565b60405180910390fd5b611295818960a0015188611e42565b6112d4576040517f08c379a00000000000000000000000000000000000000000000000000000000081526004016112cb90613048565b60405180910390fd5b61136785600360008773ffffffffffffffffffffffffffffffffffffffff1673ffffffffffffffffffffffffffffffffffffffff16815260200190815260200160002060008c6060015173ffffffffffffffffffffffffffffffffffffffff1673ffffffffffffffffffffffffffffffffffffffff16815260200190815260200160002054611edb90919063ffffffff16565b600360008673ffffffffffffffffffffffffffffffffffffffff1673ffffffffffffffffffffffffffffffffffffffff16815260200190815260200160002060008b6060015173ffffffffffffffffffffffffffffffffffffffff1673ffffffffffffffffffffffffffffffffffffffff1681526020019081526020016000208190555061147e86600360008773ffffffffffffffffffffffffffffffffffffffff1673ffffffffffffffffffffffffffffffffffffffff16815260200190815260200160002060008c6040015173ffffffffffffffffffffffffffffffffffffffff1673ffffffffffffffffffffffffffffffffffffffff16815260200190815260200160002054611d0a90919063ffffffff16565b600360008673ffffffffffffffffffffffffffffffffffffffff1673ffffffffffffffffffffffffffffffffffffffff16815260200190815260200160002060008b6040015173ffffffffffffffffffffffffffffffffffffffff1673ffffffffffffffffffffffffffffffffffffffff1681526020019081526020016000208190555061159586600360008673ffffffffffffffffffffffffffffffffffffffff1673ffffffffffffffffffffffffffffffffffffffff16815260200190815260200160002060008b6040015173ffffffffffffffffffffffffffffffffffffffff1673ffffffffffffffffffffffffffffffffffffffff16815260200190815260200160002054611edb90919063ffffffff16565b600360008573ffffffffffffffffffffffffffffffffffffffff1673ffffffffffffffffffffffffffffffffffffffff16815260200190815260200160002060008a6040015173ffffffffffffffffffffffffffffffffffffffff1673ffffffffffffffffffffffffffffffffffffffff168152602001908152602001600020819055506116ac85600360008673ffffffffffffffffffffffffffffffffffffffff1673ffffffffffffffffffffffffffffffffffffffff16815260200190815260200160002060008b6060015173ffffffffffffffffffffffffffffffffffffffff1673ffffffffffffffffffffffffffffffffffffffff16815260200190815260200160002054611d0a90919063ffffffff16565b600360008573ffffffffffffffffffffffffffffffffffffffff1673ffffffffffffffffffffffffffffffffffffffff16815260200190815260200160002060008a6060015173ffffffffffffffffffffffffffffffffffffffff1673ffffffffffffffffffffffffffffffffffffffff168152602001908152602001600020819055506117466001600654611d0a90919063ffffffff16565b60068190555061175461205f565b6040518060600160405280848152602001600060ff1681526020018881525090506002600084815260200190815260200160002081908060018154018082558091505090600182039060005260206000209060030201600090919290919091506000820151816000015560208201518160010160006101000a81548160ff021916908360ff160217905550604082015181600201555050506117f461205f565b6040518060600160405280848152602001600060ff1681526020018981525090506002600084815260200190815260200160002081908060018154018082558091505090600182039060005260206000209060030201600090919290919091506000820151816000015560208201518160010160006101000a81548160ff021916908360ff160217905550604082015181600201555050507fff75254014a94edd1f8a4cee64c8a0da2f73564fe52254150204e3734c17c87e84848b8b6040516118c19493929190612cfc565b60405180910390a15050505050505050505050565b6003602052816000526040600020602052806000526040600020600091509150505481565b600160009054906101000a900473ffffffffffffffffffffffffffffffffffffffff1681565b6000600360008373ffffffffffffffffffffffffffffffffffffffff1673ffffffffffffffffffffffffffffffffffffffff16815260200190815260200160002060008473ffffffffffffffffffffffffffffffffffffffff1673ffffffffffffffffffffffffffffffffffffffff16815260200190815260200160002054905092915050565b60065481565b6119b6610c77565b6119f5576040517f08c379a00000000000000000000000000000000000000000000000000000000081526004016119ec90612fa8565b60405180910390fd5b6119fe81611f31565b50565b80600360003373ffffffffffffffffffffffffffffffffffffffff1673ffffffffffffffffffffffffffffffffffffffff16815260200190815260200160002060008473ffffffffffffffffffffffffffffffffffffffff1673ffffffffffffffffffffffffffffffffffffffff168152602001908152602001600020541015611ac0576040517f08c379a0000000000000000000000000000000000000000000000000000000008152600401611ab790613028565b60405180910390fd5b60008290508073ffffffffffffffffffffffffffffffffffffffff1663a9059cbb33846040518363ffffffff1660e01b8152600401611b00929190612cb8565b602060405180830381600087803b158015611b1a57600080fd5b505af1158015611b2e573d6000803e3d6000fd5b505050506040513d601f19601f82011682018060405250611b5291908101906122d6565b611b91576040517f08c379a0000000000000000000000000000000000000000000000000000000008152600401611b8890612e28565b60405180910390fd5b611c2082600360003373ffffffffffffffffffffffffffffffffffffffff1673ffffffffffffffffffffffffffffffffffffffff16815260200190815260200160002060008673ffffffffffffffffffffffffffffffffffffffff1673ffffffffffffffffffffffffffffffffffffffff16815260200190815260200160002054611edb90919063ffffffff16565b600360003373ffffffffffffffffffffffffffffffffffffffff1673ffffffffffffffffffffffffffffffffffffffff16815260200190815260200160002060008573ffffffffffffffffffffffffffffffffffffffff1673ffffffffffffffffffffffffffffffffffffffff168152602001908152602001600020819055508273ffffffffffffffffffffffffffffffffffffffff163373ffffffffffffffffffffffffffffffffffffffff167f29f9103583c97b319d05287c41c024d7219f7217e16ca5f4066a7c2019cd2fd884604051611cfd91906130a8565b60405180910390a3505050565b600080828401905083811015611d55576040517f08c379a0000000000000000000000000000000000000000000000000000000008152600401611d4c90612e68565b60405180910390fd5b8091505092915050565b6000816000015182602001518360400151846060015185608001518660a001518760c001518860e001518961010001518a61012001518b6101400151604051602001611db59b9a99989796959493929190612b96565b604051602081830303815290604052805190602001209050919050565b600080831415611de55760009050611e3c565b6000828402905082848281611df657fe5b0414611e37576040517f08c379a0000000000000000000000000000000000000000000000000000000008152600401611e2e90612f68565b60405180910390fd5b809150505b92915050565b60008060008090505b6002600087815260200190815260200160002080549050811015611eba57611eab600260008881526020019081526020016000208281548110611e8a57fe5b90600052602060002090600302016002015483611d0a90919063ffffffff16565b91508080600101915050611e4b565b5083611ecf8483611d0a90919063ffffffff16565b11159150509392505050565b600082821115611f20576040517f08c379a0000000000000000000000000000000000000000000000000000000008152600401611f1790612ee8565b60405180910390fd5b600082840390508091505092915050565b600073ffffffffffffffffffffffffffffffffffffffff168173ffffffffffffffffffffffffffffffffffffffff161415611fa1576040517f08c379a0000000000000000000000000000000000000000000000000000000008152600401611f9890612e48565b60405180910390fd5b8073ffffffffffffffffffffffffffffffffffffffff166000809054906101000a900473ffffffffffffffffffffffffffffffffffffffff1673ffffffffffffffffffffffffffffffffffffffff167f8be0079c531659141344cd1fd0a4f28419497f9722a3daafe3b4186f6b6457e060405160405180910390a3806000806101000a81548173ffffffffffffffffffffffffffffffffffffffff021916908373ffffffffffffffffffffffffffffffffffffffff16021790555050565b604051806060016040528060008019168152602001600060ff168152602001600081525090565b60008135905061209581613291565b92915050565b6000813590506120aa816132a8565b92915050565b6000815190506120bf816132a8565b92915050565b6000813590506120d4816132bf565b92915050565b600061016082840312156120ed57600080fd5b6120f86101606130c3565b9050600061210884828501612086565b600083015250602061211c84828501612086565b602083015250604061213084828501612086565b604083015250606061214484828501612086565b606083015250608061215884828501612086565b60808301525060a061216c848285016121e2565b60a08301525060c0612180848285016121e2565b60c08301525060e0612194848285016121e2565b60e0830152506101006121a9848285016121e2565b610100830152506101206121bf848285016121e2565b610120830152506101406121d58482850161209b565b6101408301525092915050565b6000813590506121f1816132d6565b92915050565b600081359050612206816132ed565b92915050565b60006020828403121561221e57600080fd5b600061222c84828501612086565b91505092915050565b6000806040838503121561224857600080fd5b600061225685828601612086565b925050602061226785828601612086565b9150509250929050565b6000806040838503121561228457600080fd5b600061229285828601612086565b92505060206122a3858286016121e2565b9150509250929050565b6000602082840312156122bf57600080fd5b60006122cd8482850161209b565b91505092915050565b6000602082840312156122e857600080fd5b60006122f6848285016120b0565b91505092915050565b60006020828403121561231157600080fd5b600061231f848285016120c5565b91505092915050565b6000806040838503121561233b57600080fd5b6000612349858286016120c5565b925050602061235a858286016121e2565b9150509250929050565b6000610160828403121561237757600080fd5b6000612385848285016120da565b91505092915050565b60008060008060006101e086880312156123a757600080fd5b60006123b5888289016120da565b9550506101606123c7888289016120c5565b9450506101806123d9888289016121f7565b9350506101a06123eb888289016120c5565b9250506101c06123fd888289016120c5565b9150509295509295909350565b600080600080610300858703121561242157600080fd5b600061242f878288016120da565b945050610160612441878288016120da565b9350506102c0612453878288016121e2565b9250506102e0612465878288016121e2565b91505092959194509250565b61247a81613187565b82525050565b61248981613128565b82525050565b6124a061249b82613128565b613214565b82525050565b6124af8161313a565b82525050565b6124c66124c18261313a565b613226565b82525050565b6124d581613146565b82525050565b60006124e6826130f0565b6124f081856130fb565b93506125008185602086016131e1565b61250981613266565b840191505092915050565b61251d81613199565b82525050565b6000612530601d8361310c565b91507f696e73756666696369656e742073656c6c657227732062616c616e63650000006000830152602082019050919050565b6000612570601f8361310c565b91507f6572726f72207472616e73666572696e672066756e647320746f2075736572006000830152602082019050919050565b60006125b060058361311d565b91507f6f726465720000000000000000000000000000000000000000000000000000006000830152600582019050919050565b60006125f060268361310c565b91507f4f776e61626c653a206e6577206f776e657220697320746865207a65726f206160008301527f64647265737300000000000000000000000000000000000000000000000000006020830152604082019050919050565b6000612656601b8361310c565b91507f536166654d6174683a206164646974696f6e206f766572666c6f7700000000006000830152602082019050919050565b600061269660168361310c565b91507f636f6e7472616374206973206e6f7420616374697665000000000000000000006000830152602082019050919050565b60006126d660178361310c565b91507f627579206f72646572207761732063616e63656c6c65640000000000000000006000830152602082019050919050565b600061271660248361310c565b91507f696e636f72726563742066696c6c656420707269636520666f7220627579206f60008301527f72646572000000000000000000000000000000000000000000000000000000006020830152604082019050919050565b600061277c601e8361310c565b91507f536166654d6174683a207375627472616374696f6e206f766572666c6f7700006000830152602082019050919050565b60006127bc60138361310c565b91507f61737365747320646f206e6f74206d61746368000000000000000000000000006000830152602082019050919050565b60006127fc601c8361310c565b91507f696e73756666696369656e7420627579657227732062616c616e6365000000006000830152602082019050919050565b600061283c60158361310c565b91507f73616d652061732063757272656e7420737461746500000000000000000000006000830152602082019050919050565b600061287c60218361310c565b91507f536166654d6174683a206d756c7469706c69636174696f6e206f766572666c6f60008301527f77000000000000000000000000000000000000000000000000000000000000006020830152604082019050919050565b60006128e260188361310c565b91507f696e636f727265637420616d6f756e7420746f2074616b6500000000000000006000830152602082019050919050565b600061292260208361310c565b91507f4f776e61626c653a2063616c6c6572206973206e6f7420746865206f776e65726000830152602082019050919050565b600061296260198361310c565b91507f696e636f7272656374206d6174636865722061646472657373000000000000006000830152602082019050919050565b60006129a260238361310c565b91507f6572726f72207472616e73666572696e6720617373657420746f20657863686160008301527f6e676500000000000000000000000000000000000000000000000000000000006020830152604082019050919050565b6000612a0860108361310c565b91507f6f726465722065787069726174696f6e000000000000000000000000000000006000830152602082019050919050565b6000612a48601c8361310c565b91507f6e6f7420656e6f7567682066756e647320746f207769746864726177000000006000830152602082019050919050565b6000612a8860178361310c565b91507f696e636f72726563742066696c6c656420616d6f756e740000000000000000006000830152602082019050919050565b6000612ac860258361310c565b91507f696e636f72726563742066696c6c656420707269636520666f722073656c6c2060008301527f6f726465720000000000000000000000000000000000000000000000000000006020830152604082019050919050565b6000612b2e60138361310c565b91507f696e76616c696420616d6f756e742073656e74000000000000000000000000006000830152602082019050919050565b612b6a81613170565b82525050565b612b81612b7c82613170565b61324a565b82525050565b612b908161317a565b82525050565b6000612ba1826125a3565b9150612bad828e61248f565b601482019150612bbd828d61248f565b601482019150612bcd828c61248f565b601482019150612bdd828b61248f565b601482019150612bed828a61248f565b601482019150612bfd8289612b70565b602082019150612c0d8288612b70565b602082019150612c1d8287612b70565b602082019150612c2d8286612b70565b602082019150612c3d8285612b70565b602082019150612c4d82846124b5565b6001820191508190509c9b505050505050505050505050565b6000602082019050612c7b6000830184612480565b92915050565b6000606082019050612c966000830186612471565b612ca36020830185612480565b612cb06040830184612b61565b949350505050565b6000604082019050612ccd6000830185612471565b612cda6020830184612b61565b9392505050565b6000602082019050612cf660008301846124a6565b92915050565b6000608082019050612d1160008301876124cc565b612d1e60208301866124cc565b612d2b6040830185612b61565b612d386060830184612b61565b95945050505050565b6000608082019050612d5660008301876124cc565b612d636020830186612b87565b612d7060408301856124cc565b612d7d60608301846124cc565b95945050505050565b6000606082019050612d9b60008301866124cc565b612da86020830185612b87565b612db56040830184612b61565b949350505050565b60006040820190508181036000830152612dd781856124db565b9050612de660208301846124cc565b9392505050565b6000602082019050612e026000830184612514565b92915050565b60006020820190508181036000830152612e2181612523565b9050919050565b60006020820190508181036000830152612e4181612563565b9050919050565b60006020820190508181036000830152612e61816125e3565b9050919050565b60006020820190508181036000830152612e8181612649565b9050919050565b60006020820190508181036000830152612ea181612689565b9050919050565b60006020820190508181036000830152612ec1816126c9565b9050919050565b60006020820190508181036000830152612ee181612709565b9050919050565b60006020820190508181036000830152612f018161276f565b9050919050565b60006020820190508181036000830152612f21816127af565b9050919050565b60006020820190508181036000830152612f41816127ef565b9050919050565b60006020820190508181036000830152612f618161282f565b9050919050565b60006020820190508181036000830152612f818161286f565b9050919050565b60006020820190508181036000830152612fa1816128d5565b9050919050565b60006020820190508181036000830152612fc181612915565b9050919050565b60006020820190508181036000830152612fe181612955565b9050919050565b6000602082019050818103600083015261300181612995565b9050919050565b60006020820190508181036000830152613021816129fb565b9050919050565b6000602082019050818103600083015261304181612a3b565b9050919050565b6000602082019050818103600083015261306181612a7b565b9050919050565b6000602082019050818103600083015261308181612abb565b9050919050565b600060208201905081810360008301526130a181612b21565b9050919050565b60006020820190506130bd6000830184612b61565b92915050565b6000604051905081810181811067ffffffffffffffff821117156130e657600080fd5b8060405250919050565b600081519050919050565b600082825260208201905092915050565b600082825260208201905092915050565b600081905092915050565b600061313382613150565b9050919050565b60008115159050919050565b6000819050919050565b600073ffffffffffffffffffffffffffffffffffffffff82169050919050565b6000819050919050565b600060ff82169050919050565b6000613192826131bd565b9050919050565b60006131a4826131ab565b9050919050565b60006131b682613150565b9050919050565b60006131c8826131cf565b9050919050565b60006131da82613150565b9050919050565b60005b838110156131ff5780820151818401526020810190506131e4565b8381111561320e576000848401525b50505050565b600061321f82613238565b9050919050565b600061323182613254565b9050919050565b600061324382613284565b9050919050565b6000819050919050565b600061325f82613277565b9050919050565b6000601f19601f8301169050919050565b60008160f81b9050919050565b60008160601b9050919050565b61329a81613128565b81146132a557600080fd5b50565b6132b18161313a565b81146132bc57600080fd5b50565b6132c881613146565b81146132d357600080fd5b50565b6132df81613170565b81146132ea57600080fd5b50565b6132f68161317a565b811461330157600080fd5b5056fea365627a7a723158201b0eeada9a4862b6c2262b60d36e16b0d94fa3471e846dffdce75581582b2f196c6578706572696d656e74616cf564736f6c634300050c0040",
  "source": "pragma solidity ^0.5.10;\npragma experimental ABIEncoderV2;\n\nimport '@openzeppelin/contracts/math/SafeMath.sol';\nimport '@openzeppelin/contracts/ownership/Ownable.sol';\nimport '@openzeppelin/contracts/token/ERC20/IERC20.sol';\n\n\n/**\n * @title Exchange\n * @dev Exchange contract for the Orion Protocol\n * @author @wafflemakr\n */\ncontract Exchange is Ownable{\n\n    using SafeMath for uint;\n\n    // EVENTS\n    event NewWanDeposit(address indexed user, uint amount);\n    event NewAssetDeposit(address indexed user, address indexed assetAddress, uint amount);\n    event NewWanWithdrawl(address indexed user, uint amount);\n    event NewAssetWithdrawl(address indexed user, address indexed assetAddress, uint amount);\n    event NewTrade(bytes32 buyOrderHash, bytes32 sellOrderHash, uint pricebuyOrderHash, uint amount);\n    event OrderCancelled(bytes32 indexed orderHash);\n\n    event RecoveredAddress(address sender);\n\n\n    // GLOBAL VARIABLES\n\n    IERC20 public orion;\n\n    struct Order{\n        address senderAddress;\n        address matcherAddress;\n        address baseAsset;\n        address quotetAsset;\n        address matcherFeeAsset;\n        uint amount;\n        uint price;\n        uint matcherFee;\n        uint nonce;\n        uint expiration;\n        bool side; // true = buy false = sell\n    }\n\n    struct Trade{\n        bytes32 orderHash;\n        uint8 orderStatus;\n        uint filledAmount;\n    }\n\n    // Get trades by orderHash\n    mapping(bytes32 => Trade[]) public trades;\n\n    // Get user balance by address and asset address\n    mapping(address => mapping(address => uint)) public assetBalances;\n\n    // Check if an order was cancelled\n    mapping(bytes32 => bool) public cancelledOrders;\n\n    uint public totalOrders;\n    uint public totalTrades;\n    // Pause or unpause exchangebuyOrderHash\n    bool isActive = true;\n\n\n    // MODIFIERS\n\n    /**\n     * @dev prevents people from using the exchange if not active\n     */\n    modifier onlyActive() {\n        require(isActive, \"contract is not active\");\n        _;\n    }\n\n\n    // MAIN FUNCTIONSh\n    /**\n     * @dev Deposit WAN or ERC20 tokens to the exchange contract\n     * @dev User needs to approve token contract first\n     */\n    function depositAsset(address assetAddress, uint amount) public payable onlyActive{\n        IERC20 asset = IERC20(assetAddress);\n        require(asset.transferFrom(msg.sender, address(this), amount), \"error transfering asset to exchange\");\n\n        assetBalances[msg.sender][assetAddress] = assetBalances[msg.sender][assetAddress].add(amount);\n\n        emit NewAssetDeposit(msg.sender, assetAddress, amount);\n    }\n\n    /**\n     * @dev Deposit WAN to the exchange contract\n     */\n    function depositWan() public payable onlyActive{\n        require(msg.value > 0, \"invalid amount sent\");\n\n        assetBalances[msg.sender][address(0)] = assetBalances[msg.sender][address(0)].add(msg.value);\n\n        emit NewAssetDeposit(msg.sender, address(0), msg.value);\n    }\n\n    /**\n     * @dev Withdrawal of remaining funds from the contract back to the address\n     */\n    function withdraw(address assetAddress, uint amount) public{\n        require(assetBalances[msg.sender][assetAddress] >= amount, \"not enough funds to withdraw\");\n        IERC20 asset = IERC20(assetAddress);\n\n        require(asset.transfer(msg.sender, amount), \"error transfering funds to user\");\n        assetBalances[msg.sender][assetAddress] = assetBalances[msg.sender][assetAddress].sub(amount);\n\n        emit NewAssetWithdrawl(msg.sender, assetAddress, amount);\n    }\n\n\n    /**\n     * @dev Asset balance for a specific address\n     */\n    function getBalance(address assetAddress, address user) public view returns(uint assetBalance){\n        return assetBalances[user][assetAddress];\n    }\n\n    /**\n     * @notice Settle a trade with two orders, filled price and amount\n     * @dev 2 orders are submitted, it is necessary to match them:\n        check conditions in orders for compliance filledPrice, filledAmountbuyOrderHash\n        change balances on the contract respectively with buyer, seller, matcbuyOrderHashher\n     * @param buyOrder structure of buy side orderbuyOrderHash\n     * @param sellOrder structure of sell side order\n     * @param filledPrice price at which the order was settled\n     * @param filledAmount amount settled between orders\n     */\n    function fillOrders(Order memory buyOrder, Order memory sellOrder, uint filledPrice, uint filledAmount) public onlyActive{\n\n        //VERIFICATIONS\n\n        require(buyOrder.matcherAddress == msg.sender && sellOrder.matcherAddress == msg.sender, \"incorrect matcher address\");\n        require(buyOrder.baseAsset == sellOrder.baseAsset && buyOrder.quotetAsset == sellOrder.quotetAsset, \"assets do not match\");\n        require(filledPrice <= buyOrder.price, \"incorrect filled price for buy order\");\n        require(filledPrice >= sellOrder.price, \"incorrect filled price for sell order\");\n        require(buyOrder.expiration <= now && sellOrder.expiration <= now, \"order expiration\");\n\n        //Amount of opposite asset according to filledPrice and filledAmount\n        uint amountToTake = filledAmount.mul(filledPrice);\n        require(amountToTake <= sellOrder.amount, \"incorrect amount to take\");\n\n        address buyer = buyOrder.senderAddress;\n        address seller = sellOrder.senderAddress;\n\n        // BUY SIDE CHECK\n\n        require(assetBalances[buyer][buyOrder.quotetAsset] >= amountToTake, \"insufficient buyer's balance\");\n        bytes32 buyOrderHash = _getOrderhash(buyOrder);\n        require(!cancelledOrders[buyOrderHash], \"buy order was cancelled\");\n        require(_checkAmount(buyOrderHash, buyOrder.amount, filledAmount), \"incorrect filled amount\");\n\n        // SELL SIDE CHECK\n        require(assetBalances[seller][sellOrder.baseAsset] >= filledAmount, \"insufficient seller's balance\");\n        bytes32 sellOrderHash = _getOrderhash(sellOrder);\n        require(!cancelledOrders[sellOrderHash], \"buy order was cancelled\");\n        require(_checkAmount(sellOrderHash, sellOrder.amount, filledAmount), \"incorrect filled amount\");\n\n        // === VERIFICATIONS DONE ===\n\n        // Update Buyer's Balance (- quoteAsset + baseAsset - matcherFeeAsset)\n        assetBalances[buyer][buyOrder.quotetAsset] = assetBalances[buyer][buyOrder.quotetAsset].sub(amountToTake);\n        assetBalances[buyer][buyOrder.baseAsset] = assetBalances[buyer][buyOrder.baseAsset].add(filledAmount);\n\n        // Update Seller's Balance  (+ quoteAsset - baseAsset - matcherFeeAsset)\n        assetBalances[seller][sellOrder.baseAsset] = assetBalances[seller][sellOrder.baseAsset].sub(filledAmount);\n        assetBalances[seller][sellOrder.quotetAsset] = assetBalances[seller][sellOrder.quotetAsset].add(amountToTake);\n\n        totalTrades = totalTrades.add(1);\n\n        //Store trades\n        Trade memory buyTrade = Trade(buyOrderHash, 0, filledAmount); //temporary set 0 for orderStatus until logic implemented\n        trades[buyOrderHash].push(buyTrade);\n        Trade memory sellTrade = Trade(sellOrderHash, 0, filledAmount); //temporary set 0 for orderStatus until logic implemented\n        trades[sellOrderHash].push(sellTrade);\n\n\n        //TODO what to put in orderStatus (compare filledAmount to which amount? buy or sell order)\n\n        emit NewTrade(buyOrderHash, sellOrderHash, filledPrice, filledAmount);\n\n    }\n\n    function _checkAmount(bytes32 orderHash, uint orderAmount, uint newTradeAmount) internal view returns(bool){\n        uint totalTradeAmount;\n        for(uint i = 0; i < trades[orderHash].length; i++){\n            totalTradeAmount = totalTradeAmount.add(trades[orderHash][i].filledAmount);\n        }\n        return (totalTradeAmount.add(newTradeAmount) <= orderAmount);\n    }\n\n    function _getOrderhash(Order memory _order) internal pure returns(bytes32){\n        return keccak256(abi.encodePacked(\n            \"order\",\n            _order.senderAddress,\n            _order.matcherAddress,\n            _order.baseAsset,\n            _order.quotetAsset,\n            _order.matcherFeeAsset,\n            _order.amount,\n            _order.price,\n            _order.matcherFee,\n            _order.nonce,\n            _order.expiration,\n            _order.side\n        ));\n    }\n\n    function validateOrder(Order memory order, bytes32 message, uint8 v, bytes32 r, bytes32 s) public {\n        bytes memory prefix = \"\\x19Ethereum Signed Message:\\n32\";\n        bytes32 prefixedHash = keccak256(abi.encode(prefix, message));\n        address recovered = ecrecover(prefixedHash, v, r, s);\n\n        emit RecoveredAddress(recovered);\n    }\n\n    /**\n     * @dev write an orderHash in the contract so that such an order cannot be filled (executed)\n     */\n    function cancelOrder(Order memory order) public{\n        //TODO: check if order can be cancelled\n\n        bytes32 orderHash = _getOrderhash(order);\n\n        cancelledOrders[orderHash] = true;\n        emit OrderCancelled(orderHash);\n    }\n\n    // OWNER FUNCTIONS\n\n    /**\n     * @dev change state of contracts\n     */\n    function updateContractState(bool newState) public onlyOwner{\n        require(isActive != newState, \"same as current state\");\n        isActive = newState;\n    }\n    \n}",
  "sourcePath": "/home/wafflemakr/Desktop/PROYECTOS/orionex/orion-exchange/contracts/Exchange.sol",
  "compiler": {
    "name": "solc",
    "version": "0.5.12+commit.7709ece9.Emscripten.clang"
  },
  "schemaVersion": "3.0.11",
  "updatedAt": "2019-10-04T19:46:25.803Z",
  "devdoc": {
    "author": "@wafflemakr",
    "details": "Exchange contract for the Orion Protocol",
    "methods": {
      "cancelOrder((address,address,address,address,address,uint256,uint256,uint256,uint256,uint256,bool))": {
        "details": "write an orderHash in the contract so that such an order cannot be filled (executed)"
      },
      "depositAsset(address,uint256)": {
        "details": "Deposit WAN or ERC20 tokens to the exchange contractUser needs to approve token contract first"
      },
      "depositWan()": {
        "details": "Deposit WAN to the exchange contract"
      },
      "fillOrders((address,address,address,address,address,uint256,uint256,uint256,uint256,uint256,bool),(address,address,address,address,address,uint256,uint256,uint256,uint256,uint256,bool),uint256,uint256)": {
        "details": "2 orders are submitted, it is necessary to match them: check conditions in orders for compliance filledPrice, filledAmountbuyOrderHash change balances on the contract respectively with buyer, seller, matcbuyOrderHashher",
        "params": {
          "buyOrder": "structure of buy side orderbuyOrderHash",
          "filledAmount": "amount settled between orders",
          "filledPrice": "price at which the order was settled",
          "sellOrder": "structure of sell side order"
        }
      },
      "getBalance(address,address)": {
        "details": "Asset balance for a specific address"
      },
      "isOwner()": {
        "details": "Returns true if the caller is the current owner."
      },
      "owner()": {
        "details": "Returns the address of the current owner."
      },
      "renounceOwnership()": {
        "details": "Leaves the contract without owner. It will not be possible to call `onlyOwner` functions anymore. Can only be called by the current owner.     * > Note: Renouncing ownership will leave the contract without an owner, thereby removing any functionality that is only available to the owner."
      },
      "transferOwnership(address)": {
        "details": "Transfers ownership of the contract to a new account (`newOwner`). Can only be called by the current owner."
      },
      "updateContractState(bool)": {
        "details": "change state of contracts"
      },
      "withdraw(address,uint256)": {
        "details": "Withdrawal of remaining funds from the contract back to the address"
      }
    },
    "title": "Exchange"
  },
  "userdoc": {
    "methods": {
      "fillOrders((address,address,address,address,address,uint256,uint256,uint256,uint256,uint256,bool),(address,address,address,address,address,uint256,uint256,uint256,uint256,uint256,bool),uint256,uint256)": {
        "notice": "Settle a trade with two orders, filled price and amount"
      }
    }
  }
}