{
  "contractName": "Exchange",
  "abi": [
    {
      "constant": true,
      "inputs": [
        {
          "name": "",
          "type": "bytes32"
        }
      ],
      "name": "orderStatus",
      "outputs": [
        {
          "name": "",
          "type": "uint8"
        }
      ],
      "payable": false,
      "stateMutability": "view",
      "type": "function",
      "signature": "0x2dff692d"
    },
    {
      "constant": true,
      "inputs": [
        {
          "name": "",
          "type": "bytes32"
        },
        {
          "name": "",
          "type": "uint256"
        }
      ],
      "name": "trades",
      "outputs": [
        {
          "name": "filledPrice",
          "type": "uint256"
        },
        {
          "name": "filledAmount",
          "type": "uint256"
        },
        {
          "name": "feePaid",
          "type": "uint256"
        },
        {
          "name": "timestamp",
          "type": "uint256"
        }
      ],
      "payable": false,
      "stateMutability": "view",
      "type": "function",
      "signature": "0x50ef1f5d"
    },
    {
      "constant": false,
      "inputs": [],
      "name": "renounceOwnership",
      "outputs": [],
      "payable": false,
      "stateMutability": "nonpayable",
      "type": "function",
      "signature": "0x715018a6"
    },
    {
      "constant": true,
      "inputs": [],
      "name": "owner",
      "outputs": [
        {
          "name": "",
          "type": "address"
        }
      ],
      "payable": false,
      "stateMutability": "view",
      "type": "function",
      "signature": "0x8da5cb5b"
    },
    {
      "constant": true,
      "inputs": [],
      "name": "isOwner",
      "outputs": [
        {
          "name": "",
          "type": "bool"
        }
      ],
      "payable": false,
      "stateMutability": "view",
      "type": "function",
      "signature": "0x8f32d59b"
    },
    {
      "constant": false,
      "inputs": [
        {
          "name": "newOwner",
          "type": "address"
        }
      ],
      "name": "transferOwnership",
      "outputs": [],
      "payable": false,
      "stateMutability": "nonpayable",
      "type": "function",
      "signature": "0xf2fde38b"
    },
    {
      "payable": false,
      "stateMutability": "nonpayable",
      "type": "fallback"
    },
    {
      "anonymous": false,
      "inputs": [
        {
          "indexed": true,
          "name": "user",
          "type": "address"
        },
        {
          "indexed": true,
          "name": "assetAddress",
          "type": "address"
        },
        {
          "indexed": false,
          "name": "amount",
          "type": "uint256"
        }
      ],
      "name": "NewAssetDeposit",
      "type": "event",
      "signature": "0x87e95ee7cdd8ce169873b1be6add255c13ec04051d493c3346c1e705a849e620"
    },
    {
      "anonymous": false,
      "inputs": [
        {
          "indexed": true,
          "name": "user",
          "type": "address"
        },
        {
          "indexed": true,
          "name": "assetAddress",
          "type": "address"
        },
        {
          "indexed": false,
          "name": "amount",
          "type": "uint256"
        }
      ],
      "name": "NewAssetWithdrawl",
      "type": "event",
      "signature": "0x29f9103583c97b319d05287c41c024d7219f7217e16ca5f4066a7c2019cd2fd8"
    },
    {
      "anonymous": false,
      "inputs": [
        {
          "indexed": true,
          "name": "buyer",
          "type": "address"
        },
        {
          "indexed": true,
          "name": "seller",
          "type": "address"
        },
        {
          "indexed": false,
          "name": "baseAsset",
          "type": "address"
        },
        {
          "indexed": false,
          "name": "quoteAsset",
          "type": "address"
        },
        {
          "indexed": false,
          "name": "filledPrice",
          "type": "uint256"
        },
        {
          "indexed": false,
          "name": "filledAmount",
          "type": "uint256"
        },
        {
          "indexed": false,
          "name": "amountQuote",
          "type": "uint256"
        }
      ],
      "name": "NewTrade",
      "type": "event",
      "signature": "0xf626b901f3fa655ecbe675d14617d20a33bf86418ef46f472af1a2583dde7bf6"
    },
    {
      "anonymous": false,
      "inputs": [
        {
          "indexed": false,
          "name": "orderHash",
          "type": "bytes32"
        },
        {
          "indexed": true,
          "name": "user",
          "type": "address"
        },
        {
          "indexed": false,
          "name": "orderStatus",
          "type": "uint8"
        }
      ],
      "name": "OrderUpdate",
      "type": "event",
      "signature": "0x4677c8c1a033289f42cc2c1836dde0a2cb2d79670e9d76c450c8b1f8e5473a85"
    },
    {
      "anonymous": false,
      "inputs": [
        {
          "indexed": true,
          "name": "previousOwner",
          "type": "address"
        },
        {
          "indexed": true,
          "name": "newOwner",
          "type": "address"
        }
      ],
      "name": "OwnershipTransferred",
      "type": "event",
      "signature": "0x8be0079c531659141344cd1fd0a4f28419497f9722a3daafe3b4186f6b6457e0"
    },
    {
      "constant": false,
      "inputs": [
        {
          "name": "assetAddress",
          "type": "address"
        },
        {
          "name": "amount",
          "type": "uint256"
        }
      ],
      "name": "depositAsset",
      "outputs": [],
      "payable": false,
      "stateMutability": "nonpayable",
      "type": "function",
      "signature": "0x46a5d043"
    },
    {
      "constant": false,
      "inputs": [],
      "name": "deposit",
      "outputs": [],
      "payable": true,
      "stateMutability": "payable",
      "type": "function",
      "signature": "0xd0e30db0"
    },
    {
      "constant": false,
      "inputs": [
        {
          "name": "assetAddress",
          "type": "address"
        },
        {
          "name": "amount",
          "type": "uint256"
        }
      ],
      "name": "withdraw",
      "outputs": [],
      "payable": false,
      "stateMutability": "nonpayable",
      "type": "function",
      "signature": "0xf3fef3a3"
    },
    {
      "constant": true,
      "inputs": [
        {
          "name": "assetAddress",
          "type": "address"
        },
        {
          "name": "user",
          "type": "address"
        }
      ],
      "name": "getBalance",
      "outputs": [
        {
          "name": "assetBalance",
          "type": "uint256"
        }
      ],
      "payable": false,
      "stateMutability": "view",
      "type": "function",
      "signature": "0xd4fac45d"
    },
    {
      "constant": true,
      "inputs": [
        {
          "name": "assetsAddresses",
          "type": "address[]"
        },
        {
          "name": "user",
          "type": "address"
        }
      ],
      "name": "getBalances",
      "outputs": [
        {
          "name": "",
          "type": "uint256[]"
        }
      ],
      "payable": false,
      "stateMutability": "view",
      "type": "function",
      "signature": "0xd1c07028"
    },
    {
      "constant": true,
      "inputs": [
        {
          "components": [
            {
              "name": "senderAddress",
              "type": "address"
            },
            {
              "name": "matcherAddress",
              "type": "address"
            },
            {
              "name": "baseAsset",
              "type": "address"
            },
            {
              "name": "quoteAsset",
              "type": "address"
            },
            {
              "name": "matcherFeeAsset",
              "type": "address"
            },
            {
              "name": "amount",
              "type": "uint64"
            },
            {
              "name": "price",
              "type": "uint64"
            },
            {
              "name": "matcherFee",
              "type": "uint64"
            },
            {
              "name": "nonce",
              "type": "uint64"
            },
            {
              "name": "expiration",
              "type": "uint64"
            },
            {
              "name": "side",
              "type": "string"
            },
            {
              "name": "signature",
              "type": "bytes"
            }
          ],
          "name": "order",
          "type": "tuple"
        }
      ],
      "name": "getOrderTrades",
      "outputs": [
        {
          "components": [
            {
              "name": "filledPrice",
              "type": "uint256"
            },
            {
              "name": "filledAmount",
              "type": "uint256"
            },
            {
              "name": "feePaid",
              "type": "uint256"
            },
            {
              "name": "timestamp",
              "type": "uint256"
            }
          ],
          "name": "",
          "type": "tuple[]"
        }
      ],
      "payable": false,
      "stateMutability": "view",
      "type": "function",
      "signature": "0xd9dc90d4"
    },
    {
      "constant": true,
      "inputs": [
        {
          "components": [
            {
              "name": "senderAddress",
              "type": "address"
            },
            {
              "name": "matcherAddress",
              "type": "address"
            },
            {
              "name": "baseAsset",
              "type": "address"
            },
            {
              "name": "quoteAsset",
              "type": "address"
            },
            {
              "name": "matcherFeeAsset",
              "type": "address"
            },
            {
              "name": "amount",
              "type": "uint64"
            },
            {
              "name": "price",
              "type": "uint64"
            },
            {
              "name": "matcherFee",
              "type": "uint64"
            },
            {
              "name": "nonce",
              "type": "uint64"
            },
            {
              "name": "expiration",
              "type": "uint64"
            },
            {
              "name": "side",
              "type": "string"
            },
            {
              "name": "signature",
              "type": "bytes"
            }
          ],
          "name": "order",
          "type": "tuple"
        }
      ],
      "name": "getFilledAmounts",
      "outputs": [
        {
          "name": "totalFilled",
          "type": "uint256"
        },
        {
          "name": "totalFeesPaid",
          "type": "uint256"
        }
      ],
      "payable": false,
      "stateMutability": "view",
      "type": "function",
      "signature": "0xc3c44434"
    },
    {
      "constant": true,
      "inputs": [
        {
          "components": [
            {
              "name": "senderAddress",
              "type": "address"
            },
            {
              "name": "matcherAddress",
              "type": "address"
            },
            {
              "name": "baseAsset",
              "type": "address"
            },
            {
              "name": "quoteAsset",
              "type": "address"
            },
            {
              "name": "matcherFeeAsset",
              "type": "address"
            },
            {
              "name": "amount",
              "type": "uint64"
            },
            {
              "name": "price",
              "type": "uint64"
            },
            {
              "name": "matcherFee",
              "type": "uint64"
            },
            {
              "name": "nonce",
              "type": "uint64"
            },
            {
              "name": "expiration",
              "type": "uint64"
            },
            {
              "name": "side",
              "type": "string"
            },
            {
              "name": "signature",
              "type": "bytes"
            }
          ],
          "name": "order",
          "type": "tuple"
        }
      ],
      "name": "getOrderStatus",
      "outputs": [
        {
          "name": "status",
          "type": "uint8"
        }
      ],
      "payable": false,
      "stateMutability": "view",
      "type": "function",
      "signature": "0x79c56410"
    },
    {
      "constant": false,
      "inputs": [
        {
          "components": [
            {
              "name": "senderAddress",
              "type": "address"
            },
            {
              "name": "matcherAddress",
              "type": "address"
            },
            {
              "name": "baseAsset",
              "type": "address"
            },
            {
              "name": "quoteAsset",
              "type": "address"
            },
            {
              "name": "matcherFeeAsset",
              "type": "address"
            },
            {
              "name": "amount",
              "type": "uint64"
            },
            {
              "name": "price",
              "type": "uint64"
            },
            {
              "name": "matcherFee",
              "type": "uint64"
            },
            {
              "name": "nonce",
              "type": "uint64"
            },
            {
              "name": "expiration",
              "type": "uint64"
            },
            {
              "name": "side",
              "type": "string"
            },
            {
              "name": "signature",
              "type": "bytes"
            }
          ],
          "name": "buyOrder",
          "type": "tuple"
        },
        {
          "components": [
            {
              "name": "senderAddress",
              "type": "address"
            },
            {
              "name": "matcherAddress",
              "type": "address"
            },
            {
              "name": "baseAsset",
              "type": "address"
            },
            {
              "name": "quoteAsset",
              "type": "address"
            },
            {
              "name": "matcherFeeAsset",
              "type": "address"
            },
            {
              "name": "amount",
              "type": "uint64"
            },
            {
              "name": "price",
              "type": "uint64"
            },
            {
              "name": "matcherFee",
              "type": "uint64"
            },
            {
              "name": "nonce",
              "type": "uint64"
            },
            {
              "name": "expiration",
              "type": "uint64"
            },
            {
              "name": "side",
              "type": "string"
            },
            {
              "name": "signature",
              "type": "bytes"
            }
          ],
          "name": "sellOrder",
          "type": "tuple"
        },
        {
          "name": "filledPrice",
          "type": "uint256"
        },
        {
          "name": "filledAmount",
          "type": "uint256"
        }
      ],
      "name": "fillOrders",
      "outputs": [],
      "payable": false,
      "stateMutability": "nonpayable",
      "type": "function",
      "signature": "0x963274c2"
    },
    {
      "constant": true,
      "inputs": [
        {
          "name": "orderHash",
          "type": "bytes32"
        }
      ],
      "name": "isOrderCancelled",
      "outputs": [
        {
          "name": "",
          "type": "bool"
        }
      ],
      "payable": false,
      "stateMutability": "view",
      "type": "function",
      "signature": "0x0c511d11"
    },
    {
      "constant": true,
      "inputs": [
        {
          "components": [
            {
              "name": "senderAddress",
              "type": "address"
            },
            {
              "name": "matcherAddress",
              "type": "address"
            },
            {
              "name": "baseAsset",
              "type": "address"
            },
            {
              "name": "quoteAsset",
              "type": "address"
            },
            {
              "name": "matcherFeeAsset",
              "type": "address"
            },
            {
              "name": "amount",
              "type": "uint64"
            },
            {
              "name": "price",
              "type": "uint64"
            },
            {
              "name": "matcherFee",
              "type": "uint64"
            },
            {
              "name": "nonce",
              "type": "uint64"
            },
            {
              "name": "expiration",
              "type": "uint64"
            },
            {
              "name": "side",
              "type": "string"
            },
            {
              "name": "signature",
              "type": "bytes"
            }
          ],
          "name": "order",
          "type": "tuple"
        }
      ],
      "name": "validateOrder",
      "outputs": [
        {
          "name": "isValid",
          "type": "bool"
        }
      ],
      "payable": false,
      "stateMutability": "pure",
      "type": "function",
      "signature": "0xb4558869"
    },
    {
      "constant": false,
      "inputs": [
        {
          "components": [
            {
              "name": "senderAddress",
              "type": "address"
            },
            {
              "name": "matcherAddress",
              "type": "address"
            },
            {
              "name": "baseAsset",
              "type": "address"
            },
            {
              "name": "quoteAsset",
              "type": "address"
            },
            {
              "name": "matcherFeeAsset",
              "type": "address"
            },
            {
              "name": "amount",
              "type": "uint64"
            },
            {
              "name": "price",
              "type": "uint64"
            },
            {
              "name": "matcherFee",
              "type": "uint64"
            },
            {
              "name": "nonce",
              "type": "uint64"
            },
            {
              "name": "expiration",
              "type": "uint64"
            },
            {
              "name": "side",
              "type": "string"
            },
            {
              "name": "signature",
              "type": "bytes"
            }
          ],
          "name": "order",
          "type": "tuple"
        }
      ],
      "name": "cancelOrder",
      "outputs": [],
      "payable": false,
      "stateMutability": "nonpayable",
      "type": "function",
      "signature": "0x252fad6d"
    }
  ],
  "bytecode": "0x608060405260006200001f620000ca640100000000026401000000009004565b9050806000806101000a81548173ffffffffffffffffffffffffffffffffffffffff021916908373ffffffffffffffffffffffffffffffffffffffff1602179055508073ffffffffffffffffffffffffffffffffffffffff16600073ffffffffffffffffffffffffffffffffffffffff167f8be0079c531659141344cd1fd0a4f28419497f9722a3daafe3b4186f6b6457e060405160405180910390a35060018081905550620000d2565b600033905090565b6140a380620000e26000396000f3fe608060405260043610610126576000357c010000000000000000000000000000000000000000000000000000000090048063963274c2116100b2578063d1c0702811610081578063d1c07028146103d2578063d4fac45d1461040f578063d9dc90d41461044c578063f2fde38b14610489578063f3fef3a3146104b257610126565b8063963274c214610324578063b45588691461034d578063c3c444341461038a578063d0e30db0146103c857610126565b806350ef1f5d116100f957806350ef1f5d1461023a578063715018a61461027a57806379c56410146102915780638da5cb5b146102ce5780638f32d59b146102f957610126565b80630c511d111461016e578063252fad6d146101ab5780632dff692d146101d457806346a5d04314610211575b34801561013257600080fd5b506040517f08c379a000000000000000000000000000000000000000000000000000000000815260040161016590613b69565b60405180910390fd5b34801561017a57600080fd5b5061019560048036036101909190810190612ed1565b6104db565b6040516101a291906139ae565b60405180910390f35b3480156101b757600080fd5b506101d260048036036101cd9190810190612f36565b61056f565b005b3480156101e057600080fd5b506101fb60048036036101f69190810190612ed1565b610900565b6040516102089190613aac565b60405180910390f35b34801561021d57600080fd5b5061023860048036036102339190810190612e18565b610920565b005b34801561024657600080fd5b50610261600480360361025c9190810190612efa565b610c58565b6040516102719493929190613cfe565b60405180910390f35b34801561028657600080fd5b5061028f610ca2565b005b34801561029d57600080fd5b506102b860048036036102b39190810190612f36565b610da8565b6040516102c59190613aac565b60405180910390f35b3480156102da57600080fd5b506102e3610ddf565b6040516102f0919061384a565b60405180910390f35b34801561030557600080fd5b5061030e610e08565b60405161031b91906139ae565b60405180910390f35b34801561033057600080fd5b5061034b60048036036103469190810190612f77565b610e66565b005b34801561035957600080fd5b50610374600480360361036f9190810190612f36565b611146565b60405161038191906139ae565b60405180910390f35b34801561039657600080fd5b506103b160048036036103ac9190810190612f36565b6111f2565b6040516103bf929190613cd5565b60405180910390f35b6103d0611343565b005b3480156103de57600080fd5b506103f960048036036103f49190810190612e54565b611591565b604051610406919061398c565b60405180910390f35b34801561041b57600080fd5b5061043660048036036104319190810190612ddc565b611696565b6040516104439190613cba565b60405180910390f35b34801561045857600080fd5b50610473600480360361046e9190810190612f36565b61171d565b604051610480919061396a565b60405180910390f35b34801561049557600080fd5b506104b060048036036104ab9190810190612db3565b6117c5565b005b3480156104be57600080fd5b506104d960048036036104d49190810190612e18565b611818565b005b60006004808111156104e957fe5b6003600084815260200190815260200160002060009054906101000a900460ff16600481111561051557fe5b148061055757506003600481111561052957fe5b6003600084815260200190815260200160002060009054906101000a900460ff16600481111561055557fe5b145b15610565576001905061056a565b600090505b919050565b60018060008282540192505081905550600060015490508173__LibValidator__________________________63e7e652ed90916040518263ffffffff167c01000000000000000000000000000000000000000000000000000000000281526004016105db9190613c29565b60206040518083038186803b1580156105f357600080fd5b505af4158015610607573d6000803e3d6000fd5b505050506040513d601f19601f8201168201806040525061062b9190810190612ea8565b61066a576040517f08c379a000000000000000000000000000000000000000000000000000000000815260040161066190613b09565b60405180910390fd5b816000015173ffffffffffffffffffffffffffffffffffffffff1661068d611ac7565b73ffffffffffffffffffffffffffffffffffffffff16146106e3576040517f08c379a00000000000000000000000000000000000000000000000000000000081526004016106da90613be9565b60405180910390fd5b60006106ee83611acf565b90506106f9816104db565b15610739576040517f08c379a000000000000000000000000000000000000000000000000000000000815260040161073090613c09565b60405180910390fd5b6000610744846111f2565b509050600081111561078957600380600084815260200190815260200160002060006101000a81548160ff0219169083600481111561077f57fe5b02179055506107bf565b60046003600084815260200190815260200160002060006101000a81548160ff021916908360048111156107b957fe5b02179055505b6107c7611ac7565b73ffffffffffffffffffffffffffffffffffffffff167f4677c8c1a033289f42cc2c1836dde0a2cb2d79670e9d76c450c8b1f8e5473a85836003600086815260200190815260200160002060009054906101000a900460ff1660405161082e929190613a83565b60405180910390a26003600481111561084357fe5b6003600084815260200190815260200160002060009054906101000a900460ff16600481111561086f57fe5b14806108b0575060048081111561088257fe5b6003600084815260200190815260200160002060009054906101000a900460ff1660048111156108ae57fe5b145b6108b657fe5b505060015481146108fc576040517f08c379a00000000000000000000000000000000000000000000000000000000081526004016108f390613b89565b60405180910390fd5b5050565b60036020528060005260406000206000915054906101000a900460ff1681565b60008290508073ffffffffffffffffffffffffffffffffffffffff166323b872dd610949611ac7565b30856040518463ffffffff167c010000000000000000000000000000000000000000000000000000000002815260040161098593929190613865565b602060405180830381600087803b15801561099f57600080fd5b505af11580156109b3573d6000803e3d6000fd5b505050506040513d601f19601f820116820180604052506109d79190810190612ea8565b610a16576040517f08c379a0000000000000000000000000000000000000000000000000000000008152600401610a0d90613b69565b60405180910390fd5b600073__LibUnitConverter______________________634324960685856040518363ffffffff167c0100000000000000000000000000000000000000000000000000000000028152600401610a6d929190613941565b60206040518083038186803b158015610a8557600080fd5b505af4158015610a99573d6000803e3d6000fd5b505050506040513d601f19601f82011682018060405250610abd9190810190613033565b67ffffffffffffffff169050610b5f8160046000610ad9611ac7565b73ffffffffffffffffffffffffffffffffffffffff1673ffffffffffffffffffffffffffffffffffffffff16815260200190815260200160002060008773ffffffffffffffffffffffffffffffffffffffff1673ffffffffffffffffffffffffffffffffffffffff16815260200190815260200160002054611b7490919063ffffffff16565b60046000610b6b611ac7565b73ffffffffffffffffffffffffffffffffffffffff1673ffffffffffffffffffffffffffffffffffffffff16815260200190815260200160002060008673ffffffffffffffffffffffffffffffffffffffff1673ffffffffffffffffffffffffffffffffffffffff168152602001908152602001600020819055508373ffffffffffffffffffffffffffffffffffffffff16610c05611ac7565b73ffffffffffffffffffffffffffffffffffffffff167f87e95ee7cdd8ce169873b1be6add255c13ec04051d493c3346c1e705a849e62083604051610c4a9190613cba565b60405180910390a350505050565b60026020528160005260406000208181548110610c7157fe5b9060005260206000209060040201600091509150508060000154908060010154908060020154908060030154905084565b610caa610e08565b610ce9576040517f08c379a0000000000000000000000000000000000000000000000000000000008152600401610ce090613bc9565b60405180910390fd5b600073ffffffffffffffffffffffffffffffffffffffff166000809054906101000a900473ffffffffffffffffffffffffffffffffffffffff1673ffffffffffffffffffffffffffffffffffffffff167f8be0079c531659141344cd1fd0a4f28419497f9722a3daafe3b4186f6b6457e060405160405180910390a360008060006101000a81548173ffffffffffffffffffffffffffffffffffffffff021916908373ffffffffffffffffffffffffffffffffffffffff160217905550565b600080610db483611acf565b90506003600082815260200190815260200160002060009054906101000a900460ff16915050919050565b60008060009054906101000a900473ffffffffffffffffffffffffffffffffffffffff16905090565b60008060009054906101000a900473ffffffffffffffffffffffffffffffffffffffff1673ffffffffffffffffffffffffffffffffffffffff16610e4a611ac7565b73ffffffffffffffffffffffffffffffffffffffff1614905090565b60018060008282540192505081905550600060015490506000610ea86305f5e100610e9a8686611bc990919063ffffffff16565b611c3990919063ffffffff16565b90506000610eb587611acf565b90506000610ec287611acf565b905073__LibValidator__________________________6320f096c78989610ee8611ac7565b898b426040518763ffffffff167c0100000000000000000000000000000000000000000000000000000000028152600401610f2896959493929190613c4b565b60206040518083038186803b158015610f4057600080fd5b505af4158015610f54573d6000803e3d6000fd5b505050506040513d601f19601f82011682018060405250610f789190810190612ea8565b610fb7576040517f08c379a0000000000000000000000000000000000000000000000000000000008152600401610fae90613ae9565b60405180910390fd5b610fc0826104db565b15611000576040517f08c379a0000000000000000000000000000000000000000000000000000000008152600401610ff790613c09565b60405180910390fd5b611009816104db565b15611049576040517f08c379a000000000000000000000000000000000000000000000000000000000815260040161104090613c09565b60405180910390fd5b6110568886856001611c83565b6110638786856000611c83565b61106f82898789612177565b61107b81888789612177565b866000015173ffffffffffffffffffffffffffffffffffffffff16886000015173ffffffffffffffffffffffffffffffffffffffff167ff626b901f3fa655ecbe675d14617d20a33bf86418ef46f472af1a2583dde7bf68a604001518b606001518a8a896040516110f09594939291906138ee565b60405180910390a3505050600154811461113f576040517f08c379a000000000000000000000000000000000000000000000000000000000815260040161113690613b89565b60405180910390fd5b5050505050565b600073__LibValidator__________________________63e7e652ed836040518263ffffffff167c010000000000000000000000000000000000000000000000000000000002815260040161119b9190613c29565b60206040518083038186803b1580156111b357600080fd5b505af41580156111c7573d6000803e3d6000fd5b505050506040513d601f19601f820116820180604052506111eb9190810190612ea8565b9050919050565b600080600061120084611acf565b9050606060026000838152602001908152602001600020805480602002602001604051908101604052809291908181526020016000905b82821015611291578382906000526020600020906004020160405180608001604052908160008201548152602001600182015481526020016002820154815260200160038201548152505081526020019060010190611237565b50505050905060008090505b815181101561133b576112e86002600085815260200190815260200160002082815481106112c757fe5b90600052602060002090600402016001015486611b7490919063ffffffff16565b945061132c60026000858152602001908152602001600020828154811061130b57fe5b90600052602060002090600402016002015485611b7490919063ffffffff16565b9350808060010191505061129d565b505050915091565b6000341161135057600080fd5b600073__LibUnitConverter______________________63432496066000346040518363ffffffff167c01000000000000000000000000000000000000000000000000000000000281526004016113a89291906138c5565b60206040518083038186803b1580156113c057600080fd5b505af41580156113d4573d6000803e3d6000fd5b505050506040513d601f19601f820116820180604052506113f89190810190613033565b67ffffffffffffffff16905061149a8160046000611414611ac7565b73ffffffffffffffffffffffffffffffffffffffff1673ffffffffffffffffffffffffffffffffffffffff16815260200190815260200160002060008073ffffffffffffffffffffffffffffffffffffffff1673ffffffffffffffffffffffffffffffffffffffff16815260200190815260200160002054611b7490919063ffffffff16565b600460006114a6611ac7565b73ffffffffffffffffffffffffffffffffffffffff1673ffffffffffffffffffffffffffffffffffffffff16815260200190815260200160002060008073ffffffffffffffffffffffffffffffffffffffff1673ffffffffffffffffffffffffffffffffffffffff16815260200190815260200160002081905550600073ffffffffffffffffffffffffffffffffffffffff16611541611ac7565b73ffffffffffffffffffffffffffffffffffffffff167f87e95ee7cdd8ce169873b1be6add255c13ec04051d493c3346c1e705a849e620836040516115869190613cba565b60405180910390a350565b60608083516040519080825280602002602001820160405280156115c45781602001602082028038833980820191505090505b50905060008090505b845181101561168b57600460008573ffffffffffffffffffffffffffffffffffffffff1673ffffffffffffffffffffffffffffffffffffffff168152602001908152602001600020600086838151811061162357fe5b602002602001015173ffffffffffffffffffffffffffffffffffffffff1673ffffffffffffffffffffffffffffffffffffffff1681526020019081526020016000205482828151811061167257fe5b60200260200101818152505080806001019150506115cd565b508091505092915050565b6000600460008373ffffffffffffffffffffffffffffffffffffffff1673ffffffffffffffffffffffffffffffffffffffff16815260200190815260200160002060008473ffffffffffffffffffffffffffffffffffffffff1673ffffffffffffffffffffffffffffffffffffffff16815260200190815260200160002054905092915050565b6060600061172a83611acf565b905060026000828152602001908152602001600020805480602002602001604051908101604052809291908181526020016000905b828210156117b957838290600052602060002090600402016040518060800160405290816000820154815260200160018201548152602001600282015481526020016003820154815250508152602001906001019061175f565b50505050915050919050565b6117cd610e08565b61180c576040517f08c379a000000000000000000000000000000000000000000000000000000000815260040161180390613bc9565b60405180910390fd5b6118158161242f565b50565b6001806000828254019250508190555060006001549050600073__LibUnitConverter______________________634324960685856040518363ffffffff167c0100000000000000000000000000000000000000000000000000000000028152600401611886929190613941565b60206040518083038186803b15801561189e57600080fd5b505af41580156118b2573d6000803e3d6000fd5b505050506040513d601f19601f820116820180604052506118d69190810190613033565b67ffffffffffffffff16905061197881600460006118f2611ac7565b73ffffffffffffffffffffffffffffffffffffffff1673ffffffffffffffffffffffffffffffffffffffff16815260200190815260200160002060008773ffffffffffffffffffffffffffffffffffffffff1673ffffffffffffffffffffffffffffffffffffffff1681526020019081526020016000205461255d90919063ffffffff16565b60046000611984611ac7565b73ffffffffffffffffffffffffffffffffffffffff1673ffffffffffffffffffffffffffffffffffffffff16815260200190815260200160002060008673ffffffffffffffffffffffffffffffffffffffff1673ffffffffffffffffffffffffffffffffffffffff16815260200190815260200160002081905550611a11611a0a611ac7565b85836125a7565b8373ffffffffffffffffffffffffffffffffffffffff16611a30611ac7565b73ffffffffffffffffffffffffffffffffffffffff167f29f9103583c97b319d05287c41c024d7219f7217e16ca5f4066a7c2019cd2fd883604051611a759190613cba565b60405180910390a3506001548114611ac2576040517f08c379a0000000000000000000000000000000000000000000000000000000008152600401611ab990613b89565b60405180910390fd5b505050565b600033905090565b600080604051602001611ae190613820565b60405160208183030381529060405280519060200120905080836000015184602001518560400151866060015187608001518860a001518960c001518a60e001518b61010001518c61012001518d610140015180519060200120604051602001611b569c9b9a999897969594939291906139c9565b60405160208183030381529060405280519060200120915050919050565b600080828401905083811015611bbf576040517f08c379a0000000000000000000000000000000000000000000000000000000008152600401611bb690613b49565b60405180910390fd5b8091505092915050565b600080831415611bdc5760009050611c33565b6000828402905082848281611bed57fe5b0414611c2e576040517f08c379a0000000000000000000000000000000000000000000000000000000008152600401611c2590613ba9565b60405180910390fd5b809150505b92915050565b6000611c7b83836040518060400160405280601a81526020017f536166654d6174683a206469766973696f6e206279207a65726f0000000000008152506129eb565b905092915050565b6000846000015190506000600460008373ffffffffffffffffffffffffffffffffffffffff1673ffffffffffffffffffffffffffffffffffffffff1681526020019081526020016000206000876040015173ffffffffffffffffffffffffffffffffffffffff1673ffffffffffffffffffffffffffffffffffffffff1681526020019081526020016000205490506000600460008473ffffffffffffffffffffffffffffffffffffffff1673ffffffffffffffffffffffffffffffffffffffff1681526020019081526020016000206000886060015173ffffffffffffffffffffffffffffffffffffffff1673ffffffffffffffffffffffffffffffffffffffff1681526020019081526020016000205490506000611dd98860a0015167ffffffffffffffff16611dcb898b60e0015167ffffffffffffffff16611bc990919063ffffffff16565b611c3990919063ffffffff16565b90508415611f1457611df4868361255d90919063ffffffff16565b600460008673ffffffffffffffffffffffffffffffffffffffff1673ffffffffffffffffffffffffffffffffffffffff16815260200190815260200160002060008a6060015173ffffffffffffffffffffffffffffffffffffffff1673ffffffffffffffffffffffffffffffffffffffff16815260200190815260200160002081905550611e8b8784611b7490919063ffffffff16565b600460008673ffffffffffffffffffffffffffffffffffffffff1673ffffffffffffffffffffffffffffffffffffffff16815260200190815260200160002060008a6040015173ffffffffffffffffffffffffffffffffffffffff1673ffffffffffffffffffffffffffffffffffffffff16815260200190815260200160002081905550612043565b611f278683611b7490919063ffffffff16565b600460008673ffffffffffffffffffffffffffffffffffffffff1673ffffffffffffffffffffffffffffffffffffffff16815260200190815260200160002060008a6060015173ffffffffffffffffffffffffffffffffffffffff1673ffffffffffffffffffffffffffffffffffffffff16815260200190815260200160002081905550611fbe878461255d90919063ffffffff16565b600460008673ffffffffffffffffffffffffffffffffffffffff1673ffffffffffffffffffffffffffffffffffffffff16815260200190815260200160002060008a6040015173ffffffffffffffffffffffffffffffffffffffff1673ffffffffffffffffffffffffffffffffffffffff168152602001908152602001600020819055505b6120d681600460008773ffffffffffffffffffffffffffffffffffffffff1673ffffffffffffffffffffffffffffffffffffffff16815260200190815260200160002060008b6080015173ffffffffffffffffffffffffffffffffffffffff1673ffffffffffffffffffffffffffffffffffffffff1681526020019081526020016000205461255d90919063ffffffff16565b600460008673ffffffffffffffffffffffffffffffffffffffff1673ffffffffffffffffffffffffffffffffffffffff16815260200190815260200160002060008a6080015173ffffffffffffffffffffffffffffffffffffffff1673ffffffffffffffffffffffffffffffffffffffff1681526020019081526020016000208190555061216d88602001518960800151836125a7565b5050505050505050565b60006121ba8460a0015167ffffffffffffffff166121ac858760e0015167ffffffffffffffff16611bc990919063ffffffff16565b611c3990919063ffffffff16565b90506000806121c8866111f2565b915091508560a0015167ffffffffffffffff166121ee8684611b7490919063ffffffff16565b111561222f576040517f08c379a000000000000000000000000000000000000000000000000000000000815260040161222690613ae9565b60405180910390fd5b8560e0015167ffffffffffffffff166122518483611b7490919063ffffffff16565b1115612292576040517f08c379a000000000000000000000000000000000000000000000000000000000815260040161228990613ae9565b60405180910390fd5b60008090508660a0015167ffffffffffffffff166122b98785611b7490919063ffffffff16565b1080156122dc57506001600260008a815260200190815260200160002080549050115b156122e657600190505b8660a0015167ffffffffffffffff166123088785611b7490919063ffffffff16565b141561231357600290505b80600360008a815260200190815260200160002060006101000a81548160ff0219169083600481111561234257fe5b0217905550600260008981526020019081526020016000206040518060800160405280878152602001888152602001868152602001428152509080600181540180825580915050906001820390600052602060002090600402016000909192909190915060008201518160000155602082015181600101556040820151816002015560608201518160030155505050866000015173ffffffffffffffffffffffffffffffffffffffff167f4677c8c1a033289f42cc2c1836dde0a2cb2d79670e9d76c450c8b1f8e5473a85898360405161241d929190613a83565b60405180910390a25050505050505050565b600073ffffffffffffffffffffffffffffffffffffffff168173ffffffffffffffffffffffffffffffffffffffff16141561249f576040517f08c379a000000000000000000000000000000000000000000000000000000000815260040161249690613b29565b60405180910390fd5b8073ffffffffffffffffffffffffffffffffffffffff166000809054906101000a900473ffffffffffffffffffffffffffffffffffffffff1673ffffffffffffffffffffffffffffffffffffffff167f8be0079c531659141344cd1fd0a4f28419497f9722a3daafe3b4186f6b6457e060405160405180910390a3806000806101000a81548173ffffffffffffffffffffffffffffffffffffffff021916908373ffffffffffffffffffffffffffffffffffffffff16021790555050565b600061259f83836040518060400160405280601e81526020017f536166654d6174683a207375627472616374696f6e206f766572666c6f770000815250612a4c565b905092915050565b600073__LibUnitConverter______________________632843968384846040518363ffffffff167c01000000000000000000000000000000000000000000000000000000000281526004016125fe929190613941565b60206040518083038186803b15801561261657600080fd5b505af415801561262a573d6000803e3d6000fd5b505050506040513d601f19601f8201168201806040525061264e919081019061300a565b9050600073ffffffffffffffffffffffffffffffffffffffff168373ffffffffffffffffffffffffffffffffffffffff1614156127865760003073ffffffffffffffffffffffffffffffffffffffff1631905060008573ffffffffffffffffffffffffffffffffffffffff16836040516126c790613835565b60006040518083038185875af1925050503d8060008114612704576040519150601f19603f3d011682016040523d82523d6000602084013e612709565b606091505b505090508061274d576040517f08c379a000000000000000000000000000000000000000000000000000000000815260040161274490613b69565b60405180910390fd5b612760838361255d90919063ffffffff16565b3073ffffffffffffffffffffffffffffffffffffffff16311461277f57fe5b50506129e5565b600083905060008173ffffffffffffffffffffffffffffffffffffffff166370a08231306040518263ffffffff167c01000000000000000000000000000000000000000000000000000000000281526004016127e2919061384a565b60206040518083038186803b1580156127fa57600080fd5b505afa15801561280e573d6000803e3d6000fd5b505050506040513d601f19601f82011682018060405250612832919081019061300a565b90508173ffffffffffffffffffffffffffffffffffffffff1663a9059cbb612858611ac7565b856040518363ffffffff167c010000000000000000000000000000000000000000000000000000000002815260040161289292919061389c565b602060405180830381600087803b1580156128ac57600080fd5b505af11580156128c0573d6000803e3d6000fd5b505050506040513d601f19601f820116820180604052506128e49190810190612ea8565b612923576040517f08c379a000000000000000000000000000000000000000000000000000000000815260040161291a90613b69565b60405180910390fd5b612936838261255d90919063ffffffff16565b8273ffffffffffffffffffffffffffffffffffffffff166370a08231306040518263ffffffff167c010000000000000000000000000000000000000000000000000000000002815260040161298b919061384a565b60206040518083038186803b1580156129a357600080fd5b505afa1580156129b7573d6000803e3d6000fd5b505050506040513d601f19601f820116820180604052506129db919081019061300a565b146129e257fe5b50505b50505050565b60008083118290612a32576040517f08c379a0000000000000000000000000000000000000000000000000000000008152600401612a299190613ac7565b60405180910390fd5b506000838581612a3e57fe5b049050809150509392505050565b6000838311158290612a94576040517f08c379a0000000000000000000000000000000000000000000000000000000008152600401612a8b9190613ac7565b60405180910390fd5b5060008385039050809150509392505050565b600081359050612ab681613fed565b92915050565b600082601f830112612acd57600080fd5b8135612ae0612adb82613d70565b613d43565b91508181835260208401935060208101905083856020840282011115612b0557600080fd5b60005b83811015612b355781612b1b8882612aa7565b845260208401935060208301925050600181019050612b08565b5050505092915050565b600081519050612b4e81614004565b92915050565b600081359050612b638161401b565b92915050565b600082601f830112612b7a57600080fd5b8135612b8d612b8882613d98565b613d43565b91508082526020830160208301858383011115612ba957600080fd5b612bb4838284613f8d565b50505092915050565b600082601f830112612bce57600080fd5b8135612be1612bdc82613dc4565b613d43565b91508082526020830160208301858383011115612bfd57600080fd5b612c08838284613f8d565b50505092915050565b60006101808284031215612c2457600080fd5b612c2f610180613d43565b90506000612c3f84828501612aa7565b6000830152506020612c5384828501612aa7565b6020830152506040612c6784828501612aa7565b6040830152506060612c7b84828501612aa7565b6060830152506080612c8f84828501612aa7565b60808301525060a0612ca384828501612d89565b60a08301525060c0612cb784828501612d89565b60c08301525060e0612ccb84828501612d89565b60e083015250610100612ce084828501612d89565b61010083015250610120612cf684828501612d89565b6101208301525061014082013567ffffffffffffffff811115612d1857600080fd5b612d2484828501612bbd565b6101408301525061016082013567ffffffffffffffff811115612d4657600080fd5b612d5284828501612b69565b6101608301525092915050565b600081359050612d6e81614032565b92915050565b600081519050612d8381614032565b92915050565b600081359050612d9881614049565b92915050565b600081519050612dad81614049565b92915050565b600060208284031215612dc557600080fd5b6000612dd384828501612aa7565b91505092915050565b60008060408385031215612def57600080fd5b6000612dfd85828601612aa7565b9250506020612e0e85828601612aa7565b9150509250929050565b60008060408385031215612e2b57600080fd5b6000612e3985828601612aa7565b9250506020612e4a85828601612d5f565b9150509250929050565b60008060408385031215612e6757600080fd5b600083013567ffffffffffffffff811115612e8157600080fd5b612e8d85828601612abc565b9250506020612e9e85828601612aa7565b9150509250929050565b600060208284031215612eba57600080fd5b6000612ec884828501612b3f565b91505092915050565b600060208284031215612ee357600080fd5b6000612ef184828501612b54565b91505092915050565b60008060408385031215612f0d57600080fd5b6000612f1b85828601612b54565b9250506020612f2c85828601612d5f565b9150509250929050565b600060208284031215612f4857600080fd5b600082013567ffffffffffffffff811115612f6257600080fd5b612f6e84828501612c11565b91505092915050565b60008060008060808587031215612f8d57600080fd5b600085013567ffffffffffffffff811115612fa757600080fd5b612fb387828801612c11565b945050602085013567ffffffffffffffff811115612fd057600080fd5b612fdc87828801612c11565b9350506040612fed87828801612d5f565b9250506060612ffe87828801612d5f565b91505092959194509250565b60006020828403121561301c57600080fd5b600061302a84828501612d74565b91505092915050565b60006020828403121561304557600080fd5b600061305384828501612d9e565b91505092915050565b60006130688383613780565b60808301905092915050565b600061308083836137d5565b60208301905092915050565b61309581613f45565b82525050565b6130a481613f45565b82525050565b6130b381613ecc565b82525050565b6130c281613ecc565b82525050565b6130d181613ecc565b82525050565b60006130e282613e10565b6130ec8185613e61565b93506130f783613df0565b8060005b8381101561312857815161310f888261305c565b975061311a83613e47565b9250506001810190506130fb565b5085935050505092915050565b600061314082613e1b565b61314a8185613e72565b935061315583613e00565b8060005b8381101561318657815161316d8882613074565b975061317883613e54565b925050600181019050613159565b5085935050505092915050565b61319c81613ede565b82525050565b6131ab81613eea565b82525050565b60006131bc82613e26565b6131c68185613e83565b93506131d6818560208601613f9c565b6131df81613fcf565b840191505092915050565b6131f381613f57565b82525050565b600061320482613e3c565b61320e8185613e9f565b935061321e818560208601613f9c565b61322781613fcf565b840191505092915050565b600061323d82613e31565b6132478185613eb0565b9350613257818560208601613f9c565b61326081613fcf565b840191505092915050565b6000613278600283613e9f565b91507f45330000000000000000000000000000000000000000000000000000000000006000830152602082019050919050565b60006132b8600283613e9f565b91507f45320000000000000000000000000000000000000000000000000000000000006000830152602082019050919050565b60006132f8602683613e9f565b91507f4f776e61626c653a206e6577206f776e657220697320746865207a65726f206160008301527f64647265737300000000000000000000000000000000000000000000000000006020830152604082019050919050565b600061335e601b83613e9f565b91507f536166654d6174683a206164646974696f6e206f766572666c6f7700000000006000830152602082019050919050565b600061339e600283613e9f565b91507f45360000000000000000000000000000000000000000000000000000000000006000830152602082019050919050565b60006133de600e83613e9f565b91507f7265656e7472616e742063616c6c0000000000000000000000000000000000006000830152602082019050919050565b600061341e602183613e9f565b91507f536166654d6174683a206d756c7469706c69636174696f6e206f766572666c6f60008301527f77000000000000000000000000000000000000000000000000000000000000006020830152604082019050919050565b6000613484602083613e9f565b91507f4f776e61626c653a2063616c6c6572206973206e6f7420746865206f776e65726000830152602082019050919050565b60006134c460c883613ec1565b91507f4f7264657228616464726573732073656e646572416464726573732c6164647260008301527f657373206d617463686572416464726573732c6164647265737320626173654160208301527f737365742c616464726573732071756f746541737365742c616464726573732060408301527f6d61746368657246656541737365742c75696e74363420616d6f756e742c756960608301527f6e7436342070726963652c75696e743634206d6174636865724665652c75696e60808301527f743634206e6f6e63652c75696e7436342065787069726174696f6e2c7374726960a08301527f6e6720736964652900000000000000000000000000000000000000000000000060c083015260c882019050919050565b60006135e8600983613e9f565b91507f4e6f74206f776e657200000000000000000000000000000000000000000000006000830152602082019050919050565b6000613628600083613e94565b9150600082019050919050565b6000613642600283613e9f565b91507f45340000000000000000000000000000000000000000000000000000000000006000830152602082019050919050565b60006101808301600083015161368e60008601826130c8565b5060208301516136a160208601826130c8565b5060408301516136b460408601826130c8565b5060608301516136c760608601826130c8565b5060808301516136da60808601826130c8565b5060a08301516136ed60a0860182613811565b5060c083015161370060c0860182613811565b5060e083015161371360e0860182613811565b50610100830151613728610100860182613811565b5061012083015161373d610120860182613811565b506101408301518482036101408601526137578282613232565b91505061016083015184820361016086015261377382826131b1565b9150508091505092915050565b60808201600082015161379660008501826137d5565b5060208201516137a960208501826137d5565b5060408201516137bc60408501826137d5565b5060608201516137cf60608501826137d5565b50505050565b6137de81613f27565b82525050565b6137ed81613f27565b82525050565b6137fc81613f27565b82525050565b61380b81613f31565b82525050565b61381a81613f31565b82525050565b600061382b826134b7565b9150819050919050565b60006138408261361b565b9150819050919050565b600060208201905061385f60008301846130aa565b92915050565b600060608201905061387a600083018661308c565b61388760208301856130aa565b61389460408301846137e4565b949350505050565b60006040820190506138b1600083018561308c565b6138be60208301846137e4565b9392505050565b60006040820190506138da600083018561309b565b6138e760208301846137f3565b9392505050565b600060a08201905061390360008301886130aa565b61391060208301876130aa565b61391d60408301866137e4565b61392a60608301856137e4565b61393760808301846137e4565b9695505050505050565b600060408201905061395660008301856130b9565b61396360208301846137f3565b9392505050565b6000602082019050818103600083015261398481846130d7565b905092915050565b600060208201905081810360008301526139a68184613135565b905092915050565b60006020820190506139c36000830184613193565b92915050565b6000610180820190506139df600083018f6131a2565b6139ec602083018e6130aa565b6139f9604083018d6130aa565b613a06606083018c6130aa565b613a13608083018b6130aa565b613a2060a083018a6130aa565b613a2d60c0830189613802565b613a3a60e0830188613802565b613a48610100830187613802565b613a56610120830186613802565b613a64610140830185613802565b613a726101608301846131a2565b9d9c50505050505050505050505050565b6000604082019050613a9860008301856131a2565b613aa560208301846131ea565b9392505050565b6000602082019050613ac160008301846131ea565b92915050565b60006020820190508181036000830152613ae181846131f9565b905092915050565b60006020820190508181036000830152613b028161326b565b9050919050565b60006020820190508181036000830152613b22816132ab565b9050919050565b60006020820190508181036000830152613b42816132eb565b9050919050565b60006020820190508181036000830152613b6281613351565b9050919050565b60006020820190508181036000830152613b8281613391565b9050919050565b60006020820190508181036000830152613ba2816133d1565b9050919050565b60006020820190508181036000830152613bc281613411565b9050919050565b60006020820190508181036000830152613be281613477565b9050919050565b60006020820190508181036000830152613c02816135db565b9050919050565b60006020820190508181036000830152613c2281613635565b9050919050565b60006020820190508181036000830152613c438184613675565b905092915050565b600060c0820190508181036000830152613c658189613675565b90508181036020830152613c798188613675565b9050613c88604083018761309b565b613c9560608301866137f3565b613ca260808301856137f3565b613caf60a08301846137f3565b979650505050505050565b6000602082019050613ccf60008301846137e4565b92915050565b6000604082019050613cea60008301856137e4565b613cf760208301846137e4565b9392505050565b6000608082019050613d1360008301876137e4565b613d2060208301866137e4565b613d2d60408301856137e4565b613d3a60608301846137e4565b95945050505050565b6000604051905081810181811067ffffffffffffffff82111715613d6657600080fd5b8060405250919050565b600067ffffffffffffffff821115613d8757600080fd5b602082029050602081019050919050565b600067ffffffffffffffff821115613daf57600080fd5b601f19601f8301169050602081019050919050565b600067ffffffffffffffff821115613ddb57600080fd5b601f19601f8301169050602081019050919050565b6000819050602082019050919050565b6000819050602082019050919050565b600081519050919050565b600081519050919050565b600081519050919050565b600081519050919050565b600081519050919050565b6000602082019050919050565b6000602082019050919050565b600082825260208201905092915050565b600082825260208201905092915050565b600082825260208201905092915050565b600081905092915050565b600082825260208201905092915050565b600082825260208201905092915050565b600081905092915050565b6000613ed782613f07565b9050919050565b60008115159050919050565b6000819050919050565b6000819050613f0282613fe0565b919050565b600073ffffffffffffffffffffffffffffffffffffffff82169050919050565b6000819050919050565b600067ffffffffffffffff82169050919050565b6000613f5082613f69565b9050919050565b6000613f6282613ef4565b9050919050565b6000613f7482613f7b565b9050919050565b6000613f8682613f07565b9050919050565b82818337600083830152505050565b60005b83811015613fba578082015181840152602081019050613f9f565b83811115613fc9576000848401525b50505050565b6000601f19601f8301169050919050565b60058110613fea57fe5b50565b613ff681613ecc565b811461400157600080fd5b50565b61400d81613ede565b811461401857600080fd5b50565b61402481613eea565b811461402f57600080fd5b50565b61403b81613f27565b811461404657600080fd5b50565b61405281613f31565b811461405d57600080fd5b5056fea365627a7a723058208af5f51c25eaa59434982fc9281c1c1af516010dd578e92f0f75d5188f34ebca6c6578706572696d656e74616cf564736f6c634300050a0040",
  "source": "pragma solidity 0.5.10;\npragma experimental ABIEncoderV2;\n\nimport \"@openzeppelin/contracts/math/SafeMath.sol\";\nimport \"@openzeppelin/contracts/ownership/Ownable.sol\";\nimport \"@openzeppelin/contracts/token/ERC20/IERC20.sol\";\nimport \"./Utils.sol\";\nimport \"./libs/LibValidator.sol\";\n\n/**\n * @title Exchange\n * @dev Exchange contract for the Orion Protocol\n * @author @wafflemakr\n */\ncontract Exchange is Ownable, Utils {\n    using SafeMath for uint64;\n    using LibValidator for LibValidator.Order;\n\n    // EVENTS\n    event NewAssetDeposit(\n        address indexed user,\n        address indexed assetAddress,\n        uint256 amount\n    );\n    event NewAssetWithdrawl(\n        address indexed user,\n        address indexed assetAddress,\n        uint256 amount\n    );\n    event NewTrade(\n        address indexed buyer,\n        address indexed seller,\n        address baseAsset,\n        address quoteAsset,\n        uint256 filledPrice,\n        uint256 filledAmount,\n        uint256 amountQuote\n    );\n    event OrderUpdate(\n        bytes32 orderHash,\n        address indexed user,\n        Status orderStatus\n    );\n\n    // GLOBAL VARIABLES\n\n    enum Status {NEW, PARTIALLY_FILLED, FILLED, PARTIALLY_CANCELLED, CANCELLED}\n\n    struct Trade {\n        uint256 filledPrice;\n        uint256 filledAmount;\n        uint256 feePaid;\n        uint256 timestamp;\n    }\n\n    // Get trades by orderHash\n    mapping(bytes32 => Trade[]) public trades;\n\n    // Get trades by orderHash\n    mapping(bytes32 => Status) public orderStatus;\n\n    // Get user balance by address and asset address\n    mapping(address => mapping(address => uint256)) private assetBalances;\n\n    // MAIN FUNCTIONS\n\n    /**\n     * @dev Deposit ERC20 tokens to the exchange contract\n     * @dev User needs to approve token contract first\n     * @param amount asset amount to deposit in its base unit\n     */\n    function depositAsset(address assetAddress, uint256 amount) external {\n        IERC20 asset = IERC20(assetAddress);\n        require(asset.transferFrom(_msgSender(), address(this), amount), \"E6\");\n\n        uint256 amountDecimal = LibUnitConverter.baseUnitToDecimal(\n            assetAddress,\n            amount\n        );\n\n        assetBalances[_msgSender()][assetAddress] = assetBalances[_msgSender()][assetAddress]\n            .add(amountDecimal);\n\n        emit NewAssetDeposit(_msgSender(), assetAddress, amountDecimal);\n    }\n\n    /**\n     * @notice Deposit ETH to the exchange contract\n     * @dev deposit event will be emitted with the amount in decimal format (10^8)\n     * @dev balance will be stored in decimal format too\n     */\n    function deposit() external payable {\n        require(msg.value > 0);\n\n        uint256 amountDecimal = LibUnitConverter.baseUnitToDecimal(\n            address(0),\n            msg.value\n        );\n\n        assetBalances[_msgSender()][address(\n            0\n        )] = assetBalances[_msgSender()][address(0)].add(amountDecimal);\n\n        emit NewAssetDeposit(_msgSender(), address(0), amountDecimal);\n    }\n\n    /**\n     * @dev Withdrawal of remaining funds from the contract back to the address\n     * @param assetAddress address of the asset to withdraw\n     * @param amount asset amount to withdraw in its base unit\n     */\n    function withdraw(address assetAddress, uint256 amount)\n        external\n        nonReentrant\n    {\n        uint256 amountDecimal = LibUnitConverter.baseUnitToDecimal(\n            assetAddress,\n            amount\n        );\n\n        assetBalances[_msgSender()][assetAddress] = assetBalances[_msgSender()][assetAddress]\n            .sub(amountDecimal);\n\n        safeTransfer(_msgSender(), assetAddress, amountDecimal);\n\n        emit NewAssetWithdrawl(_msgSender(), assetAddress, amountDecimal);\n    }\n\n    /**\n     * @dev Get asset balance for a specific address\n     * @param assetAddress address of the asset to query\n     * @param user user address to query\n     */\n    function getBalance(address assetAddress, address user)\n        public\n        view\n        returns (uint256 assetBalance)\n    {\n        return assetBalances[user][assetAddress];\n    }\n\n    /**\n     * @dev Batch query of asset balances for a user\n     * @param assetsAddresses array of addresses of teh assets to query\n     * @param user user address to query\n     */\n    function getBalances(address[] memory assetsAddresses, address user)\n        public\n        view\n        returns (uint256[] memory)\n    {\n        uint256[] memory balances = new uint256[](assetsAddresses.length);\n        for (uint256 i = 0; i < assetsAddresses.length; i++) {\n            balances[i] = assetBalances[user][assetsAddresses[i]];\n        }\n        return balances;\n    }\n\n    /**\n     * @dev get trades for a specific order\n     */\n    function getOrderTrades(LibValidator.Order memory order)\n        public\n        view\n        returns (Trade[] memory)\n    {\n        bytes32 orderHash = order.getTypeValueHash();\n        return trades[orderHash];\n    }\n\n    /**\n     * @dev get trades for a specific order\n     */\n    function getFilledAmounts(LibValidator.Order memory order)\n        public\n        view\n        returns (uint256 totalFilled, uint256 totalFeesPaid)\n    {\n        bytes32 orderHash = order.getTypeValueHash();\n        Trade[] memory orderTrades = trades[orderHash];\n\n        for (uint256 i = 0; i < orderTrades.length; i++) {\n            totalFilled = totalFilled.add(trades[orderHash][i].filledAmount);\n            totalFeesPaid = totalFeesPaid.add(trades[orderHash][i].feePaid);\n        }\n    }\n\n    /**\n     * @dev get trades for a specific order\n     */\n    function getOrderStatus(LibValidator.Order memory order)\n        public\n        view\n        returns (Status status)\n    {\n        bytes32 orderHash = order.getTypeValueHash();\n        return orderStatus[orderHash];\n    }\n\n    /**\n     * @notice Settle a trade with two orders, filled price and amount\n     * @dev 2 orders are submitted, it is necessary to match them:\n        check conditions in orders for compliance filledPrice, filledAmountbuyOrderHash\n        change balances on the contract respectively with buyer, seller, matcbuyOrderHashher\n     * @param buyOrder structure of buy side orderbuyOrderHash\n     * @param sellOrder structure of sell side order\n     * @param filledPrice price at which the order was settled\n     * @param filledAmount amount settled between orders\n     */\n    function fillOrders(\n        LibValidator.Order memory buyOrder,\n        LibValidator.Order memory sellOrder,\n        uint256 filledPrice,\n        uint256 filledAmount\n    ) public nonReentrant {\n        // --- VARIABLES --- //\n\n        // Amount of quote asset\n        uint256 amountQuote = filledAmount.mul(filledPrice).div(10**8);\n\n        // Order Hashes\n        bytes32 buyOrderHash = buyOrder.getTypeValueHash();\n        bytes32 sellOrderHash = sellOrder.getTypeValueHash();\n\n        // --- VALIDATIONS --- //\n\n        // Validate signatures using eth typed sign V1\n        require(\n            LibValidator.checkOrdersInfo(\n                buyOrder,\n                sellOrder,\n                _msgSender(),\n                filledAmount,\n                filledPrice,\n                now\n            ),\n            \"E3\"\n        );\n\n        // Check if orders were not cancelled\n        require(!isOrderCancelled(buyOrderHash), \"E4\");\n        require(!isOrderCancelled(sellOrderHash), \"E4\");\n\n        // --- UPDATES --- //\n\n        // Update User's balances\n        updateOrderBalance(buyOrder, filledAmount, amountQuote, true);\n        updateOrderBalance(sellOrder, filledAmount, amountQuote, false);\n\n        // Update trades\n        updateTrade(buyOrderHash, buyOrder, filledAmount, filledPrice);\n        updateTrade(sellOrderHash, sellOrder, filledAmount, filledPrice);\n\n        emit NewTrade(\n            buyOrder.senderAddress,\n            sellOrder.senderAddress,\n            buyOrder.baseAsset,\n            buyOrder.quoteAsset,\n            filledPrice,\n            filledAmount,\n            amountQuote\n        );\n    }\n\n    /**\n     * @notice check if order was cancelled\n     */\n    function isOrderCancelled(bytes32 orderHash) public view returns (bool) {\n        // Check if order was not cancelled\n        if (\n            orderStatus[orderHash] == Status.CANCELLED ||\n            orderStatus[orderHash] == Status.PARTIALLY_CANCELLED\n        ) return true;\n\n        return false;\n    }\n\n    function validateOrder(LibValidator.Order memory order)\n        public\n        pure\n        returns (bool isValid)\n    {\n        isValid = LibValidator.validateV3(order);\n    }\n\n    /**\n     *  @notice update user balances and send matcher fee\n     *  @param isBuyer boolean, indicating true if the update is for buyer, false for seller\n     */\n    function updateOrderBalance(\n        LibValidator.Order memory order,\n        uint256 filledAmount,\n        uint256 amountQuote,\n        bool isBuyer\n    ) internal {\n        address user = order.senderAddress;\n        uint256 baseBalance = assetBalances[user][order.baseAsset];\n        uint256 quoteBalance = assetBalances[user][order.quoteAsset];\n        uint256 matcherFee = order.matcherFee.mul(filledAmount).div(\n            order.amount\n        );\n\n        if (isBuyer) {\n            // Update Buyer's Balance (- quoteAsset + baseAsset  )\n            assetBalances[user][order.quoteAsset] = quoteBalance.sub(\n                amountQuote\n            );\n            assetBalances[user][order.baseAsset] = baseBalance.add(\n                filledAmount\n            );\n        } else {\n            // Update Seller's Balance  (+ quoteAsset - baseAsset   )\n            assetBalances[user][order.quoteAsset] = quoteBalance.add(\n                amountQuote\n            );\n            assetBalances[user][order.baseAsset] = baseBalance.sub(\n                filledAmount\n            );\n        }\n\n        // User pay for fees\n        assetBalances[user][order.matcherFeeAsset] = assetBalances[user][order\n            .matcherFeeAsset]\n            .sub(matcherFee);\n        safeTransfer(order.matcherAddress, order.matcherFeeAsset, matcherFee);\n    }\n\n    /**\n     *  @notice Store trade and update order\n     */\n    function updateTrade(\n        bytes32 orderHash,\n        LibValidator.Order memory order,\n        uint256 filledAmount,\n        uint256 filledPrice\n    ) internal {\n        uint256 matcherFee = order.matcherFee.mul(filledAmount).div(\n            order.amount\n        );\n\n        (uint256 totalFilled, uint256 totalFeesPaid) = getFilledAmounts(order);\n\n        require(totalFilled.add(filledAmount) <= order.amount, \"E3\");\n        require(totalFeesPaid.add(matcherFee) <= order.matcherFee, \"E3\");\n\n        Status status = Status.NEW;\n\n        if (\n            totalFilled.add(filledAmount) < order.amount &&\n            trades[orderHash].length > 1\n        ) status = Status.PARTIALLY_FILLED;\n        if (totalFilled.add(filledAmount) == order.amount)\n            status = Status.FILLED;\n\n        //Update order status in storage\n        orderStatus[orderHash] = status;\n\n        // Store Trade\n        trades[orderHash].push(\n            Trade(filledPrice, filledAmount, matcherFee, now)\n        );\n\n        emit OrderUpdate(orderHash, order.senderAddress, status);\n    }\n\n    /**\n     * @notice users can cancel an order\n     * @dev write an orderHash in the contract so that such an order cannot be filled (executed)\n     */\n    function cancelOrder(LibValidator.Order memory order) public nonReentrant {\n        require(order.validateV3(), \"E2\");\n        require(_msgSender() == order.senderAddress, \"Not owner\");\n\n        bytes32 orderHash = order.getTypeValueHash();\n\n        require(!isOrderCancelled(orderHash), \"E4\");\n\n        (\n            uint256 totalFilled, /*uint totalFeesPaid*/\n\n        ) = getFilledAmounts(order);\n\n        if (totalFilled > 0)\n            orderStatus[orderHash] = Status.PARTIALLY_CANCELLED;\n        else orderStatus[orderHash] = Status.CANCELLED;\n\n        emit OrderUpdate(orderHash, _msgSender(), orderStatus[orderHash]);\n\n        assert(\n            orderStatus[orderHash] == Status.PARTIALLY_CANCELLED ||\n                orderStatus[orderHash] == Status.CANCELLED\n        );\n    }\n\n    /**\n     *  @dev  revert on fallback function\n     */\n    function() external {\n        revert(\"E6\");\n    }\n\n    /* Error Codes\n\n        E1: Insufficient Balance,\n        E2: Invalid Signature,\n        E3: Invalid Order Info,\n        E4: Order cancelled or expired,\n        E5: Contract not active,\n        E6: Transfer error\n    */\n}\n",
  "sourcePath": "/home/usuario/Desktop/PROYECTOS/orion-exchange/contracts/Exchange.sol",
  "compiler": {
    "name": "solc",
    "version": "0.5.10+commit.5a6ea5b1.Emscripten.clang"
  },
  "schemaVersion": "3.0.2",
  "updatedAt": "2020-06-26T19:36:39.428Z",
  "devdoc": {
    "author": "@wafflemakr",
    "details": "Exchange contract for the Orion Protocol",
    "methods": {
      "cancelOrder((address,address,address,address,address,uint64,uint64,uint64,uint64,uint64,string,bytes))": {
        "details": "write an orderHash in the contract so that such an order cannot be filled (executed)"
      },
      "deposit()": {
        "details": "deposit event will be emitted with the amount in decimal format (10^8)balance will be stored in decimal format too"
      },
      "depositAsset(address,uint256)": {
        "details": "Deposit ERC20 tokens to the exchange contractUser needs to approve token contract first",
        "params": {
          "amount": "asset amount to deposit in its base unit"
        }
      },
      "fillOrders((address,address,address,address,address,uint64,uint64,uint64,uint64,uint64,string,bytes),(address,address,address,address,address,uint64,uint64,uint64,uint64,uint64,string,bytes),uint256,uint256)": {
        "details": "2 orders are submitted, it is necessary to match them: check conditions in orders for compliance filledPrice, filledAmountbuyOrderHash change balances on the contract respectively with buyer, seller, matcbuyOrderHashher",
        "params": {
          "buyOrder": "structure of buy side orderbuyOrderHash",
          "filledAmount": "amount settled between orders",
          "filledPrice": "price at which the order was settled",
          "sellOrder": "structure of sell side order"
        }
      },
      "getBalance(address,address)": {
        "details": "Get asset balance for a specific address",
        "params": {
          "assetAddress": "address of the asset to query",
          "user": "user address to query"
        }
      },
      "getBalances(address[],address)": {
        "details": "Batch query of asset balances for a user",
        "params": {
          "assetsAddresses": "array of addresses of teh assets to query",
          "user": "user address to query"
        }
      },
      "getFilledAmounts((address,address,address,address,address,uint64,uint64,uint64,uint64,uint64,string,bytes))": {
        "details": "get trades for a specific order"
      },
      "getOrderStatus((address,address,address,address,address,uint64,uint64,uint64,uint64,uint64,string,bytes))": {
        "details": "get trades for a specific order"
      },
      "getOrderTrades((address,address,address,address,address,uint64,uint64,uint64,uint64,uint64,string,bytes))": {
        "details": "get trades for a specific order"
      },
      "isOwner()": {
        "details": "Returns true if the caller is the current owner."
      },
      "owner()": {
        "details": "Returns the address of the current owner."
      },
      "renounceOwnership()": {
        "details": "Leaves the contract without owner. It will not be possible to call `onlyOwner` functions anymore. Can only be called by the current owner.     * NOTE: Renouncing ownership will leave the contract without an owner, thereby removing any functionality that is only available to the owner."
      },
      "transferOwnership(address)": {
        "details": "Transfers ownership of the contract to a new account (`newOwner`). Can only be called by the current owner."
      },
      "withdraw(address,uint256)": {
        "details": "Withdrawal of remaining funds from the contract back to the address",
        "params": {
          "amount": "asset amount to withdraw in its base unit",
          "assetAddress": "address of the asset to withdraw"
        }
      }
    },
    "title": "Exchange"
  },
  "userdoc": {
    "methods": {
      "cancelOrder((address,address,address,address,address,uint64,uint64,uint64,uint64,uint64,string,bytes))": {
        "notice": "users can cancel an order"
      },
      "deposit()": {
        "notice": "Deposit ETH to the exchange contract"
      },
      "fillOrders((address,address,address,address,address,uint64,uint64,uint64,uint64,uint64,string,bytes),(address,address,address,address,address,uint64,uint64,uint64,uint64,uint64,string,bytes),uint256,uint256)": {
        "notice": "Settle a trade with two orders, filled price and amount"
      },
      "isOrderCancelled(bytes32)": {
        "notice": "check if order was cancelled"
      }
    }
  }
}