{
  "contractName": "Exchange",
  "abi": [
    {
      "constant": true,
      "inputs": [],
      "name": "totalOrders",
      "outputs": [
        {
          "name": "",
          "type": "uint256"
        }
      ],
      "payable": false,
      "stateMutability": "view",
      "type": "function",
      "signature": "0x1d834409"
    },
    {
      "constant": true,
      "inputs": [
        {
          "name": "assetAddress",
          "type": "address"
        },
        {
          "name": "amount",
          "type": "uint256"
        }
      ],
      "name": "baseUnitToDecimal",
      "outputs": [
        {
          "name": "",
          "type": "uint64"
        }
      ],
      "payable": false,
      "stateMutability": "view",
      "type": "function",
      "signature": "0x43249606"
    },
    {
      "constant": true,
      "inputs": [
        {
          "name": "",
          "type": "bytes32"
        },
        {
          "name": "",
          "type": "uint256"
        }
      ],
      "name": "trades",
      "outputs": [
        {
          "name": "orderHash",
          "type": "bytes32"
        },
        {
          "name": "orderStatus",
          "type": "uint8"
        },
        {
          "name": "filledAmount",
          "type": "uint256"
        }
      ],
      "payable": false,
      "stateMutability": "view",
      "type": "function",
      "signature": "0x50ef1f5d"
    },
    {
      "constant": false,
      "inputs": [],
      "name": "renounceOwnership",
      "outputs": [],
      "payable": false,
      "stateMutability": "nonpayable",
      "type": "function",
      "signature": "0x715018a6"
    },
    {
      "constant": true,
      "inputs": [],
      "name": "owner",
      "outputs": [
        {
          "name": "",
          "type": "address"
        }
      ],
      "payable": false,
      "stateMutability": "view",
      "type": "function",
      "signature": "0x8da5cb5b"
    },
    {
      "constant": true,
      "inputs": [
        {
          "name": "",
          "type": "bytes32"
        }
      ],
      "name": "cancelledOrders",
      "outputs": [
        {
          "name": "",
          "type": "bool"
        }
      ],
      "payable": false,
      "stateMutability": "view",
      "type": "function",
      "signature": "0x8f13f48e"
    },
    {
      "constant": true,
      "inputs": [],
      "name": "isOwner",
      "outputs": [
        {
          "name": "",
          "type": "bool"
        }
      ],
      "payable": false,
      "stateMutability": "view",
      "type": "function",
      "signature": "0x8f32d59b"
    },
    {
      "constant": true,
      "inputs": [
        {
          "name": "",
          "type": "address"
        },
        {
          "name": "",
          "type": "address"
        }
      ],
      "name": "assetBalances",
      "outputs": [
        {
          "name": "",
          "type": "uint256"
        }
      ],
      "payable": false,
      "stateMutability": "view",
      "type": "function",
      "signature": "0xbdfce5bf"
    },
    {
      "constant": true,
      "inputs": [
        {
          "name": "assetAddress",
          "type": "address"
        },
        {
          "name": "_amount",
          "type": "uint64"
        }
      ],
      "name": "decimalToBaseUnit",
      "outputs": [
        {
          "name": "",
          "type": "uint256"
        }
      ],
      "payable": false,
      "stateMutability": "view",
      "type": "function",
      "signature": "0xc7bc8b20"
    },
    {
      "constant": true,
      "inputs": [],
      "name": "orion",
      "outputs": [
        {
          "name": "",
          "type": "address"
        }
      ],
      "payable": false,
      "stateMutability": "view",
      "type": "function",
      "signature": "0xcdfd441e"
    },
    {
      "constant": true,
      "inputs": [],
      "name": "totalTrades",
      "outputs": [
        {
          "name": "",
          "type": "uint256"
        }
      ],
      "payable": false,
      "stateMutability": "view",
      "type": "function",
      "signature": "0xe275c997"
    },
    {
      "constant": false,
      "inputs": [
        {
          "name": "newOwner",
          "type": "address"
        }
      ],
      "name": "transferOwnership",
      "outputs": [],
      "payable": false,
      "stateMutability": "nonpayable",
      "type": "function",
      "signature": "0xf2fde38b"
    },
    {
      "anonymous": false,
      "inputs": [
        {
          "indexed": true,
          "name": "user",
          "type": "address"
        },
        {
          "indexed": true,
          "name": "assetAddress",
          "type": "address"
        },
        {
          "indexed": false,
          "name": "amount",
          "type": "uint256"
        }
      ],
      "name": "NewAssetDeposit",
      "type": "event",
      "signature": "0x87e95ee7cdd8ce169873b1be6add255c13ec04051d493c3346c1e705a849e620"
    },
    {
      "anonymous": false,
      "inputs": [
        {
          "indexed": true,
          "name": "user",
          "type": "address"
        },
        {
          "indexed": true,
          "name": "assetAddress",
          "type": "address"
        },
        {
          "indexed": false,
          "name": "amount",
          "type": "uint256"
        }
      ],
      "name": "NewAssetWithdrawl",
      "type": "event",
      "signature": "0x29f9103583c97b319d05287c41c024d7219f7217e16ca5f4066a7c2019cd2fd8"
    },
    {
      "anonymous": false,
      "inputs": [
        {
          "indexed": true,
          "name": "buyer",
          "type": "address"
        },
        {
          "indexed": true,
          "name": "seller",
          "type": "address"
        },
        {
          "indexed": false,
          "name": "baseAsset",
          "type": "address"
        },
        {
          "indexed": false,
          "name": "quoteAsset",
          "type": "address"
        },
        {
          "indexed": false,
          "name": "filledPrice",
          "type": "uint256"
        },
        {
          "indexed": false,
          "name": "filledAmount",
          "type": "uint256"
        },
        {
          "indexed": false,
          "name": "amountQuote",
          "type": "uint256"
        }
      ],
      "name": "NewTrade",
      "type": "event",
      "signature": "0xf626b901f3fa655ecbe675d14617d20a33bf86418ef46f472af1a2583dde7bf6"
    },
    {
      "anonymous": false,
      "inputs": [
        {
          "indexed": true,
          "name": "orderHash",
          "type": "bytes32"
        }
      ],
      "name": "OrderCancelled",
      "type": "event",
      "signature": "0x5152abf959f6564662358c2e52b702259b78bac5ee7842a0f01937e670efcc7d"
    },
    {
      "anonymous": false,
      "inputs": [
        {
          "indexed": true,
          "name": "previousOwner",
          "type": "address"
        },
        {
          "indexed": true,
          "name": "newOwner",
          "type": "address"
        }
      ],
      "name": "OwnershipTransferred",
      "type": "event",
      "signature": "0x8be0079c531659141344cd1fd0a4f28419497f9722a3daafe3b4186f6b6457e0"
    },
    {
      "constant": false,
      "inputs": [
        {
          "name": "assetAddress",
          "type": "address"
        },
        {
          "name": "amount",
          "type": "uint256"
        }
      ],
      "name": "depositAsset",
      "outputs": [],
      "payable": true,
      "stateMutability": "payable",
      "type": "function",
      "signature": "0x46a5d043"
    },
    {
      "constant": false,
      "inputs": [],
      "name": "depositWan",
      "outputs": [],
      "payable": true,
      "stateMutability": "payable",
      "type": "function",
      "signature": "0x76a207b8"
    },
    {
      "constant": false,
      "inputs": [
        {
          "name": "assetAddress",
          "type": "address"
        },
        {
          "name": "amount",
          "type": "uint256"
        }
      ],
      "name": "withdraw",
      "outputs": [],
      "payable": false,
      "stateMutability": "nonpayable",
      "type": "function",
      "signature": "0xf3fef3a3"
    },
    {
      "constant": true,
      "inputs": [
        {
          "name": "assetAddress",
          "type": "address"
        },
        {
          "name": "user",
          "type": "address"
        }
      ],
      "name": "getBalance",
      "outputs": [
        {
          "name": "assetBalance",
          "type": "uint256"
        }
      ],
      "payable": false,
      "stateMutability": "view",
      "type": "function",
      "signature": "0xd4fac45d"
    },
    {
      "constant": true,
      "inputs": [
        {
          "name": "assetsAddresses",
          "type": "address[]"
        },
        {
          "name": "user",
          "type": "address"
        }
      ],
      "name": "getBalances",
      "outputs": [
        {
          "name": "",
          "type": "uint256[]"
        }
      ],
      "payable": false,
      "stateMutability": "view",
      "type": "function",
      "signature": "0xd1c07028"
    },
    {
      "constant": false,
      "inputs": [
        {
          "components": [
            {
              "name": "senderAddress",
              "type": "address"
            },
            {
              "name": "matcherAddress",
              "type": "address"
            },
            {
              "name": "baseAsset",
              "type": "address"
            },
            {
              "name": "quoteAsset",
              "type": "address"
            },
            {
              "name": "matcherFeeAsset",
              "type": "address"
            },
            {
              "name": "amount",
              "type": "uint64"
            },
            {
              "name": "price",
              "type": "uint64"
            },
            {
              "name": "matcherFee",
              "type": "uint64"
            },
            {
              "name": "nonce",
              "type": "uint64"
            },
            {
              "name": "expiration",
              "type": "uint64"
            },
            {
              "name": "side",
              "type": "string"
            }
          ],
          "name": "buyOrder",
          "type": "tuple"
        },
        {
          "components": [
            {
              "name": "senderAddress",
              "type": "address"
            },
            {
              "name": "matcherAddress",
              "type": "address"
            },
            {
              "name": "baseAsset",
              "type": "address"
            },
            {
              "name": "quoteAsset",
              "type": "address"
            },
            {
              "name": "matcherFeeAsset",
              "type": "address"
            },
            {
              "name": "amount",
              "type": "uint64"
            },
            {
              "name": "price",
              "type": "uint64"
            },
            {
              "name": "matcherFee",
              "type": "uint64"
            },
            {
              "name": "nonce",
              "type": "uint64"
            },
            {
              "name": "expiration",
              "type": "uint64"
            },
            {
              "name": "side",
              "type": "string"
            }
          ],
          "name": "sellOrder",
          "type": "tuple"
        },
        {
          "components": [
            {
              "name": "r",
              "type": "bytes32"
            },
            {
              "name": "s",
              "type": "bytes32"
            },
            {
              "name": "v",
              "type": "uint8"
            }
          ],
          "name": "buySig",
          "type": "tuple"
        },
        {
          "components": [
            {
              "name": "r",
              "type": "bytes32"
            },
            {
              "name": "s",
              "type": "bytes32"
            },
            {
              "name": "v",
              "type": "uint8"
            }
          ],
          "name": "sellSig",
          "type": "tuple"
        },
        {
          "name": "filledPrice",
          "type": "uint256"
        },
        {
          "name": "filledAmount",
          "type": "uint256"
        }
      ],
      "name": "fillOrders",
      "outputs": [],
      "payable": false,
      "stateMutability": "nonpayable",
      "type": "function",
      "signature": "0x98020631"
    },
    {
      "constant": false,
      "inputs": [
        {
          "components": [
            {
              "name": "senderAddress",
              "type": "address"
            },
            {
              "name": "matcherAddress",
              "type": "address"
            },
            {
              "name": "baseAsset",
              "type": "address"
            },
            {
              "name": "quoteAsset",
              "type": "address"
            },
            {
              "name": "matcherFeeAsset",
              "type": "address"
            },
            {
              "name": "amount",
              "type": "uint64"
            },
            {
              "name": "price",
              "type": "uint64"
            },
            {
              "name": "matcherFee",
              "type": "uint64"
            },
            {
              "name": "nonce",
              "type": "uint64"
            },
            {
              "name": "expiration",
              "type": "uint64"
            },
            {
              "name": "side",
              "type": "string"
            }
          ],
          "name": "order",
          "type": "tuple"
        },
        {
          "components": [
            {
              "name": "r",
              "type": "bytes32"
            },
            {
              "name": "s",
              "type": "bytes32"
            },
            {
              "name": "v",
              "type": "uint8"
            }
          ],
          "name": "sig",
          "type": "tuple"
        }
      ],
      "name": "isValidSignature",
      "outputs": [
        {
          "name": "",
          "type": "bool"
        }
      ],
      "payable": false,
      "stateMutability": "nonpayable",
      "type": "function",
      "signature": "0xcbd43204"
    },
    {
      "constant": false,
      "inputs": [
        {
          "components": [
            {
              "name": "senderAddress",
              "type": "address"
            },
            {
              "name": "matcherAddress",
              "type": "address"
            },
            {
              "name": "baseAsset",
              "type": "address"
            },
            {
              "name": "quoteAsset",
              "type": "address"
            },
            {
              "name": "matcherFeeAsset",
              "type": "address"
            },
            {
              "name": "amount",
              "type": "uint64"
            },
            {
              "name": "price",
              "type": "uint64"
            },
            {
              "name": "matcherFee",
              "type": "uint64"
            },
            {
              "name": "nonce",
              "type": "uint64"
            },
            {
              "name": "expiration",
              "type": "uint64"
            },
            {
              "name": "side",
              "type": "string"
            }
          ],
          "name": "order",
          "type": "tuple"
        }
      ],
      "name": "cancelOrder",
      "outputs": [],
      "payable": false,
      "stateMutability": "nonpayable",
      "type": "function",
      "signature": "0x34d9aa56"
    },
    {
      "constant": false,
      "inputs": [
        {
          "name": "newState",
          "type": "bool"
        }
      ],
      "name": "updateContractState",
      "outputs": [],
      "payable": false,
      "stateMutability": "nonpayable",
      "type": "function",
      "signature": "0x2fa68b32"
    }
  ],
  "bytecode": "0x60806040526001600760006101000a81548160ff02191690831515021790555060006200003a620000de640100000000026401000000009004565b9050806000806101000a81548173ffffffffffffffffffffffffffffffffffffffff021916908373ffffffffffffffffffffffffffffffffffffffff1602179055508073ffffffffffffffffffffffffffffffffffffffff16600073ffffffffffffffffffffffffffffffffffffffff167f8be0079c531659141344cd1fd0a4f28419497f9722a3daafe3b4186f6b6457e060405160405180910390a350620000e6565b600033905090565b61411a80620000f66000396000f3fe608060405260043610610147576000357c0100000000000000000000000000000000000000000000000000000000900480638f32d59b116100c8578063cdfd441e1161008c578063cdfd441e146103f5578063d1c0702814610420578063d4fac45d1461045d578063e275c9971461049a578063f2fde38b146104c5578063f3fef3a3146104ee57610147565b80638f32d59b146102ea5780639802063114610315578063bdfce5bf1461033e578063c7bc8b201461037b578063cbd43204146103b857610147565b806350ef1f5d1161010f57806350ef1f5d14610222578063715018a61461026157806376a207b8146102785780638da5cb5b146102825780638f13f48e146102ad57610147565b80631d8344091461014c5780632fa68b321461017757806334d9aa56146101a057806343249606146101c957806346a5d04314610206575b600080fd5b34801561015857600080fd5b50610161610517565b60405161016e9190613d10565b60405180910390f35b34801561018357600080fd5b5061019e60048036036101999190810190612d10565b61051d565b005b3480156101ac57600080fd5b506101c760048036036101c29190810190612dc7565b6105d7565b005b3480156101d557600080fd5b506101f060048036036101eb9190810190612c44565b610641565b6040516101fd9190613d2b565b60405180910390f35b610220600480360361021b9190810190612c44565b61078c565b005b34801561022e57600080fd5b5061024960048036036102449190810190612d8b565b610a5c565b604051610258939291906139b7565b60405180910390f35b34801561026d57600080fd5b50610276610aad565b005b610280610bb3565b005b34801561028e57600080fd5b50610297610dd6565b6040516102a491906138ac565b60405180910390f35b3480156102b957600080fd5b506102d460048036036102cf9190810190612d62565b610dff565b6040516102e1919061399c565b60405180910390f35b3480156102f657600080fd5b506102ff610e1f565b60405161030c919061399c565b60405180910390f35b34801561032157600080fd5b5061033c60048036036103379190810190612e08565b610e7d565b005b34801561034a57600080fd5b5061036560048036036103609190810190612c08565b6116e9565b6040516103729190613d10565b60405180910390f35b34801561038757600080fd5b506103a2600480360361039d9190810190612c80565b61170e565b6040516103af9190613d10565b60405180910390f35b3480156103c457600080fd5b506103df60048036036103da9190810190612ec4565b61186a565b6040516103ec919061399c565b60405180910390f35b34801561040157600080fd5b5061040a6118d1565b6040516104179190613a33565b60405180910390f35b34801561042c57600080fd5b5061044760048036036104429190810190612cbc565b6118f7565b604051610454919061397a565b60405180910390f35b34801561046957600080fd5b50610484600480360361047f9190810190612c08565b6119fc565b6040516104919190613d10565b60405180910390f35b3480156104a657600080fd5b506104af611a83565b6040516104bc9190613d10565b60405180910390f35b3480156104d157600080fd5b506104ec60048036036104e79190810190612bdf565b611a89565b005b3480156104fa57600080fd5b5061051560048036036105109190810190612c44565b611adc565b005b60055481565b610525610e1f565b610564576040517f08c379a000000000000000000000000000000000000000000000000000000000815260040161055b90613c10565b60405180910390fd5b801515600760009054906101000a900460ff16151514156105ba576040517f08c379a00000000000000000000000000000000000000000000000000000000081526004016105b190613bb0565b60405180910390fd5b80600760006101000a81548160ff02191690831515021790555050565b60006105e282611e9c565b905060016004600083815260200190815260200160002060006101000a81548160ff021916908315150217905550807f5152abf959f6564662358c2e52b702259b78bac5ee7842a0f01937e670efcc7d60405160405180910390a25050565b60008073ffffffffffffffffffffffffffffffffffffffff168373ffffffffffffffffffffffffffffffffffffffff1614156106af576106a8670de0b6b3a764000061069a6305f5e1008561205e90919063ffffffff16565b6120ce90919063ffffffff16565b9050610786565b600083905060008173ffffffffffffffffffffffffffffffffffffffff1663313ce5676040518163ffffffff167c010000000000000000000000000000000000000000000000000000000002815260040160206040518083038186803b15801561071857600080fd5b505afa15801561072c573d6000803e3d6000fd5b505050506040513d601f19601f820116820180604052506107509190810190612f18565b60ff16905061078181600a0a6107736305f5e1008761205e90919063ffffffff16565b6120ce90919063ffffffff16565b925050505b92915050565b600760009054906101000a900460ff166107db576040517f08c379a00000000000000000000000000000000000000000000000000000000081526004016107d290613af0565b60405180910390fd5b60008290508073ffffffffffffffffffffffffffffffffffffffff166323b872dd3330856040518463ffffffff167c0100000000000000000000000000000000000000000000000000000000028152600401610839939291906138c7565b602060405180830381600087803b15801561085357600080fd5b505af1158015610867573d6000803e3d6000fd5b505050506040513d601f19601f8201168201806040525061088b9190810190612d39565b6108ca576040517f08c379a00000000000000000000000000000000000000000000000000000000081526004016108c190613c50565b60405180910390fd5b60006108d68484610641565b67ffffffffffffffff16905061097181600360003373ffffffffffffffffffffffffffffffffffffffff1673ffffffffffffffffffffffffffffffffffffffff16815260200190815260200160002060008773ffffffffffffffffffffffffffffffffffffffff1673ffffffffffffffffffffffffffffffffffffffff1681526020019081526020016000205461211890919063ffffffff16565b600360003373ffffffffffffffffffffffffffffffffffffffff1673ffffffffffffffffffffffffffffffffffffffff16815260200190815260200160002060008673ffffffffffffffffffffffffffffffffffffffff1673ffffffffffffffffffffffffffffffffffffffff168152602001908152602001600020819055508373ffffffffffffffffffffffffffffffffffffffff163373ffffffffffffffffffffffffffffffffffffffff167f87e95ee7cdd8ce169873b1be6add255c13ec04051d493c3346c1e705a849e62083604051610a4e9190613d10565b60405180910390a350505050565b60026020528160005260406000208181548110610a7557fe5b9060005260206000209060030201600091509150508060000154908060010160009054906101000a900460ff16908060020154905083565b610ab5610e1f565b610af4576040517f08c379a0000000000000000000000000000000000000000000000000000000008152600401610aeb90613c10565b60405180910390fd5b600073ffffffffffffffffffffffffffffffffffffffff166000809054906101000a900473ffffffffffffffffffffffffffffffffffffffff1673ffffffffffffffffffffffffffffffffffffffff167f8be0079c531659141344cd1fd0a4f28419497f9722a3daafe3b4186f6b6457e060405160405180910390a360008060006101000a81548173ffffffffffffffffffffffffffffffffffffffff021916908373ffffffffffffffffffffffffffffffffffffffff160217905550565b600760009054906101000a900460ff16610c02576040517f08c379a0000000000000000000000000000000000000000000000000000000008152600401610bf990613af0565b60405180910390fd5b60003411610c45576040517f08c379a0000000000000000000000000000000000000000000000000000000008152600401610c3c90613cf0565b60405180910390fd5b6000610c52600034610641565b67ffffffffffffffff169050610ced81600360003373ffffffffffffffffffffffffffffffffffffffff1673ffffffffffffffffffffffffffffffffffffffff16815260200190815260200160002060008073ffffffffffffffffffffffffffffffffffffffff1673ffffffffffffffffffffffffffffffffffffffff1681526020019081526020016000205461211890919063ffffffff16565b600360003373ffffffffffffffffffffffffffffffffffffffff1673ffffffffffffffffffffffffffffffffffffffff16815260200190815260200160002060008073ffffffffffffffffffffffffffffffffffffffff1673ffffffffffffffffffffffffffffffffffffffff16815260200190815260200160002081905550600073ffffffffffffffffffffffffffffffffffffffff163373ffffffffffffffffffffffffffffffffffffffff167f87e95ee7cdd8ce169873b1be6add255c13ec04051d493c3346c1e705a849e62083604051610dcb9190613d10565b60405180910390a350565b60008060009054906101000a900473ffffffffffffffffffffffffffffffffffffffff16905090565b60046020528060005260406000206000915054906101000a900460ff1681565b60008060009054906101000a900473ffffffffffffffffffffffffffffffffffffffff1673ffffffffffffffffffffffffffffffffffffffff16610e6161216d565b73ffffffffffffffffffffffffffffffffffffffff1614905090565b600760009054906101000a900460ff16610ecc576040517f08c379a0000000000000000000000000000000000000000000000000000000008152600401610ec390613af0565b60405180910390fd5b610ed6868561186a565b610f15576040517f08c379a0000000000000000000000000000000000000000000000000000000008152600401610f0c90613cd0565b60405180910390fd5b610f1f858461186a565b610f5e576040517f08c379a0000000000000000000000000000000000000000000000000000000008152600401610f5590613cb0565b60405180910390fd5b3373ffffffffffffffffffffffffffffffffffffffff16866020015173ffffffffffffffffffffffffffffffffffffffff16148015610fcc57503373ffffffffffffffffffffffffffffffffffffffff16856020015173ffffffffffffffffffffffffffffffffffffffff16145b61100b576040517f08c379a000000000000000000000000000000000000000000000000000000000815260040161100290613c30565b60405180910390fd5b846040015173ffffffffffffffffffffffffffffffffffffffff16866040015173ffffffffffffffffffffffffffffffffffffffff161480156110815750846060015173ffffffffffffffffffffffffffffffffffffffff16866060015173ffffffffffffffffffffffffffffffffffffffff16145b6110c0576040517f08c379a00000000000000000000000000000000000000000000000000000000081526004016110b790613b50565b60405180910390fd5b8560c0015167ffffffffffffffff16821115611111576040517f08c379a000000000000000000000000000000000000000000000000000000000815260040161110890613b30565b60405180910390fd5b8460c0015167ffffffffffffffff16821015611162576040517f08c379a000000000000000000000000000000000000000000000000000000000815260040161115990613c90565b60405180910390fd5b426111876103e888610120015167ffffffffffffffff166120ce90919063ffffffff16565b10156111c8576040517f08c379a00000000000000000000000000000000000000000000000000000000081526004016111bf90613bf0565b60405180910390fd5b426111ed6103e887610120015167ffffffffffffffff166120ce90919063ffffffff16565b101561122e576040517f08c379a000000000000000000000000000000000000000000000000000000000815260040161122590613b90565b60405180910390fd5b60006112596305f5e10061124b858561205e90919063ffffffff16565b6120ce90919063ffffffff16565b905060008760000151905060008760000151905060008960400151905060008a60600151905084600360008673ffffffffffffffffffffffffffffffffffffffff1673ffffffffffffffffffffffffffffffffffffffff16815260200190815260200160002060008d6060015173ffffffffffffffffffffffffffffffffffffffff1673ffffffffffffffffffffffffffffffffffffffff168152602001908152602001600020541015611342576040517f08c379a000000000000000000000000000000000000000000000000000000000815260040161133990613b70565b60405180910390fd5b600061134d8c611e9c565b90506004600082815260200190815260200160002060009054906101000a900460ff16156113b0576040517f08c379a00000000000000000000000000000000000000000000000000000000081526004016113a790613b10565b60405180910390fd5b86600360008673ffffffffffffffffffffffffffffffffffffffff1673ffffffffffffffffffffffffffffffffffffffff16815260200190815260200160002060008d6040015173ffffffffffffffffffffffffffffffffffffffff1673ffffffffffffffffffffffffffffffffffffffff168152602001908152602001600020541015611473576040517f08c379a000000000000000000000000000000000000000000000000000000000815260040161146a90613a70565b60405180910390fd5b600061147e8c611e9c565b90506004600082815260200190815260200160002060009054906101000a900460ff16156114e1576040517f08c379a00000000000000000000000000000000000000000000000000000000081526004016114d890613b10565b60405180910390fd5b6114ef868686868c8c612175565b611505600160065461211890919063ffffffff16565b6006819055506115136128b1565b60405180606001604052808481526020016000600481111561153157fe5b81526020018a81525090506002600084815260200190815260200160002081908060018154018082558091505090600182039060005260206000209060030201600090919290919091506000820151816000015560208201518160010160006101000a81548160ff021916908360048111156115a957fe5b0217905550604082015181600201555050506115c36128b1565b6040518060600160405280848152602001600060048111156115e157fe5b81526020018b81525090506002600084815260200190815260200160002081908060018154018082558091505090600182039060005260206000209060030201600090919290919091506000820151816000015560208201518160010160006101000a81548160ff0219169083600481111561165957fe5b0217905550604082015181600201555050508673ffffffffffffffffffffffffffffffffffffffff168873ffffffffffffffffffffffffffffffffffffffff167ff626b901f3fa655ecbe675d14617d20a33bf86418ef46f472af1a2583dde7bf688888f8f8f6040516116d0959493929190613927565b60405180910390a3505050505050505050505050505050565b6003602052816000526040600020602052806000526040600020600091509150505481565b6000808267ffffffffffffffff169050600073ffffffffffffffffffffffffffffffffffffffff168473ffffffffffffffffffffffffffffffffffffffff16141561178c576117846305f5e100611776670de0b6b3a76400008461205e90919063ffffffff16565b6120ce90919063ffffffff16565b915050611864565b600084905060008173ffffffffffffffffffffffffffffffffffffffff1663313ce5676040518163ffffffff167c010000000000000000000000000000000000000000000000000000000002815260040160206040518083038186803b1580156117f557600080fd5b505afa158015611809573d6000803e3d6000fd5b505050506040513d601f19601f8201168201806040525061182d9190810190612f18565b60ff16905061185e6305f5e10061185083600a0a8661205e90919063ffffffff16565b6120ce90919063ffffffff16565b93505050505b92915050565b60008061187684611e9c565b90506000611892828560400151866000015187602001516125b9565b9050846000015173ffffffffffffffffffffffffffffffffffffffff168173ffffffffffffffffffffffffffffffffffffffff16149250505092915050565b600160009054906101000a900473ffffffffffffffffffffffffffffffffffffffff1681565b606080835160405190808252806020026020018201604052801561192a5781602001602082028038833980820191505090505b50905060008090505b84518110156119f157600360008573ffffffffffffffffffffffffffffffffffffffff1673ffffffffffffffffffffffffffffffffffffffff168152602001908152602001600020600086838151811061198957fe5b602002602001015173ffffffffffffffffffffffffffffffffffffffff1673ffffffffffffffffffffffffffffffffffffffff168152602001908152602001600020548282815181106119d857fe5b6020026020010181815250508080600101915050611933565b508091505092915050565b6000600360008373ffffffffffffffffffffffffffffffffffffffff1673ffffffffffffffffffffffffffffffffffffffff16815260200190815260200160002060008473ffffffffffffffffffffffffffffffffffffffff1673ffffffffffffffffffffffffffffffffffffffff16815260200190815260200160002054905092915050565b60065481565b611a91610e1f565b611ad0576040517f08c379a0000000000000000000000000000000000000000000000000000000008152600401611ac790613c10565b60405180910390fd5b611ad98161267d565b50565b6000611ae88383610641565b67ffffffffffffffff16905080600360003373ffffffffffffffffffffffffffffffffffffffff1673ffffffffffffffffffffffffffffffffffffffff16815260200190815260200160002060008573ffffffffffffffffffffffffffffffffffffffff1673ffffffffffffffffffffffffffffffffffffffff168152602001908152602001600020541015611bb3576040517f08c379a0000000000000000000000000000000000000000000000000000000008152600401611baa90613c70565b60405180910390fd5b611c4281600360003373ffffffffffffffffffffffffffffffffffffffff1673ffffffffffffffffffffffffffffffffffffffff16815260200190815260200160002060008673ffffffffffffffffffffffffffffffffffffffff1673ffffffffffffffffffffffffffffffffffffffff168152602001908152602001600020546127ab90919063ffffffff16565b600360003373ffffffffffffffffffffffffffffffffffffffff1673ffffffffffffffffffffffffffffffffffffffff16815260200190815260200160002060008573ffffffffffffffffffffffffffffffffffffffff1673ffffffffffffffffffffffffffffffffffffffff16815260200190815260200160002081905550600073ffffffffffffffffffffffffffffffffffffffff168373ffffffffffffffffffffffffffffffffffffffff161415611d43573373ffffffffffffffffffffffffffffffffffffffff166108fc839081150290604051600060405180830381858888f19350505050158015611d3d573d6000803e3d6000fd5b50611e32565b60008390508073ffffffffffffffffffffffffffffffffffffffff1663a9059cbb33856040518363ffffffff167c0100000000000000000000000000000000000000000000000000000000028152600401611d9f9291906138fe565b602060405180830381600087803b158015611db957600080fd5b505af1158015611dcd573d6000803e3d6000fd5b505050506040513d601f19601f82011682018060405250611df19190810190612d39565b611e30576040517f08c379a0000000000000000000000000000000000000000000000000000000008152600401611e2790613a90565b60405180910390fd5b505b8273ffffffffffffffffffffffffffffffffffffffff163373ffffffffffffffffffffffffffffffffffffffff167f29f9103583c97b319d05287c41c024d7219f7217e16ca5f4066a7c2019cd2fd883604051611e8f9190613d10565b60405180910390a3505050565b600080604051602001611eae90613897565b60405160208183030381529060405280519060200120905060037f010000000000000000000000000000000000000000000000000000000000000002836000015184602001518560400151866060015187608001518860a001517801000000000000000000000000000000000000000000000000028960c001517801000000000000000000000000000000000000000000000000028a60e001517801000000000000000000000000000000000000000000000000028b61010001517801000000000000000000000000000000000000000000000000028c61012001517801000000000000000000000000000000000000000000000000028b8e6101400151604051602001611fbc9190613880565b60405160208183030381529060405280519060200120146120005760017f010000000000000000000000000000000000000000000000000000000000000002612025565b60007f0100000000000000000000000000000000000000000000000000000000000000025b6040516020016120409c9b9a99989796959493929190613782565b60405160208183030381529060405280519060200120915050919050565b60008083141561207157600090506120c8565b600082840290508284828161208257fe5b04146120c3576040517f08c379a00000000000000000000000000000000000000000000000000000000081526004016120ba90613bd0565b60405180910390fd5b809150505b92915050565b600061211083836040518060400160405280601a81526020017f536166654d6174683a206469766973696f6e206279207a65726f0000000000008152506127f5565b905092915050565b600080828401905083811015612163576040517f08c379a000000000000000000000000000000000000000000000000000000000815260040161215a90613ad0565b60405180910390fd5b8091505092915050565b600033905090565b61220481600360008973ffffffffffffffffffffffffffffffffffffffff1673ffffffffffffffffffffffffffffffffffffffff16815260200190815260200160002060008673ffffffffffffffffffffffffffffffffffffffff1673ffffffffffffffffffffffffffffffffffffffff168152602001908152602001600020546127ab90919063ffffffff16565b600360008873ffffffffffffffffffffffffffffffffffffffff1673ffffffffffffffffffffffffffffffffffffffff16815260200190815260200160002060008573ffffffffffffffffffffffffffffffffffffffff1673ffffffffffffffffffffffffffffffffffffffff1681526020019081526020016000208190555061231382600360008973ffffffffffffffffffffffffffffffffffffffff1673ffffffffffffffffffffffffffffffffffffffff16815260200190815260200160002060008773ffffffffffffffffffffffffffffffffffffffff1673ffffffffffffffffffffffffffffffffffffffff1681526020019081526020016000205461211890919063ffffffff16565b600360008873ffffffffffffffffffffffffffffffffffffffff1673ffffffffffffffffffffffffffffffffffffffff16815260200190815260200160002060008673ffffffffffffffffffffffffffffffffffffffff1673ffffffffffffffffffffffffffffffffffffffff1681526020019081526020016000208190555061242281600360008873ffffffffffffffffffffffffffffffffffffffff1673ffffffffffffffffffffffffffffffffffffffff16815260200190815260200160002060008673ffffffffffffffffffffffffffffffffffffffff1673ffffffffffffffffffffffffffffffffffffffff1681526020019081526020016000205461211890919063ffffffff16565b600360008773ffffffffffffffffffffffffffffffffffffffff1673ffffffffffffffffffffffffffffffffffffffff16815260200190815260200160002060008573ffffffffffffffffffffffffffffffffffffffff1673ffffffffffffffffffffffffffffffffffffffff1681526020019081526020016000208190555061253182600360008873ffffffffffffffffffffffffffffffffffffffff1673ffffffffffffffffffffffffffffffffffffffff16815260200190815260200160002060008773ffffffffffffffffffffffffffffffffffffffff1673ffffffffffffffffffffffffffffffffffffffff168152602001908152602001600020546127ab90919063ffffffff16565b600360008773ffffffffffffffffffffffffffffffffffffffff1673ffffffffffffffffffffffffffffffffffffffff16815260200190815260200160002060008673ffffffffffffffffffffffffffffffffffffffff1673ffffffffffffffffffffffffffffffffffffffff16815260200190815260200160002081905550505050505050565b600060606040518060400160405280601c81526020017f19457468657265756d205369676e6564204d6573736167653a0a33320000000081525090506000818760405160200161260a929190613858565b6040516020818303038152906040528051906020012090506001818787876040516000815260200160405260405161264594939291906139ee565b6020604051602081039080840390855afa158015612667573d6000803e3d6000fd5b5050506020604051035192505050949350505050565b600073ffffffffffffffffffffffffffffffffffffffff168173ffffffffffffffffffffffffffffffffffffffff1614156126ed576040517f08c379a00000000000000000000000000000000000000000000000000000000081526004016126e490613ab0565b60405180910390fd5b8073ffffffffffffffffffffffffffffffffffffffff166000809054906101000a900473ffffffffffffffffffffffffffffffffffffffff1673ffffffffffffffffffffffffffffffffffffffff167f8be0079c531659141344cd1fd0a4f28419497f9722a3daafe3b4186f6b6457e060405160405180910390a3806000806101000a81548173ffffffffffffffffffffffffffffffffffffffff021916908373ffffffffffffffffffffffffffffffffffffffff16021790555050565b60006127ed83836040518060400160405280601e81526020017f536166654d6174683a207375627472616374696f6e206f766572666c6f770000815250612856565b905092915050565b6000808311829061283c576040517f08c379a00000000000000000000000000000000000000000000000000000000081526004016128339190613a4e565b60405180910390fd5b50600083858161284857fe5b049050809150509392505050565b600083831115829061289e576040517f08c379a00000000000000000000000000000000000000000000000000000000081526004016128959190613a4e565b60405180910390fd5b5060008385039050809150509392505050565b604051806060016040528060008019168152602001600060048111156128d357fe5b8152602001600081525090565b6000813590506128ef8161404d565b92915050565b600082601f83011261290657600080fd5b813561291961291482613d73565b613d46565b9150818183526020840193506020810190508385602084028201111561293e57600080fd5b60005b8381101561296e578161295488826128e0565b845260208401935060208301925050600181019050612941565b5050505092915050565b60008135905061298781614064565b92915050565b60008151905061299c81614064565b92915050565b6000813590506129b18161407b565b92915050565b600082601f8301126129c857600080fd5b81356129db6129d682613d9b565b613d46565b915080825260208301602083018583830111156129f757600080fd5b612a02838284613f92565b50505092915050565b60006101608284031215612a1e57600080fd5b612a29610160613d46565b90506000612a39848285016128e0565b6000830152506020612a4d848285016128e0565b6020830152506040612a61848285016128e0565b6040830152506060612a75848285016128e0565b6060830152506080612a89848285016128e0565b60808301525060a0612a9d84828501612ba0565b60a08301525060c0612ab184828501612ba0565b60c08301525060e0612ac584828501612ba0565b60e083015250610100612ada84828501612ba0565b61010083015250610120612af084828501612ba0565b6101208301525061014082013567ffffffffffffffff811115612b1257600080fd5b612b1e848285016129b7565b6101408301525092915050565b600060608284031215612b3d57600080fd5b612b476060613d46565b90506000612b57848285016129a2565b6000830152506020612b6b848285016129a2565b6020830152506040612b7f84828501612bb5565b60408301525092915050565b600081359050612b9a81614092565b92915050565b600081359050612baf816140a9565b92915050565b600081359050612bc4816140c0565b92915050565b600081519050612bd9816140c0565b92915050565b600060208284031215612bf157600080fd5b6000612bff848285016128e0565b91505092915050565b60008060408385031215612c1b57600080fd5b6000612c29858286016128e0565b9250506020612c3a858286016128e0565b9150509250929050565b60008060408385031215612c5757600080fd5b6000612c65858286016128e0565b9250506020612c7685828601612b8b565b9150509250929050565b60008060408385031215612c9357600080fd5b6000612ca1858286016128e0565b9250506020612cb285828601612ba0565b9150509250929050565b60008060408385031215612ccf57600080fd5b600083013567ffffffffffffffff811115612ce957600080fd5b612cf5858286016128f5565b9250506020612d06858286016128e0565b9150509250929050565b600060208284031215612d2257600080fd5b6000612d3084828501612978565b91505092915050565b600060208284031215612d4b57600080fd5b6000612d598482850161298d565b91505092915050565b600060208284031215612d7457600080fd5b6000612d82848285016129a2565b91505092915050565b60008060408385031215612d9e57600080fd5b6000612dac858286016129a2565b9250506020612dbd85828601612b8b565b9150509250929050565b600060208284031215612dd957600080fd5b600082013567ffffffffffffffff811115612df357600080fd5b612dff84828501612a0b565b91505092915050565b6000806000806000806101408789031215612e2257600080fd5b600087013567ffffffffffffffff811115612e3c57600080fd5b612e4889828a01612a0b565b965050602087013567ffffffffffffffff811115612e6557600080fd5b612e7189828a01612a0b565b9550506040612e8289828a01612b2b565b94505060a0612e9389828a01612b2b565b935050610100612ea589828a01612b8b565b925050610120612eb789828a01612b8b565b9150509295509295509295565b60008060808385031215612ed757600080fd5b600083013567ffffffffffffffff811115612ef157600080fd5b612efd85828601612a0b565b9250506020612f0e85828601612b2b565b9150509250929050565b600060208284031215612f2a57600080fd5b6000612f3884828501612bca565b91505092915050565b6000612f4d8383613746565b60208301905092915050565b612f6281613f26565b82525050565b612f7181613e48565b82525050565b612f88612f8382613e48565b613fd4565b82525050565b6000612f9982613dd7565b612fa38185613e10565b9350612fae83613dc7565b8060005b83811015612fdf578151612fc68882612f41565b9750612fd183613e03565b925050600181019050612fb2565b5085935050505092915050565b612ff581613e5a565b82525050565b61300c61300782613e66565b613fe6565b82525050565b61301b81613e92565b82525050565b61303261302d82613e92565b613ff0565b82525050565b61304961304482613e9c565b613ffa565b82525050565b600061305a82613de2565b6130648185613e21565b9350613074818560208601613fa1565b80840191505092915050565b61308981613f38565b82525050565b61309881613f5c565b82525050565b60006130a982613df8565b6130b38185613e2c565b93506130c3818560208601613fa1565b6130cc81614016565b840191505092915050565b60006130e282613ded565b6130ec8185613e3d565b93506130fc818560208601613fa1565b80840191505092915050565b6000613115601d83613e2c565b91507f696e73756666696369656e742073656c6c657227732062616c616e63650000006000830152602082019050919050565b6000613155601f83613e2c565b91507f6572726f72207472616e73666572696e672066756e647320746f2075736572006000830152602082019050919050565b6000613195602683613e2c565b91507f4f776e61626c653a206e6577206f776e657220697320746865207a65726f206160008301527f64647265737300000000000000000000000000000000000000000000000000006020830152604082019050919050565b60006131fb601b83613e2c565b91507f536166654d6174683a206164646974696f6e206f766572666c6f7700000000006000830152602082019050919050565b600061323b601683613e2c565b91507f636f6e7472616374206973206e6f7420616374697665000000000000000000006000830152602082019050919050565b600061327b601783613e2c565b91507f627579206f72646572207761732063616e63656c6c65640000000000000000006000830152602082019050919050565b60006132bb602483613e2c565b91507f696e636f72726563742066696c6c656420707269636520666f7220627579206f60008301527f72646572000000000000000000000000000000000000000000000000000000006020830152604082019050919050565b6000613321601383613e2c565b91507f61737365747320646f206e6f74206d61746368000000000000000000000000006000830152602082019050919050565b6000613361600383613e3d565b91507f62757900000000000000000000000000000000000000000000000000000000006000830152600382019050919050565b60006133a1601c83613e2c565b91507f696e73756666696369656e7420627579657227732062616c616e6365000000006000830152602082019050919050565b60006133e1601283613e2c565b91507f73656c6c206f72646572206578706972656400000000000000000000000000006000830152602082019050919050565b6000613421601583613e2c565b91507f73616d652061732063757272656e7420737461746500000000000000000000006000830152602082019050919050565b6000613461602183613e2c565b91507f536166654d6174683a206d756c7469706c69636174696f6e206f766572666c6f60008301527f77000000000000000000000000000000000000000000000000000000000000006020830152604082019050919050565b60006134c7601183613e2c565b91507f627579206f7264657220657870697265640000000000000000000000000000006000830152602082019050919050565b6000613507602083613e2c565b91507f4f776e61626c653a2063616c6c6572206973206e6f7420746865206f776e65726000830152602082019050919050565b6000613547601983613e2c565b91507f696e636f7272656374206d6174636865722061646472657373000000000000006000830152602082019050919050565b6000613587602383613e2c565b91507f6572726f72207472616e73666572696e6720617373657420746f20657863686160008301527f6e676500000000000000000000000000000000000000000000000000000000006020830152604082019050919050565b60006135ed601c83613e2c565b91507f6e6f7420656e6f7567682066756e647320746f207769746864726177000000006000830152602082019050919050565b600061362d602583613e2c565b91507f696e636f72726563742066696c6c656420707269636520666f722073656c6c2060008301527f6f726465720000000000000000000000000000000000000000000000000000006020830152604082019050919050565b6000613693602083613e2c565b91507f496e76616c6964207369676e617475726520666f722053656c6c206f726465726000830152602082019050919050565b60006136d3601f83613e2c565b91507f496e76616c6964207369676e617475726520666f7220427579206f72646572006000830152602082019050919050565b6000613713601383613e2c565b91507f696e76616c696420616d6f756e742073656e74000000000000000000000000006000830152602082019050919050565b61374f81613efb565b82525050565b61375e81613efb565b82525050565b61376d81613f05565b82525050565b61377c81613f19565b82525050565b600061378e828f612ffb565b60018201915061379e828e612f77565b6014820191506137ae828d612f77565b6014820191506137be828c612f77565b6014820191506137ce828b612f77565b6014820191506137de828a612f77565b6014820191506137ee8289613038565b6008820191506137fe8288613038565b60088201915061380e8287613038565b60088201915061381e8286613038565b60088201915061382e8285613038565b60088201915061383e8284612ffb565b6001820191508190509d9c50505050505050505050505050565b6000613864828561304f565b91506138708284613021565b6020820191508190509392505050565b600061388c82846130d7565b915081905092915050565b60006138a282613354565b9150819050919050565b60006020820190506138c16000830184612f68565b92915050565b60006060820190506138dc6000830186612f59565b6138e96020830185612f68565b6138f66040830184613755565b949350505050565b60006040820190506139136000830185612f59565b6139206020830184613755565b9392505050565b600060a08201905061393c6000830188612f68565b6139496020830187612f68565b6139566040830186613755565b6139636060830185613755565b6139706080830184613755565b9695505050505050565b600060208201905081810360008301526139948184612f8e565b905092915050565b60006020820190506139b16000830184612fec565b92915050565b60006060820190506139cc6000830186613012565b6139d9602083018561308f565b6139e66040830184613755565b949350505050565b6000608082019050613a036000830187613012565b613a106020830186613773565b613a1d6040830185613012565b613a2a6060830184613012565b95945050505050565b6000602082019050613a486000830184613080565b92915050565b60006020820190508181036000830152613a68818461309e565b905092915050565b60006020820190508181036000830152613a8981613108565b9050919050565b60006020820190508181036000830152613aa981613148565b9050919050565b60006020820190508181036000830152613ac981613188565b9050919050565b60006020820190508181036000830152613ae9816131ee565b9050919050565b60006020820190508181036000830152613b098161322e565b9050919050565b60006020820190508181036000830152613b298161326e565b9050919050565b60006020820190508181036000830152613b49816132ae565b9050919050565b60006020820190508181036000830152613b6981613314565b9050919050565b60006020820190508181036000830152613b8981613394565b9050919050565b60006020820190508181036000830152613ba9816133d4565b9050919050565b60006020820190508181036000830152613bc981613414565b9050919050565b60006020820190508181036000830152613be981613454565b9050919050565b60006020820190508181036000830152613c09816134ba565b9050919050565b60006020820190508181036000830152613c29816134fa565b9050919050565b60006020820190508181036000830152613c498161353a565b9050919050565b60006020820190508181036000830152613c698161357a565b9050919050565b60006020820190508181036000830152613c89816135e0565b9050919050565b60006020820190508181036000830152613ca981613620565b9050919050565b60006020820190508181036000830152613cc981613686565b9050919050565b60006020820190508181036000830152613ce9816136c6565b9050919050565b60006020820190508181036000830152613d0981613706565b9050919050565b6000602082019050613d256000830184613755565b92915050565b6000602082019050613d406000830184613764565b92915050565b6000604051905081810181811067ffffffffffffffff82111715613d6957600080fd5b8060405250919050565b600067ffffffffffffffff821115613d8a57600080fd5b602082029050602081019050919050565b600067ffffffffffffffff821115613db257600080fd5b601f19601f8301169050602081019050919050565b6000819050602082019050919050565b600081519050919050565b600081519050919050565b600081519050919050565b600081519050919050565b6000602082019050919050565b600082825260208201905092915050565b600081905092915050565b600082825260208201905092915050565b600081905092915050565b6000613e5382613edb565b9050919050565b60008115159050919050565b60007fff0000000000000000000000000000000000000000000000000000000000000082169050919050565b6000819050919050565b60007fffffffffffffffff00000000000000000000000000000000000000000000000082169050919050565b6000819050613ed682614040565b919050565b600073ffffffffffffffffffffffffffffffffffffffff82169050919050565b6000819050919050565b600067ffffffffffffffff82169050919050565b600060ff82169050919050565b6000613f3182613f6e565b9050919050565b6000613f4382613f4a565b9050919050565b6000613f5582613edb565b9050919050565b6000613f6782613ec8565b9050919050565b6000613f7982613f80565b9050919050565b6000613f8b82613edb565b9050919050565b82818337600083830152505050565b60005b83811015613fbf578082015181840152602081019050613fa4565b83811115613fce576000848401525b50505050565b6000613fdf82614004565b9050919050565b6000819050919050565b6000819050919050565b6000819050919050565b600061400f82614027565b9050919050565b6000601f19601f8301169050919050565b60006c0100000000000000000000000082029050919050565b6005811061404a57fe5b50565b61405681613e48565b811461406157600080fd5b50565b61406d81613e5a565b811461407857600080fd5b50565b61408481613e92565b811461408f57600080fd5b50565b61409b81613efb565b81146140a657600080fd5b50565b6140b281613f05565b81146140bd57600080fd5b50565b6140c981613f19565b81146140d457600080fd5b5056fea365627a7a7230582010d3af8d9aaa8f956a903895ba3738957305b217c638590bc77671eb00dc7b026c6578706572696d656e74616cf564736f6c634300050a0040",
  "source": "pragma solidity 0.5.10;\npragma experimental ABIEncoderV2;\n\nimport '@openzeppelin/contracts/math/SafeMath.sol';\nimport '@openzeppelin/contracts/ownership/Ownable.sol';\nimport '@openzeppelin/contracts/token/ERC20/IERC20.sol';\nimport './Utils.sol';\n\n\n/**\n * @title Exchange\n * @dev Exchange contract for the Orion Protocol\n * @author @wafflemakr\n */\ncontract Exchange is Ownable, Utils{\n\n    using SafeMath for uint;\n    using SafeMath for uint64;\n\n    // EVENTS\n    event NewAssetDeposit(address indexed user, address indexed assetAddress, uint amount);\n    event NewAssetWithdrawl(address indexed user, address indexed assetAddress, uint amount);\n    event NewTrade(address indexed buyer, address indexed seller, address baseAsset, address quoteAsset, uint filledPrice, uint filledAmount, uint amountQuote);\n    event OrderCancelled(bytes32 indexed orderHash);\n\n\n    // GLOBAL VARIABLES\n\n    IERC20 public orion;\n\n    enum Status {NEW, PARTIALLY_FILLED, FILLED, PARTIALLY_CANCELLED, CANCELLED}\n\n    struct Order{\n        address senderAddress;\n        address matcherAddress;\n        address baseAsset;\n        address quoteAsset;\n        address matcherFeeAsset;\n        uint64 amount;\n        uint64 price;\n        uint64 matcherFee;\n        uint64 nonce;\n        uint64 expiration;\n        string side; // true = buy false = sell\n    }\n\n    struct Trade{\n        bytes32 orderHash;\n        Status orderStatus;\n        uint filledAmount;\n    }\n\n    struct Signature{\n        bytes32 r;\n        bytes32 s;\n        uint8 v ;\n    }\n\n    // Get trades by orderHash\n    mapping(bytes32 => Trade[]) public trades;\n\n    // Get user balance by address and asset address\n    mapping(address => mapping(address => uint)) public assetBalances;\n\n    // Check if an order was cancelled\n    mapping(bytes32 => bool) public cancelledOrders;\n\n    uint public totalOrders;\n    uint public totalTrades;\n    // Pause or unpause exchangebuyOrderHash\n    bool isActive = true;\n\n\n    // MODIFIERS\n\n    /**\n     * @dev prevents people from using the exchange if not active\n     */\n    modifier onlyActive() {\n        require(isActive, \"contract is not active\");\n        _;\n    }\n\n\n    // MAIN FUNCTIONS\n    /**\n     * @dev Deposit WAN or ERC20 tokens to the exchange contract\n     * @dev User needs to approve token contract first\n     * @param amount asset amount to deposit in its base unit\n     */\n    function depositAsset(address assetAddress, uint amount) public payable onlyActive{\n        IERC20 asset = IERC20(assetAddress);\n        require(asset.transferFrom(msg.sender, address(this), amount), \"error transfering asset to exchange\");\n\n        uint amountDecimal = baseUnitToDecimal(assetAddress, amount);\n\n        assetBalances[msg.sender][assetAddress] = assetBalances[msg.sender][assetAddress].add(amountDecimal);\n\n        emit NewAssetDeposit(msg.sender, assetAddress, amountDecimal);\n    }\n\n    /**\n     * @dev Deposit WAN to the exchange contract\n     */\n    function depositWan() public payable onlyActive{\n        require(msg.value > 0, \"invalid amount sent\");\n\n        uint amountDecimal = baseUnitToDecimal(address(0), msg.value);\n\n        assetBalances[msg.sender][address(0)] = assetBalances[msg.sender][address(0)].add(amountDecimal);\n\n        emit NewAssetDeposit(msg.sender, address(0), amountDecimal);\n    }\n\n    /**\n     * @dev Withdrawal of remaining funds from the contract back to the address\n     * @param amount asset amount to withdraw in its base unit\n     */\n    function withdraw(address assetAddress, uint amount) public{\n        uint amountDecimal = baseUnitToDecimal(assetAddress, amount);\n\n        require(assetBalances[msg.sender][assetAddress] >= amountDecimal, \"not enough funds to withdraw\");\n\n        assetBalances[msg.sender][assetAddress] = assetBalances[msg.sender][assetAddress].sub(amountDecimal);\n\n        if(assetAddress == address(0))\n            msg.sender.transfer(amount);\n        else{\n            IERC20 asset = IERC20(assetAddress);\n            require(asset.transfer(msg.sender, amount), \"error transfering funds to user\");\n        }\n\n        emit NewAssetWithdrawl(msg.sender, assetAddress, amountDecimal);\n    }\n\n\n    /**\n     * @dev Asset balance for a specific address\n     */\n    function getBalance(address assetAddress, address user) public view returns(uint assetBalance){\n        return assetBalances[user][assetAddress];\n    }\n\n    /**\n     * @dev Batch request of asset balances\n     */\n    function getBalances(address[] memory assetsAddresses, address user) public view returns(uint[] memory){\n        uint[] memory balances = new uint[](assetsAddresses.length);\n        for(uint i = 0; i < assetsAddresses.length; i++){\n            balances[i] = assetBalances[user][assetsAddresses[i]];\n        }\n        return balances;\n    }\n\n    /**\n     * @notice Settle a trade with two orders, filled price and amount\n     * @dev 2 orders are submitted, it is necessary to match them:\n        check conditions in orders for compliance filledPrice, filledAmountbuyOrderHash\n        change balances on the contract respectively with buyer, seller, matcbuyOrderHashher\n     * @param buyOrder structure of buy side orderbuyOrderHash\n     * @param sellOrder structure of sell side order\n     * @param filledPrice price at which the order was settled\n     * @param filledAmount amount settled between orders\n     */\n    function fillOrders(\n        Order memory buyOrder, Order memory sellOrder,\n        Signature memory buySig, Signature memory sellSig,\n        uint filledPrice, uint filledAmount\n    )\n        public onlyActive\n    {\n\n        // VALIDATE SIGNATURES\n        require(isValidSignature(buyOrder, buySig), \"Invalid signature for Buy order\");\n        require(isValidSignature(sellOrder, sellSig), \"Invalid signature for Sell order\");\n\n        // VERIFICATIONS\n\n        // Check matching assets\n        require(buyOrder.matcherAddress == msg.sender && sellOrder.matcherAddress == msg.sender, \"incorrect matcher address\");\n        require(buyOrder.baseAsset == sellOrder.baseAsset && buyOrder.quoteAsset == sellOrder.quoteAsset, \"assets do not match\");\n\n        // Check Price\n        require(filledPrice <= buyOrder.price, \"incorrect filled price for buy order\");\n        require(filledPrice >= sellOrder.price, \"incorrect filled price for sell order\");\n\n        // Check Expiration Time\n        require(buyOrder.expiration.div(1000) >= now, \"buy order expired\");\n        require(sellOrder.expiration.div(1000) >= now, \"sell order expired\");\n\n        // Amount of quote asset\n        uint amountToTake = filledAmount.mul(filledPrice).div(10**8);\n        address buyer = buyOrder.senderAddress;\n        address seller = sellOrder.senderAddress;\n        address baseAsset = buyOrder.baseAsset;\n        address quoteAsset = buyOrder.quoteAsset;\n\n        // BUY SIDE CHECK\n\n        require(assetBalances[buyer][buyOrder.quoteAsset] >= amountToTake, \"insufficient buyer's balance\");\n        bytes32 buyOrderHash = _getOrderhash(buyOrder);\n        require(!cancelledOrders[buyOrderHash], \"buy order was cancelled\");\n        // require(_checkAmount(buyOrderHash, buyOrder.amount, filledAmount), \"incorrect filled amount\");\n\n        // SELL SIDE CHECK\n        require(assetBalances[seller][sellOrder.baseAsset] >= filledAmount, \"insufficient seller's balance\");\n        bytes32 sellOrderHash = _getOrderhash(sellOrder);\n        require(!cancelledOrders[sellOrderHash], \"buy order was cancelled\");\n        // require(_checkAmount(sellOrderHash, sellOrder.amount, filledAmount), \"incorrect filled amount\");\n\n        // === VERIFICATIONS DONE ===\n\n        _updateBalances(buyer, seller, baseAsset, quoteAsset, filledAmount, amountToTake);\n\n        totalTrades = totalTrades.add(1);\n\n        // Store trades\n        Trade memory buyTrade = Trade(buyOrderHash, Status.NEW, filledAmount); //temporary set 0 for orderStatus until logic implemented\n        trades[buyOrderHash].push(buyTrade);\n        Trade memory sellTrade = Trade(sellOrderHash, Status.NEW, filledAmount); //temporary set 0 for orderStatus until logic implemented\n        trades[sellOrderHash].push(sellTrade);\n\n        emit NewTrade(buyer, seller, baseAsset, quoteAsset, filledPrice, filledAmount, amountToTake);\n\n    }\n\n    function _updateBalances(\n        address buyer, address seller, address baseAsset,\n        address quoteAsset, uint filledAmount, uint amountToTake\n    ) internal{\n        // Update Buyer's Balance (- quoteAsset + baseAsset - matcherFeeAsset)\n        assetBalances[buyer][quoteAsset] = assetBalances[buyer][quoteAsset].sub(amountToTake);\n        assetBalances[buyer][baseAsset] = assetBalances[buyer][baseAsset].add(filledAmount);\n\n        // Update Seller's Balance  (+ quoteAsset - baseAsset - matcherFeeAsset)\n        assetBalances[seller][quoteAsset] = assetBalances[seller][quoteAsset].add(amountToTake);\n        assetBalances[seller][baseAsset] = assetBalances[seller][baseAsset].sub(filledAmount);\n\n    }\n\n    function _checkAmount(bytes32 orderHash, uint orderAmount, uint newTradeAmount) internal view returns(bool){\n        uint totalTradeAmount;\n        for(uint i = 0; i < trades[orderHash].length; i++){\n            totalTradeAmount = totalTradeAmount.add(trades[orderHash][i].filledAmount);\n        }\n        return (totalTradeAmount.add(newTradeAmount) <= orderAmount);\n    }\n\n    function _getOrderhash(Order memory _order) internal pure returns(bytes32){\n        bytes32 buySide = keccak256(abi.encodePacked(\"buy\"));\n\n        return keccak256(abi.encodePacked(\n            bytes1(0x03),\n            _order.senderAddress,\n            _order.matcherAddress,\n            _order.baseAsset,\n            _order.quoteAsset,\n            _order.matcherFeeAsset,\n            bytes8(_order.amount),\n            bytes8(_order.price),\n            bytes8(_order.matcherFee),\n            bytes8(_order.nonce),\n            bytes8(_order.expiration),\n            keccak256(abi.encodePacked(_order.side)) == buySide ? bytes1(0x00):bytes1(0x01)\n        ));\n    }\n\n    /**\n     *  @dev Performs an `ecrecover` operation for signed message hashes\n     */\n    function _recoverAddress(bytes32 _hash, uint8 _v, bytes32 _r, bytes32 _s)\n        internal\n        pure\n        returns (address)\n    {\n        bytes memory prefix = \"\\x19Ethereum Signed Message:\\n32\";\n        bytes32 prefixedHash = keccak256(abi.encodePacked(prefix, _hash));\n        return ecrecover(prefixedHash, _v, _r, _s);\n    }\n\n    function isValidSignature(Order memory order, Signature memory sig) public returns(bool) {\n        bytes32 orderHash = _getOrderhash(order);\n        address recovered = _recoverAddress(orderHash, sig.v, sig.r, sig.s);\n        return recovered == order.senderAddress;\n    }\n\n\n    /**\n     * @dev write an orderHash in the contract so that such an order cannot be filled (executed)\n     */\n    function cancelOrder(Order memory order) public{\n        //TODO: check if order can be cancelled\n\n        bytes32 orderHash = _getOrderhash(order);\n\n        cancelledOrders[orderHash] = true;\n        emit OrderCancelled(orderHash);\n    }\n\n    // OWNER FUNCTIONS\n\n    /**\n     * @dev change state of contracts\n     */\n    function updateContractState(bool newState) public onlyOwner{\n        require(isActive != newState, \"same as current state\");\n        isActive = newState;\n    }\n\n}",
  "sourcePath": "/Users/koloale/orion-src/orion-exchange/contracts/Exchange.sol",
  "compiler": {
    "name": "solc",
    "version": "0.5.10+commit.5a6ea5b1.Emscripten.clang"
  },
  "schemaVersion": "3.0.2",
  "updatedAt": "2020-03-03T13:26:41.433Z",
  "devdoc": {
    "author": "@wafflemakr",
    "details": "Exchange contract for the Orion Protocol",
    "methods": {
      "cancelOrder((address,address,address,address,address,uint64,uint64,uint64,uint64,uint64,string))": {
        "details": "write an orderHash in the contract so that such an order cannot be filled (executed)"
      },
      "depositAsset(address,uint256)": {
        "details": "Deposit WAN or ERC20 tokens to the exchange contractUser needs to approve token contract first",
        "params": {
          "amount": "asset amount to deposit in its base unit"
        }
      },
      "depositWan()": {
        "details": "Deposit WAN to the exchange contract"
      },
      "fillOrders((address,address,address,address,address,uint64,uint64,uint64,uint64,uint64,string),(address,address,address,address,address,uint64,uint64,uint64,uint64,uint64,string),(bytes32,bytes32,uint8),(bytes32,bytes32,uint8),uint256,uint256)": {
        "details": "2 orders are submitted, it is necessary to match them: check conditions in orders for compliance filledPrice, filledAmountbuyOrderHash change balances on the contract respectively with buyer, seller, matcbuyOrderHashher",
        "params": {
          "buyOrder": "structure of buy side orderbuyOrderHash",
          "filledAmount": "amount settled between orders",
          "filledPrice": "price at which the order was settled",
          "sellOrder": "structure of sell side order"
        }
      },
      "getBalance(address,address)": {
        "details": "Asset balance for a specific address"
      },
      "getBalances(address[],address)": {
        "details": "Batch request of asset balances"
      },
      "isOwner()": {
        "details": "Returns true if the caller is the current owner."
      },
      "owner()": {
        "details": "Returns the address of the current owner."
      },
      "renounceOwnership()": {
        "details": "Leaves the contract without owner. It will not be possible to call `onlyOwner` functions anymore. Can only be called by the current owner.     * NOTE: Renouncing ownership will leave the contract without an owner, thereby removing any functionality that is only available to the owner."
      },
      "transferOwnership(address)": {
        "details": "Transfers ownership of the contract to a new account (`newOwner`). Can only be called by the current owner."
      },
      "updateContractState(bool)": {
        "details": "change state of contracts"
      },
      "withdraw(address,uint256)": {
        "details": "Withdrawal of remaining funds from the contract back to the address",
        "params": {
          "amount": "asset amount to withdraw in its base unit"
        }
      }
    },
    "title": "Exchange"
  },
  "userdoc": {
    "methods": {
      "fillOrders((address,address,address,address,address,uint64,uint64,uint64,uint64,uint64,string),(address,address,address,address,address,uint64,uint64,uint64,uint64,uint64,string),(bytes32,bytes32,uint8),(bytes32,bytes32,uint8),uint256,uint256)": {
        "notice": "Settle a trade with two orders, filled price and amount"
      }
    }
  }
}